:020000040800F2
:10000000486000203D020008A5470008393B000871
:10001000A1470008DD060008955000080000000018
:10002000000000000000000000000000214A00085D
:100030003507000800000000B1470008754A0008B5
:10004000570200085702000857020008570200082C
:100050005702000857020008390700085702000835
:10006000570200085702000857020008570200080C
:1000700057020008F90600080507000811070008E4
:100080001D0700082907000857020008570200084A
:10009000E1060008ED0600085702000857020008B4
:1000A00057020008570200085702000857020008CC
:1000B000570200080000000000000000570200087E
:1000C00057020008570200085702000857020008AC
:1000D000570200085702000857020008895000081C
:1000E0006D07000857020008000000000000000033
:1000F0000000000000000000000000000000000000
:10010000000000005702000800000000570200082D
:100110000000000000000000B94A0008D94A0008A9
:10012000570200085702000857020008570200084B
:10013000570200080000000000000000000000005E
:10014000570200085702000857020008000000008C
:10015000570200085702000857020008570200081B
:10016000570200085702000857020008000000006C
:1001700057020008570200080000000000000000BD
:1001800057020008570200085702000800F002F862
:1001900000F044F80AA090E8000C82448344AAF1DD
:1001A0000107DA4501D100F039F8AFF2090EBAE8DB
:1001B0000F0013F0010F18BFFB1A43F0010318479B
:1001C000246B0000446B0000103A24BF78C878C14B
:1001D000FAD8520724BF30C830C144BF04680C604D
:1001E000704700000023002400250026103A28BF95
:1001F00078C1FBD8520728BF30C148BF0B60704799
:10020000752900F0DD80632900F02282002070470C
:100210001FB506F0F4FC1FBD10B510BD00F028FAA4
:100220001146FFF7F5FF04F03BFF00F046FA03B478
:10023000FFF7F2FF03BC00F049FA000009488047CD
:1002400009480047FEE7FEE7FEE7FEE7FEE7FEE7B8
:10025000FEE7FEE7FEE7FEE704480549054A064BD0
:1002600070470000A54A00088D010008485A002088
:1002700048600020485C0020485C002053EA020CE3
:1002800000F069802DE9F04B4FF00006002B1FBFF6
:10029000B3FA83F503FA05F424FA05F65E4012BFBB
:1002A0001643B2FA82F502FA05F4C5F120051EBF25
:1002B00022FA05FC44EA0C04203556EA044C4FEAC5
:1002C000144418BF641C4FF000084FF0000990421E
:1002D00071EB030C39D3002919BFB1FA81F701FA88
:1002E00007F6B0FA80F700FA07F6C7F120071EBF3D
:1002F00020FA07FC46EA0C062037B6FBF4FCA7EB15
:100300000507103F07F01F0BCBF120062CFA06F66D
:100310000CFA0BFB44BFB3460026202FA4BF5E4659
:100320004FF0000B5BEA060C08BF4FF0010B19EB16
:100330000B0948EB0608ABFB027C06FB02CC0BFB6F
:1003400003CCC01B71EB0C01C1E70B4602464146D2
:100350004846BDE8F08B13B5084318BF4FF0FF3097
:100360000146AFF30080BDE81C40704770B50C46F5
:100370000546012A05D02878800600D5EA690023C1
:1003800002E0012305E05B1C934202D2E05C0028FE
:10039000F9D1A869E618C01AA861286A1844286229
:1003A0002846AFF3008004E0D5E9012114F8010BE1
:1003B0009047B442F8D32846AFF3008070BD0000E8
:1003C0002DE9F0410646002410687529314616A52E
:1003D00010D0AFF30080002802DA404213A507E0F6
:1003E00031688A0701D512A502E0490704D511A595
:1003F000012401E0AFF3008000210A2206F1240766
:1004000009E0B0FBF2FCB0FBF2F302FB1C00303061
:1004100078541846491C0028F3D123462A46304612
:10042000BDE8F04100F0B1B8000000002D00000070
:100430002B00000020000000032A40F2308010F062
:10044000030C00F0158011F8013BBCF1020F62446F
:1004500098BF11F801CB00F8013B38BF11F8013B00
:10046000A2F1040298BF00F801CB38BF00F8013BAD
:1004700011F0030300F02580083AC0F0088051F81D
:10048000043B083A51F804CBA0E80810F5E7121D28
:100490005CBF51F8043B40F8043BAFF30080D20747
:1004A00024BF11F8013B11F801CB48BF11F8012B13
:1004B00024BF00F8013B00F801CB48BF00F8012B36
:1004C000704710B5203AC0F00B80B1E81850A0E892
:1004D0001850B1E81850A0E81850203ABFF4F5AF12
:1004E0005FEA027C24BFB1E81850A0E8185044BF6E
:1004F00018C918C0BDE810405FEA827C24BF51F8DB
:10050000043B40F8043B08BF7047D20728BF31F8CE
:10051000023B48BF11F8012B28BF20F8023B48BF1F
:1005200000F8012B704702F0FF0343EA032242EA7E
:10053000024200F002B84FF0000200B513469446A4
:100540009646203922BFA0E80C50A0E80C50B1F12B
:100550002001BFF4F7AF090728BFA0E80C5048BF3F
:100560000CC05DF804EB890028BF40F8042B08BFDD
:10057000704748BF20F8022B11F0804F18BF00F8D9
:10058000012B70477047704770472DE9F0470D46C3
:1005900099469246044600F124080168880604D56D
:1005A000E06921F01001216000E00120A84201DD96
:1005B000471B00E00027A1697A1902EB0900081A1D
:1005C000A0612078C00602D42046AFF30080002648
:1005D00008E0D4E901211AF806009047206A401C7F
:1005E000761C20624E45F4DB2078C0060AD52046F2
:1005F000AFF3008006E0D4E9012130209047206A63
:10060000401C2062381EA7F10107F4DC07E0D4E9A2
:10061000012118F805009047206A401C2062281E1E
:10062000A5F10105F3DC2046AFF300802078000639
:1006300002D50220BDE8F0870120FBE710B5436931
:1006400013B1AFF3008001E0FFF790FE012010BD71
:10065000127800F124010A7000224A700122EDE7AD
:1006600011684FF0FF32E9E70048704710000020A2
:100670007546FFF7F9FFAE4605006946534620F080
:100680000700854618B020B5FFF7E6FDBDE820401D
:100690004FF000064FF000074FF000084FF0000B3E
:1006A000AC46ACE8C009ACE8C009ACE8C009ACE8AD
:1006B000C00921F007018D46704710B50446AFF31D
:1006C00000802046BDE81040FFF7B1BD0149182069
:1006D000ABBEFEE72600020070470000FEE7000008
:1006E00040F25410C2F2000000F05AB840F2541028
:1006F000C2F2000000F054B840F29C20C2F20000A8
:1007000000F0B0BA40F2C410C2F2000000F0AABA81
:1007100040F27C10C2F2000000F0A4BA40F20C20BB
:10072000C2F2000000F09EBA40F25420C2F2000073
:1007300000F098BA7047000080B582B040F20040E7
:10074000C4F201004169C9070DD00121416101686E
:1007500021F00101016040F21810C2F200000068AF
:1007600001A905F047FE02B080BD000040F2144030
:10077000C4F201000168090544BF4FF40061016043
:100780000168C90444BF4FF4805101607047000004
:10079000EFF3108072B600BFFEE700007047000064
:1007A0002DE9F04F81B0044600684669D0F8049006
:1007B0008768D0F80CB0D0F810A0D0F81880F107F6
:1007C00004D1002530071DD424E000BFF90710D064
:1007D0000121BA07816009D4780700F1AF8038079A
:1007E00000F1B680204600F0DDF902E0204600F07E
:1007F000DBF90025F80500F18780F80300F1B180EE
:10080000300707D51BF0100004D0206845F40075B0
:100810001021C160700708D51BF0080005D02068C2
:100820000821C160204600F0B3F9B00706D5206862
:10083000C068800702D0204600F0ACF9700607D5EA
:100840001AF0100004D0206845F480651021016181
:10085000B00608D51AF0080005D02068082101610B
:10086000204600F099F9F00606D520680069800757
:1008700002D0204600F092F9B00308D519F010001C
:1008800005D0206810214160204600F089F9F0036E
:1008900008D519F0080005D02068082141602046DD
:1008A00000F08CF9300440F19B805FEA497040F120
:1008B000948006F4807008EA102028435FEA88716B
:1008C000014648BF41F00201B20558BF01465FEA48
:1008D00048700D4648BF45F00405700558BF0D46E9
:1008E000300540F17A8018F0700000F07680103802
:1008F000000905286CD8DFE800F003595D616569DF
:1009000045F0080564E000BF20684FF48071BA0527
:1009100081600BD4780515D438051DD4204600F02D
:1009200045F9F8037FF56CAF1BE000BF204600F0EF
:100930003FF9F8037FF564AF13E000BF4FF40065A3
:1009400058E700BF05F50055F8037FF559AF08E0FB
:100950004FF480554EE700BF05F58045F8037FF55D
:100960004FAF20684FF48031BA0381600AD4780316
:1009700010D4380314D4204600F01CF930073FF59A
:1009800041AF47E7204600F017F930073FF53AAF8F
:1009900040E700BF05F5004530073FF533AF39E7C5
:1009A00005F5803530073FF52DAF33E745F01005ED
:1009B0000EE000BF45F020050AE000BF45F040050D
:1009C00006E000BF45F0800502E000BF45F48075F9
:1009D0002068816921F070018161206804214160F3
:1009E00055B1606A40EA05012046616201B000F03D
:1009F00006B8FFF7D3BE00BF01B000F005B830BCA9
:100A0000BDE8C04FFFF7F5BF30BCBDE8C08F0000A8
:100A1000B0B5C8B1044690F8200010B9204600F0E7
:100A200071F82068016841F00101016000F0CCFA22
:100A3000054600BF20684168C90707D100F0C4FA25
:100A4000401B0B28F6D312E00120B0BD016821F055
:100A50000201016000F0B8FA054600BF2068416855
:100A600089070DD500F0B0FA401B0B28F6D3606A59
:100A7000052140F400306062012084F82010B0BDF0
:100A8000217E0268012922F0800208BF80320260C4
:100A9000617E0268012922F0400208BF40320260F4
:100AA000A17E0268012922F0200208BF20320260E4
:100AB000E17E0268012922F0100218BF10320260A4
:100AC000217F0268012922F0080208BF0832026073
:100AD000617F0268012922F0040208BF043202602B
:100AE000D4E901C2D4E9033561691A432A431143A9
:100AF000ACF101021143C16100200121606284F860
:100B00002010B0BD80B586B0006846F20041C4F246
:100B10000001884202D006B080BD00BF41F24C0007
:100B2000C4F20200C16841F00071C160C16801F007
:100B3000007101910199016841F0020101600068B2
:100B400001A900F00200019001984FF4407001905B
:100B500002200290002003900320049009200590B9
:100B600040F20040C4F6000000F038F914200521DE
:100B7000002200F0B9FB142000F0A6FB152005218F
:100B8000002200F0B1FB152000F09EFB06B080BDF6
:100B90007047000070470000704700007047000079
:100BA0007047000070470000704700007047000069
:100BB0007047000070470000704700007047000059
:100BC000014690F82500022818D10868D1E910C321
:100BD000026822F00E020260026822F00102026046
:100BE00003F01C00012202FA00F0CCF804000020FF
:100BF00081F82520002281F8242070470420C86352
:100C00000120002281F824207047000080B590F870
:100C10002510022922D10168D0F838E0D0E910C3AC
:100C20000A68BEF1000F22F00E020A600A6822F084
:100C300001020A6003F01C014FF0010202FA01F107
:100C4000CCF804104FF0000180F8252080F8241023
:100C500001D0F0470021084680BD00BF0421C163D8
:100C6000012080BDB0B5D0E910C30268DCF80010E7
:100C700003F01C030424D2F800E09C400C4218BF8F
:100C80001EF0040522D102249C400C4218BF1EF025
:100C9000020529D1D940090724D51EF0080108BF53
:100CA000B0BD116821F00E011160012101FA03F2BB
:100CB000CCF80420C16380F82510416B002280F835
:100CC000242079B1BDE8B040084700BF116889060B
:100CD00003D4116821F004011160CCF80440016BC9
:100CE0000029EFD1B0BD00BF1168890606D4116894
:100CF00021F00A011160012180F82510CCF8044090
:100D0000C16A0022002980F82420DBD1EAE7000034
:100D1000002804BF012070472DE9F04740F2000C85
:100D2000C4F2020C02684FF6F8310CF5816ECBF676
:100D3000FD71724538BF01F580614CF6CD43114419
:100D4000CCF6CC43A1FB03136FF003010CF58067D5
:100D500001EA930A4FF00203D0E90249D0F810806B
:100D60003CBF0027C4F20207C0E9107A80F82530A2
:100D7000136847F6F077BB432343D0E9057643EA8F
:100D8000090343EA0803D0E907513B4333432B43AC
:100D90001943B4F5804F116015D04FF495640AF0F3
:100DA0001C010F23724538BFA8245CF804208B4037
:100DB0009A434CF8042042685CF8043002FA01F1CE
:100DC00019434CF8041000210122C16380F825204A
:100DD00080F82410BDE8F047084670472DE9F04F31
:100DE00084B08E4641F20002C4F60002DEF80040F4
:100DF00007219042019008BF0421002C009100F0CF
:100E0000D7800198002500F138424FEAB2230098BC
:100E1000012700264FF00008042B38BF1846009029
:100E2000CDF808E00EE000BFDEF8004008F1010850
:100E300034FA07F106F1020607F1010705F104058E
:100E400000F0B680A7F1010A012000FA0AF314EAC3
:100E50000309E9D0DEF804C00CF0030BABF1010488
:100E6000012C17D80198744681680322E468B240C7
:100E70009143B4402143816041684FEA480E994351
:100E8000CCF3001303FA0AF30446D043194361601C
:100E90000CE000BF0321B140019CC843BBF1030F2C
:100EA000B64603D1B6464FF0030B23E0E168029A41
:100EB00001409368BBF1020F03FA0EF341EA03010C
:100EC000E16017D16FF0030101EA5A01214405F0F6
:100ED0001C040F23D1F820C003FA04FB13692CEA89
:100EE0000B0CA34043EA0C03019C0B62D2F804C034
:100EF0000CF0030B21680BFA0EF201401143216044
:100F0000DDF808E01CF4403F8ED041F26000C4F2EE
:100F10000200016840F2004C41F0010101600168EB
:100F2000C4F2010C01F00101039103992AF00301BD
:100F30004FF6084A6144CFF6FF7A05F00C030F2004
:100F400051F80A2000FA03F40098A24300FA03F3D0
:100F50001A4341F80A20DCF80810DEF8042041EAC0
:100F6000090340F20C40D40258BF21EA0903CCF82F
:100F70000830C4F201000168940241EA090358BF35
:100F800021EA09030360DCF80410940341EA090331
:100F900058BF21EA0903CCF80430DCF80010D20372
:100FA00041EA090358BF21EA0903CCF800303BE7C6
:100FB00004B000F000B830BCBDE8C08F1823002A90
:100FC00008BF2823C150704745F2E070C2F200000C
:100FD0000068704790F84120202A03D190F8402003
:100FE000012A01D102207047242280F841200268A2
:100FF000136823F001031360136823F48053136014
:10100000136819431160116841F00101116020213A
:1010100080F84110002180F8401008467047000019
:1010200090F84120202A03D190F84020012A01D1D4
:1010300002207047242280F841200268136823F0C0
:1010400001031360136823F4706343EA0121116004
:10105000116841F001011160202180F84110002148
:1010600080F8401008467047002804BF01207047F0
:1010700010B5044690F8410028B9002084F84000DB
:10108000204600F043F8242084F8410094E8091039
:10109000E2680168012A21F00101016023F070611A
:1010A0000161816821F40041816003D14CF4004169
:1010B000816007E04CF40441022A816004BF4FF4D0
:1010C00000614160416804F1100C41F0007141F48D
:1010D00000414160C16821F40041C1609CE80E10EC
:1010E000114341EA0321C160216A41EA0C01016018
:1010F000016841F00101016000202021606484F852
:101100004110206384F8420010BD000010B59EB06D
:10111000044602A804305821FFF70DFA206845F66E
:101120000041C4F20001884202D01EB010BD00BFD1
:101130004FF48070029002A800F060F9002818BFF8
:10114000FFF726FB41F24C04C4F20204206812218E
:1011500040F004002060206800F004001990199805
:1011600003201A9100211990CDE91B1004201D9035
:1011700040F60000C4F6000019A9FFF72FFEE06852
:1011800040F40000E060E06800F400000190019885
:101190001EB010BD40F2000045F2E071C2F2000046
:1011A000C2F2000100780A6810440860704700002D
:1011B00080B5032000F0C4F80F2000F009F80028E3
:1011C0001CBF012080BD00F061F8002080BD000040
:1011D000B0B586B041F25801C4F202010A68044673
:1011E00042F020020A60096801A801F02001019183
:1011F0000199694600F098FB049D002D18BF012558
:1012000000F0B4FB4DF68361A840C4F21B31A0FB93
:1012100001014FF0FF3000EB914140F27C5041F270
:101220000042C2F20000C4F2000240F2E73300259F
:10123000C0E90021C0E902530561856101F074F93C
:10124000054618B1284606B0B0BD00BF40F27C503C
:10125000C2F2000001F05AFA05460028F2D1372008
:1012600000F032F80F2C0DD837202146002200253F
:1012700000F03AF840F20400C2F200000460284690
:1012800006B0B0BD0125284606B0B0BD82B041F21F
:101290005800C4F202008168002241F0010181601F
:1012A000816801F0010101910199016841F08051CB
:1012B000016000680F2100F08050009000986FF0EE
:1012C000010002B000F010B8002848BF704700F0DD
:1012D0001F01012202FA01F14EF200124009CEF282
:1012E000000242F82010704710B54EF60C5CCEF2AA
:1012F000000CDCF80030C3F3022E8EF00704042C3F
:1013000028BF0424BEF103034FF0FF3E0EFA04F49D
:1013100038BF0023A14399400EFA03F39A431143C7
:1013200000F00F02043A624409010C3200F16043FC
:10133000B0F1FF3FC8BF03F56442117010BD00005B
:101340004EF60C51CEF200010A684FF6FF031A4028
:1013500060F30A2242F0806040F0FD700860704740
:1013600047F20001C4F200010A68B0F5007F02F400
:10137000C06031D1B0F5007F2CD00868012262F343
:101380004A20086040F20800C2F2000000683222E1
:1013900050434DF68362C4F21B32A0FB0202900C54
:1013A0004A69520511D5421C0FD04A6952050CD525
:1013B00058B14A69520508D5012806D04A69520534
:1013C00003D50228A0F10400EAD14869400544BFD2
:1013D0000320704700207047B0F5806FFAD008688E
:1013E000022262F34A2008600020704747F20000A2
:1013F000C4F20000006800F4C06070472DE9F043BB
:1014000081B00446407841F288070007C4F2020721
:1014100021D5606C80B1B0F5400F15D0B0F5000F4C
:1014200040F02A8157F87C0C40F4803047F87C0C5F
:101430004FF400000AE000BF201D002103F0F6F980
:10144000814650B9606C01E04FF44000396821F4E6
:101450004001084338604FF00009A078800751D55B
:1014600057F8300C10F080580BD157F8300C40F082
:10147000805047F8300C57F8300C00F08050009046
:10148000009847F20005C4F20005286840F4807017
:101490002860FFF799FD06462868C00508D4FFF7C5
:1014A00093FD801B0228F7D94FF0030921E000BF0C
:1014B000B9F1000F1DD1B86810F4407011D0A16DC2
:1014C00088420BD0B868B96820F4407041F480318C
:1014D000B960B96821F48031B960B860C00740F0E4
:1014E000D380B868A16D20F4407008434FF0000924
:1014F000B860B8F1000F05D157F8300C20F08050DB
:1015000047F8300C2168C80712D1880718D448075B
:101510001ED4880624D488052AD4480530D4480629
:1015200036D408063CD4C80542D4080348D459E050
:101530003868226A20F00300104338608807E6D537
:101540003868626A20F00C00104338604807E0D524
:101550003868A26A20F03000104338608806DAD577
:101560003868E26A20F44060104338608805D4D5BA
:101570003868E26B20F44020104338604805CED52F
:101580003868226C20F44010104338604806C8D5F3
:101590003868226B20F44050104338600806C2D5EA
:1015A0003868626B20F4404010433860C805BCD5F1
:1015B0003868A26B20F4403010433860080311D51E
:1015C0003A68A06C22F040620243B0F1806F3A604A
:1015D0001ED0B0F1006F05D157F87C0C40F480109C
:1015E00047F87C0C480327D53A68E06C22F040624B
:1015F0000243B0F1806F3A6016D0B0F1006F1BD19A
:1016000057F87C0C40F4801047F87C0C14E000BFC5
:10161000201D012103F00AF92168002818BF814626
:101620004803E1D408E000BF201D012103F0FEF8CB
:101630002168002818BF8146480410D53868226DFB
:1016400020F040501043B2F1805F386007D1201D78
:10165000022103F0EBF82168002818BF8146080436
:1016600005D53868616D20F08040084338604846F1
:1016700001B0BDE8F08300BF4FF00109A0788007FA
:101680003FF5EEAE3EE700BFFFF79EFC064641F297
:1016900088354FF0030900BFB86880073FF521AFD8
:1016A000FFF792FC801BA842F6D922E72DE9F04310
:1016B00081B000286BD042F20008C4F20208044650
:1016C000D8F800000D4600F0070088420CD2D8F888
:1016D000000020F007002843C8F80000D8F80000F8
:1016E00000F00700A84252D1206841F2080910F02A
:1016F0000201C4F202090DD0A268D9F8003003F04B
:10170000F0039A4206D9D9F8003023F0F0031A43C7
:10171000C9F80020C2072DD169B1A168D9F800200D
:1017200002F0F002914206D2D9F8002022F0F00235
:101730001143C9F80010D8F8001001F00701A942C0
:101740000CD9D8F8001021F007012943C8F800107F
:10175000D8F8001001F00701A94218D141071BD4A5
:10176000000723D4D9F80000D9F8041010F00C00B9
:101770002CD131E0606800285ED0022800F07E8025
:10178000032840F0818059F8081C890158D40120B1
:1017900001B0BDE8F08300BFD9F80010E26821F481
:1017A000E0611143C9F800100007DBD5D9F800004B
:1017B000216920F4605040EAC100C9F80000D9F85E
:1017C0000000D9F8041010F00C0005D00C2829D125
:1017D00001F00301012925D159F8081C090703D498
:1017E000D9F88C10090A02E059F8081C090946F6D4
:1017F000844201F00F01C0F6000252F821100028C7
:101800000A4618BF00220C2871D1D9F8040000F054
:101810000300022846D0032804BF41F20021C0F291
:101820007A0143E0042857D008285BD141F2002216
:10183000C0F27A025BE000BF59F8081C8907A6D500
:10184000D9F8001021F003010843C9F80000FFF7A0
:10185000BBFB064641F28837D9F80000616800F00A
:101860000C00B0EB810F15D0FFF7AEFB801BB84228
:10187000F2D9032001B0BDE8F08300BF59F8081C7D
:1018800089037FF584AFDBE759F8081C49057FF52C
:101890007EAFD5E7206800F0020100297FF43DAF5C
:1018A00049E700BF42F20041C0F2F401D9F8040058
:1018B000D9F80420C0F30210C2F306225143D9F82C
:1018C00004200130B1FBF0F0C2F34161022202EBCF
:1018D0004101B0FBF1F20AE042F20042C0F2F40230
:1018E00005E000BF002200210C283FF48EAFD9F89C
:1018F000000046F66C41C0F30310C0F60001085C1E
:1019000000F01F0022FA00F140F20400C2F20000D1
:1019100040F208020068C2F20002116001B0BDE8A6
:10192000F043FFF755BC00000F22026041F20802AD
:10193000C4F20202136803F003034360136803F068
:10194000F0038360136803F4E063C36012684FF42C
:10195000E06303EAD202026142F20000C4F2020034
:10196000006800F0070008607047000040F20800BF
:1019700041F20801C2F20000C4F2020100680968E5
:1019800046F67C42C1F30221C0F60002515C01F030
:101990001F01C8407047000040F2080041F20801F2
:1019A000C2F20000C4F202010068096846F67C42F7
:1019B000C1F3C221C0F60002515C01F01F01C84012
:1019C0007047000041F20C01C4F2020151F8040C0E
:1019D00010F00C02086805D00C2A29D100F0030091
:1019E000012825D151F80C0C000703D4D1F8880048
:1019F000000A02E051F80C0C000946F6844300F09E
:101A00000F00C0F6000353F82030002A184618BF14
:101A100000200C2A18BF7047086800F00300022855
:101A200010D0032804BF41F20023C0F27A030DE076
:101A3000042A1FD0082A23D141F20020C0F27A00E4
:101A4000704700BF42F20043C0F2F40308680A681E
:101A5000C0F30210C2F30622096801305A43B2FBF8
:101A6000F0F0C1F34161022202EB4101B0FBF1F061
:101A7000704700BF42F20040C0F2F400704700BF60
:101A800000200023C5E700002DE9F04383B00028C3
:101A900000F0388341F200060446C4F20206B06842
:101AA000F168227800F00C09D00601F003081DD47B
:101AB0002078C00700F08180B9F1080F76D0B9F125
:101AC0000C0F08BFB8F1030F70D06068B0F5803F0D
:101AD00007D0B0F5A02F40F04B82306840F4802052
:101AE0003060306840F4803030604CE2B9F1000F73
:101AF0001ED0B9F10C0F08BFB8F1010F18D0A169C1
:101B00003068002900F0968140F001003060FFF756
:101B10005BFA05463068800700F19E81FFF754FAB2
:101B2000401B02284FF00300F4D903B0BDE8F08356
:101B30003068800703D5A069002800F0E382256A99
:101B40003068000700F13E81D6F89400000900F0EB
:101B5000F000854200F23C813068B9F1000F40F09E
:101B600008003060306820F0F00040EA0500306086
:101B70007068E16920F47F4040EA0120706040F025
:101B8000AF82B06DC00000F14B82B06D40F080506C
:101B9000B065B06D00F0805002900298FFF726FC0F
:101BA000B16D21F08051B1653CE200BF3068800327
:101BB00003D56068002800F0A582207880072DD525
:101BC000B9F1040F1CD0B9F10C0F08BFB8F1020F26
:101BD00016D0E1683068002900F0E48140F480709C
:101BE0003060FFF7F1F90546306840050FD4FFF784
:101BF000EBF9401B02284FF00300F5D995E700BF31
:101C00003068400503D5E068002800F07B827068EA
:101C1000216920F0F85040EA0160706020780007E8
:101C200060D42078400775D42078800600F1AE801B
:101C3000A06A002800F00C83022840F01F81F068A1
:101C4000E16A00F003028A4240F03081226B6FF0BB
:101C50000F0300F0700103EB0212914240F0268165
:101C6000616B00F4FE42B2EB012F40F01F81A16BCB
:101C700000F07842B2EBC16F40F01881E26B0023B4
:101C8000CFF6E07303EB025200F4C0016FF31402CD
:101C9000914240F00B81216C4FF07E4202EB0161DA
:101CA00000F0C06001F07E41884240F0FF80306863
:101CB000800100F1CD82306840F080703060F068C3
:101CC00040F08070F060FFF77FF9044630688001D3
:101CD00000F1BE82FFF778F9001B02284FF00300E5
:101CE000F4D922E76169D6F89400002900F08C80CD
:101CF00040F00100C6F89400FFF766F9054600BF02
:101D0000D6F8940080078CD4FFF75EF9401B0228B8
:101D1000F6D929E1B06D10F0805808D1B06D40F0CF
:101D20008050B065B06D00F080500090009847F290
:101D30000007C4F200073868C00513D4386840F4BF
:101D400080703860FFF740F9054600BF3868C0056D
:101D500008D4FFF739F9401B02284FF00300F5D9EA
:101D6000E3E600BFA068012808D0052840F0DE8027
:101D7000D6F8900040F00400C6F89000D6F8900025
:101D800040F00100C6F89000DFE000BF616AD6F8BD
:101D90009800002900F0B48040F00100C6F89800D7
:101DA000FFF712F9054600BFD6F8980080073FF507
:101DB0003FAFFFF709F9401B02284FF00300F3D9AA
:101DC000B3E600BF306800F0F00085427FF6C4AE95
:101DD000B06DC00000F18680B06D40F08050B065FD
:101DE000B06D00F0805001900198FFF7FFFAB16DDF
:101DF00021F08051B165B0F5007F79D0802D40F29F
:101E0000E3800320EBE000BF20F00100C6F894005F
:101E1000FFF7DAF8054600BFD6F8940080077FF593
:101E200000AFFFF7D1F8401B02284FF00300F3D9B1
:101E30007BE600BF20F001003060FFF7C5F80546E3
:101E4000306880077FF534AEFFF7BEF8401B0228EC
:101E50004FF00300F4D968E6306840F008003060C5
:101E60003068D4E9072120F0F00008433060706842
:101E700020F47F4040EA0220706019E6B9F10C0FAF
:101E800000F04081306820F080703060FFF79CF8EF
:101E9000044600BF3068800140F1EE80FFF794F8FF
:101EA000001B02284FF00300F4D93EE6B9F10C0FF5
:101EB00000F028813068400100F12481306820F072
:101EC00080703060FFF780F805463068800140F18F
:101ED0008181FFF779F8401B02284FF00300F4D905
:101EE00023E600BFFFF782FAB0F5007F7FF486AFEC
:101EF000812D73D30120A02D88BF02206FE000BF89
:101F000020F00100C6F89800FFF75EF8054600BF14
:101F1000D6F8980080077FF58BAEFFF755F8401B89
:101F200002284FF00300F3D9FFE500BFD6F8901068
:101F3000002821F00101C6F89010D6F8901021F089
:101F40000401C6F8901000F07B80FFF73DF80546CD
:101F500041F28837D6F89000800700F18380FFF7C0
:101F600033F8401BB842F5D9032003B0BDE8F08335
:101F70003168002821F480313160316821F48021FA
:101F8000316000F08580FFF71FF805463068800358
:101F90003FF513AEFFF718F8401B64284FF003001D
:101FA000F4D9C2E520F480703060FFF70DF80546E3
:101FB000306840057FF532AEFFF706F8401B022877
:101FC0004FF00300F4D9B0E5A5F17000B0FA80F04D
:101FD0004009802D08BF022001E000BF002042F22E
:101FE0000001C4F202010A6822F0070202440A60FA
:101FF000096801F00701814240F08480306840F0B8
:10200000080030603068D4E9072120F0F000084370
:102010003060706820F47F4040EA022070605FE02A
:10202000FFF7E4F9B0F5007F06D1812D40D3012000
:10203000A02D88BF022045E0802D3BD9032041E040
:10204000FEF7C2FF054641F28837D6F890008007B8
:1020500008D5FEF7B9FF401BB8424FF00300F4D992
:1020600063E500BFB8F1000F7FF4DEADB06D20F086
:102070008050B065D8E500BFF0684FF6FC71CFF630
:10208000EE610840F060002003B0BDE8F08300BFBF
:10209000FEF79AFF0546306880037FF58EADFEF7A8
:1020A00093FF401B64284FF00300F4D93DE500BFC7
:1020B000002007E0A5F17000B0FA80F04009802D03
:1020C00008BF022042F20001C4F202010A6822F0B5
:1020D000070202440A60096801F00701814211D138
:1020E000B068F16810F00C0005D00C282AD101F07E
:1020F0000301012926D13168090707D4D6F89410C5
:10210000090A05E0012003B0BDE8F0833168090940
:1021100046F6844201F00F01C0F6000252F8211089
:1021200000280A4618BF00220C2837D1F06800F0BA
:102130000300022810D0032804BF41F20021C0F29E
:102140007A010DE004281FD0082823D141F2002293
:10215000C0F27A0222E000BF42F20041C0F2F40174
:10216000F068F268C0F30210C2F306225143F2682D
:102170000130B1FBF0F0C2F34161022202EB4101F8
:10218000B0FBF1F20AE000BF42F20042C0F2F402FA
:1021900004E000BF002200210C28C7D0B06846F63A
:1021A0006C41C0F30310C0F60001085C00F01F0092
:1021B00022FA00F140F20400C2F2000040F20802EC
:1021C0000068C2F200021160FFF702F800287FF4F5
:1021D000ACAC6DE4F06848F28C01C0F29D1104F1E2
:1021E0002C0700EA010C8ECF6FF00F00D4E90F54DA
:1021F00000EB02100022CFF6E07241EA0C0102EB84
:10220000055208436FF314024FF07E4540EA032065
:1022100005EB0465104305F07E4540EAC76028439E
:10222000F060306840F080703060F06840F080709E
:10223000F060FEF7C9FE04463068800108D4FEF75E
:10224000C3FE001B02284FF00300F5D96DE400BF68
:10225000002003B0BDE8F083002804BF01207047D0
:10226000B0B50446406A28B10020206104F1140092
:1022700006E000BF6068B0F5827F03D004F11C0067
:10228000002101600025A56294F85D0020B9204678
:1022900084F85C5000F04EF8022084F85D0020685D
:1022A000D4F80CE00268BEF5E06F22F04002026054
:1022B0004EF4006298BF0125B2F5706F1CBF002379
:1022C000A3624FEA053CD4E90135D4E9042103F4C3
:1022D000827305F404452B4402F002021A44A369F8
:1022E00001F00101E569114403F40072114405F0A5
:1022F0003802256A114405F08002A56A114405F4EC
:102300000052114301600421626A0EF4706501EA13
:102310001341636B45EA0C0502F01002294303F0F8
:10232000080311431943416000200121206684F80D
:102330005D10B0BDF0B587B0006843F6000140F213
:102340000044C4F20001C4F6000400258842CDE92F
:102350000555CDE90355029524D043F20001C4F29E
:102360000101884257D141F24C00C4F20200416998
:1023700041F480514161416901F480510191019919
:10238000016841F002010160006800F00200019064
:10239000019838200290022003900020049003202E
:1023A000059032E041F24C00C4F20200C1680226FE
:1023B00041F48041C160C168032701F4804101916B
:1023C0000199016841F004010160016801F0040114
:1023D00001910199016841F002010160006802A9C0
:1023E00000F00200019001980C2002900520069058
:1023F00004F58060CDE903650597FEF7EFFC4FF427
:102400000050CDE90206CDE904570520069002A947
:102410002046FEF7E3FC07B0F0BD00007047000067
:10242000704700007047000010B590F83C20012A6A
:1024300004BF022010BDD1E90232D1E900CE22F45E
:102440007C5223F470531A4348F2FF73CFF6F073B3
:1024500003EA0E0342EA030E0A692CF477234EEADC
:10246000030C22F476224B6942EA0C021A438B6A6F
:1024700022F4742223F4702342EA030C8B69D0F80F
:1024800000E042F60042C4F2010296454CEA0343E2
:102490000FD123F07C72D1E9073C496A0024CFF6C2
:1024A000F04404EA0151114323F00072114341EA60
:1024B0000C030021CEF8443080F83C10084610BDD3
:1024C00010B590F83C20012A4FF002022AD080F883
:1024D0003D20026842F6004C5368D2F808E0C4F28E
:1024E000010C624503D14C6823F4700323430C684C
:1024F00023F070032343B2F1804F536007D044F2BE
:102500000003C4F201039A4201D0624504D18968F4
:102510002EF08003194391600121002280F83D10C4
:1025200080F83C20104610BD002804BF01207047F1
:10253000B0B5044690F83D0028B9002084F83C006E
:10254000204600F063F8022084F83D00206842F63F
:10255000004E0268C4F2010E704502D0B0F1804F07
:1025600003D1A36822F070021A4343F6FF73C4F24A
:10257000010344F2004C9842C4F2010C06DCB0F1B5
:10258000804F0BD0704509D00CE000BF604505D0EE
:1025900044F20003C4F20103984203D1236922F4F8
:1025A00040721A43A16922F080026368E568114312
:1025B00070450160C562836218BF60451ED16169C4
:1025C000016301214161002084F8481084F83E1025
:1025D00084F83F1084F8401084F8411084F84210C9
:1025E00084F8431084F8441084F8451084F84610A9
:1025F00084F8471084F83D10B0BD00BF44F20001DC
:10260000C4F201018842DCD1D9E7000080B582B074
:10261000006842F6FF31C4F20101884220DD44F235
:102620000041C4F2010188423ED044F20001C4F2EC
:102630000101884248D042F60041C4F201018842BB
:102640003FD141F26000C4F20200016841F4006130
:102650000160006800F400600190019802B080BD44
:10266000B0F1804F40D041F20001C4F20001884235
:1026700027D141F26000C4F2020050F8081C002289
:1026800041F0100140F8081C50F8080C052100F03A
:102690001000019001983620FEF726FE362002B089
:1026A000BDE88040FEF710BE41F26000C4F20200B7
:1026B000016841F400310160006800F400300190CD
:1026C000019802B080BD00BF41F26000C4F2020078
:1026D000016841F480310160006800F480300190AD
:1026E000019802B080BD00BF41F26000C4F2020058
:1026F00050F8081C41F0010140F8081C50F8080C83
:1027000000F001000190019802B080BD90F83D10EA
:1027100001291CBF01207047022180F83D1001688B
:10272000C868B1F1804F40F00100C8600BD044F29E
:102730000000C4F20100814205D042F60040C4F21C
:10274000010081420CD188680722C0F201020240D8
:10275000062A4FF0000008D0B2F5803F08BF70474E
:10276000086840F0010008600020704780B590F8CC
:102770003C20012A4FF0020200F0C28080F83D2088
:10278000D0F800C08822DCF80830CFF6FE721A407C
:10279000CCF808200B684F2B28DC1F2B44DD202BA6
:1027A00045D0302B43D0402B40F0AC80D1F804E032
:1027B000C968DCF82030DCF8202022F00102CCF8D7
:1027C0002020DCF8182022F0F00242EA011123F068
:1027D0000A0242EA0E02CCF81810CCF82020DCF8ED
:1027E000081041F0470121F0300180E06F2B27DD18
:1027F000B3F5005F48D0B3F5805F7AD0702B40F01E
:102800008180D1E901E3C968DCF8082043EA0E03BE
:1028100022F47F4243EA01211143CCF80810DCF88E
:10282000081041F0770162E00BB1102B6AD1DCF89F
:10283000081021F07001194341F0070157E000BF73
:10284000502B35D0602B5DD1D1F804E0C968DCF89D
:10285000203023F01003CCF82030DCF81830DCF8FE
:10286000202023F4704322F0A00243EA013142EA1F
:102870000E12CCF81810CCF82020DCF8081041F02B
:10288000670121F0100132E0D1E901E3C968DCF809
:10289000082043EA0E0322F47F4243EA0121114358
:1028A000CCF80810DCF8081041F480411FE000BFAC
:1028B000D1F804E0C968DCF82030DCF8202022F0F0
:1028C0000102CCF82020DCF8182022F0F00242EAC5
:1028D000011123F00A0242EA0E02CCF81810CCF8DB
:1028E0002020DCF8081041F0570121F02001CCF83D
:1028F00008100022012180F83D10002180F83C10D2
:10290000104680BD0122F5E77047000010B5016850
:1029100004460869800744BFC8685FEA80703FD4F6
:102920000869400744BFC8685FEA407044D408693A
:10293000000744BFC8685FEA00704BD40869C0064E
:1029400044BFC8685FEAC06050D40869C0071CBFB4
:10295000C8685FEAC07057D10869000644BFC868FC
:102960005FEA006058D40869C00544BFC8685FEAE0
:10297000006059D40869400644BFC8685FEA4060F7
:102980005AD40869800646BFC8685FEA806010BDF7
:102990006FF0200220460A61BDE81040FFF742BDFB
:1029A0006FF00200086101202077886980074BD012
:1029B0002046FFF7A9FF4DE06FF0040008610220F8
:1029C0002077886910F4407F48D02046FFF79CFFAD
:1029D0004AE000BF6FF00800086104202077C86952
:1029E000800745D02046FFF78FFF47E06FF01000CB
:1029F000086108202077C86910F4407F42D0204643
:102A0000FFF782FF44E000BF6FF00100086120463D
:102A100000F0CAFB21689FE76FF080000861204644
:102A2000FFF7FEFC21689EE76FF480700861204686
:102A3000FFF7F4FC21689DE76FF040000861204635
:102A400000F0BCFB21689CE7204600F0CFF8204650
:102A500000F016FB21680020207761E7204600F097
:102A6000C5F8204600F00CFB2168002020775EE7C7
:102A7000204600F0BBF8204600F002FB2168002051
:102A800020775BE7204600F0B1F8204600F0F8FA26
:102A900021680020207758E770B586B0006843F6BB
:102AA000FF71C4F2010188424FF000010591CDE9A8
:102AB0000311CDE9011121DCB0F1804F44D042F681
:102AC0000041C4F20101884240F08E8041F24C0086
:102AD000C4F20200016841F001010160006800F0E9
:102AE0000100009000984FF4706001900220029065
:102AF0000020CDE90300012022E000BF44F20001E4
:102B0000C4F20101884251D044F20041C4F20101F3
:102B1000884269D141F24C00C4F20200016841F0E0
:102B200001010160006800F0010000900098402061
:102B300001900220029001200390002004900E20BA
:102B400005904FF090404CE041F24C00C4F202007E
:102B50000168022441F0020101600168012501F0D1
:102B60000201009100990168002641F00101016015
:102B7000006801A900F00100009000984FF4406047
:102B8000019040F20040C4F6000002940395CDE9A4
:102B90000465FEF723F94FF40040CDE90104CDE9C7
:102BA000034605954FF090401BE000BF41F24C00FA
:102BB000C4F20200016841F002010160006800F007
:102BC0000200009000984FF44040019002200290D3
:102BD0000020CDE903000E20059040F20040C4F62D
:102BE000000001A9FEF7FAF806B070BD70470000BA
:102BF000F0B590F83C30012B04BF0220F0BD4FEA45
:102C0000B202052A5CD8DFE812F007006100AF00CD
:102C1000FD003D017D0100BF036842F600461A6ACF
:102C2000C4F2010622F001021A621D6A1A465C68AB
:102C300052F818CF8F68D1F800E025F00205B342B2
:102C400045EA07050BD044F20047C4F20107BB4236
:102C500005D044F20007C4F20107BB4205D1CF689A
:102C600025F00C0527F004073D43B3420BD044F296
:102C70000046C4F20106B34205D044F20006C4F295
:102C80000106B34205D1D1E9056724F44074344309
:102C90003C434FF68C76CFF6FE760CEA060747EA01
:102CA0000E075C609F614F6809695F631D629F69E1
:102CB00047F008079F619F6927F004079F6162E161
:102CC0000121002280F83C200846F0BD036842F64E
:102CD00000461A6AC4F2010622F010021A621F6A44
:102CE0001A465C6852F818CF8D6827F02007B34267
:102CF00047EA051508D125F0C00ECD686FF04007F2
:102D000007EA051545EA0E05D1F800E0B3420BD0FD
:102D100044F20046C4F20106B34205D044F2000674
:102D2000C4F20106B34207D1D1E9056724F4406437
:102D300044EA860444EA870448F6FF46CFF6FF6675
:102D40000CEA060747EA0E275C609F614F68096935
:102D50009F631D629F6947F400679F619F6927F425
:102D600080679F610EE100BF036842F600461A6A61
:102D7000C4F2010622F480721A621F6A1A465C6865
:102D800052F81CCF8D6827F40077B34247EA052537
:102D900009D1CF6825F4406E3F0240F2FF4527EA93
:102DA000050545EA0E05D1F800E0B3420BD044F228
:102DB0000046C4F20106B34205D044F20006C4F254
:102DC0000106B34207D1D1E9056724F4405444EA2F
:102DD000061444EA07144FF68C76CFF6FE760CEA1A
:102DE000060747EA0E075C60DF614F680969DF6329
:102DF0001D62DF6947F00807DF61DF6927F004071C
:102E0000DF61C0E0036842F600471A6AC4F20107B6
:102E100022F480521A621A461C6A5D6852F81CCF6E
:102E2000D1F800E08E68BB420BD044F20047C4F2F8
:102E30000107BB4205D044F20007C4F20107BB42C0
:102E400004D14F6925F4804545EA871524F40054E0
:102E500044EA063448F6FF46CFF6FF660CEA06075A
:102E600047EA0E275D60DF614F6809691F641C62D5
:102E7000DF6947F40067DF61DF6927F48067DF619E
:102E800080E000BF036842F600471A6AC4F20107F7
:102E900022F480321A621A461C6A5D6852F854EFB6
:102EA000D1F800C08E68BB420BD044F20047C4F298
:102EB0000107BB4205D044F20007C4F20107BB4240
:102EC00004D14F6925F4803545EA072524F4003400
:102ED00044EA06444FF68C76CFF6FE7603360EEAC9
:102EE000060747EA0C075D605F654F6809699F65E3
:102EF0001C625F6D47F008075F655F6D27F0040790
:102F00005F6540E0036842F600471A6AC4F20107B1
:102F100022F480121A621A461C6A5D6852F854EF55
:102F2000D1F800C08E68BB420BD044F20047C4F217
:102F30000107BB4205D044F20007C4F20107BB42BF
:102F400004D14F6925F4802545EA872524F400142F
:102F500044EA065448F6FF46CFF6FF6606F540768B
:102F60000EEA060747EA0C275D605F654F6809694E
:102F7000DF651C625F6D47F400675F655F6D27F476
:102F800080675F6509021368194311600021002200
:102F900080F83C200846F0BD002804BF012070479F
:102FA000B0B5044690F83D0028B9002084F83C00F4
:102FB000204600F063F8022084F83D00206842F6C5
:102FC000004E0268C4F2010E704502D0B0F1804F8D
:102FD00003D1A36822F070021A4343F6FF73C4F2D0
:102FE000010344F2004C9842C4F2010C06DCB0F13B
:102FF000804F0BD0704509D00CE000BF604505D074
:1030000044F20003C4F20103984203D1236922F47D
:1030100040721A43A16922F080026368E568114397
:1030200070450160C562836218BF60451ED1616949
:10303000016301214161002084F8481084F83E10AA
:1030400084F83F1084F8401084F8411084F842104E
:1030500084F8431084F8441084F8451084F846102E
:1030600084F8471084F83D10B0BD00BF44F2000161
:10307000C4F201018842DCD1D9E7000070470000AA
:103080007047000061B10A1F4FEAB202032A11D84B
:10309000DFE802F00214181C00F13F0318E000BF43
:1030A00090F83E20012A1CBF01207047022280F8C0
:1030B0003E202CE000F143030AE000BF00F1400392
:1030C00006E000BF00F1410302E000BF00F142034F
:1030D0001B78012B1CBF01207047032A08D8DFE8AA
:1030E00002F0030B0F1300BF022280F83F200EE016
:1030F000022280F843200AE0022280F8402006E005
:10310000022280F8412002E0022280F84220026878
:1031100001F01F000121136A01FA00F023EA000107
:103120001162116A084343F6FF71C4F201018A4239
:10313000106209DCB2F1804F22D042F60040C4F2A6
:10314000010082420CD028E044F20040C4F20100A9
:10315000824205D044F20000C4F2010082421CD138
:10316000506C44F20001C4F2010140F400408A4274
:10317000506405D042F60040C4F2010082420CD1F6
:1031800090680721C0F20101014006294FF00000BC
:1031900008D0B1F5803F08BF7047106840F00100CB
:1031A0001060002070470000006841F20041C4F246
:1031B0000001884208BFFDF7EDBF7047704700006F
:1031C000704700007047000070470000B0B501680C
:1031D0000446C8690D6840F62F028B680240202A19
:1031E00005F0200E0AD1BEF1000F07D0616E002954
:1031F0003CD02046BDE8B040084700BF40F60F0273
:10320000104209D040F22012C0F2004203F0010C3B
:103210002A4012EB0C0215D1226E012A05D110F0C2
:10322000100218BF15F0100222D1C20214D513F4F7
:10323000800211D04FF4801220460A62BDE8B040EF
:10324000FFF7C0BFC20718BF15F4807240F0968127
:10325000820700F19D81A6E1020640F1998015F0F8
:10326000800200F09580A16E0029C2D1B0BD00BFE0
:10327000102008628868400600F1C280B4F8580047
:10328000B4F85A20B4F85A30002B1CBF801A5FEAF9
:103290000042EBD001E000BF216851E8001F226826
:1032A00021F4907142E80013DBB1216851E8001F5E
:1032B000226821F4907142E8001393B1216851E82B
:1032C000001F226821F4907142E800134BB121687D
:1032D00051E8001F226821F4907142E80013002B8E
:1032E000DAD1216851E8021F226821F0010142E889
:1032F0000213DBB1216851E8021F226821F00101AD
:1033000042E8021393B1216851E8021F226821F0BC
:10331000010142E802134BB1216851E8021F226803
:1033200021F0010142E80213002BDAD12021E167EC
:10333000002121666166216851E8001F226821F0A2
:10334000100142E80013002B00F01181216851E8C0
:10335000001F226821F0100142E80013002B00F04A
:103360000681216851E8001F226821F0100142E81F
:103370000013002B00F0FB80216851E8001F226839
:1033800021F0100142E80013002BD4D1EFE000BF80
:1033900040067FF56BAF15F0400008BFB0BD51E8A7
:1033A000000F00BF216820F0400041E80002002A21
:1033B00000F0E281206850E8000F216820F0400012
:1033C00041E80002002A00F0D781206850E8000F91
:1033D000216820F0400041E80002002A00F0CC8182
:1033E000206850E8000F216820F0400041E800020A
:1033F000002A00F0C181206850E8000FD2E700BF2A
:10340000206F0268536898B200283FF42FAFB4F8D9
:1034100058C06045BFF42AAFA4F85A30106880063F
:1034200000F1A18051E8000F216820F4807041E88C
:103430000002FAB1206850E8000F216820F4807083
:1034400041E80002B2B1206850E8000F216820F482
:10345000807041E800026AB1206850E8000F2168DE
:1034600020F4807041E8000222B1206850E8000F8B
:10347000DAE700BF206850E8020F216820F0010061
:1034800041E80202BAB3206850E8020F216820F038
:10349000010041E8020272B3206850E8020F21687F
:1034A00020F0010041E802022AB3206850E8020F30
:1034B000216820F0010041E80202002ADAD11AE076
:1034C000206850E8020F216820F0400041E8020225
:1034D000DAB1206850E8020F216820F0400041E88E
:1034E000020292B1206850E8020F216820F04000EB
:1034F00041E802024AB1206850E8020F216820F03A
:10350000400041E80202002ADAD12020E0670020D2
:103510002066206850E8000F216820F0100041E884
:103520000002DAB1206850E8000F216820F0100096
:1035300041E8000292B1206850E8000F216820F0B5
:10354000100041E800024AB1206850E8000F2168ED
:1035500020F0100041E80002002ADAD1206FFDF7C8
:103560002FFBB4F858C0B4F85A00ACEB000081B29D
:103570002046BDE8B040FFF723BE00BF01220A622B
:10358000D4F8802042F00102C4F8802082070AD5D6
:10359000BCF1000F07D002220A62D4F8802042F06A
:1035A0000402C4F8802042070AD5BCF1000F07D0FE
:1035B00004220A62D4F8802042F00202C4F880207B
:1035C00002070AD55EEA0C0207D008220A62D4F884
:1035D000802042F00802C4F8802002050BD515F0C7
:1035E000806208D04FF400620A62D4F8802042F072
:1035F0002002C4F88020D4F88020002A3FF436AEA0
:1036000010F0200018BFBEF1000F40F0BF80D4F8CA
:1036100080008A6800F0280002F04002801807D17C
:103620002046FFF7D1FD0020C4F88000B0BD00BFE8
:1036300051E8000F216820F4907041E80002D2B3F5
:10364000206850E8000F216820F4907041E80002E3
:103650008AB3206850E8000F216820F4907041E898
:10366000000242B3206850E8000F216820F49070F7
:1036700041E80002FAB1206850E8000FDAE700BF25
:10368000206850E8020F216820F0010041E80202A2
:10369000DAB1206850E8020F216820F0010041E80B
:1036A000020292B1206850E8020F216820F0010068
:1036B00041E802024AB1206850E8020F216820F078
:1036C000010041E80202002ADAD1206E012824D14B
:1036D000206850E8000F216820F0100041E8000247
:1036E000DAB1206850E8000F216820F0100041E8AE
:1036F000000292B1206850E8000F216820F010000D
:1037000041E800024AB1206850E8000F216820F02B
:10371000100041E80002002ADAD120200021E067F1
:103720002166206861668168490649D550E8020F24
:10373000216820F0400041E802027AB3206850E896
:10374000020F216820F0400041E8020232B32068F5
:1037500050E8020F216820F0400041E80202EAB17F
:10376000206850E8020F216820F0400041E8020282
:10377000A2B12068DAE700BF20200021A067204620
:10378000A166BDE8B04000F0D5B900BF626E002A66
:103790003FF43DAF20469047216838E7206F78B16D
:1037A00044F63941C0F600018163FDF72FFA002885
:1037B0003FF45CAD206F816BBDE8B040084700BFAF
:1037C0002046BDE8B040FFF7FFBC0000B0B582B0B6
:1037D000A0B10446806F28B9002084F87400204608
:1037E00000F056F82420A0672068016821F001014C
:1037F0000160204601F028FA012803D1012002B01F
:10380000B0BD00BF606A10B1204601F0A1F9206888
:10381000416821F490414160816821F02A01816072
:10382000016841F0010101600020C4F88000FDF74B
:10383000CBFB216805460A6812070CD56FF07E4C59
:1038400020464FF4001100222B46CDF800C001F0B5
:1038500013FB78B92168086840070FD56FF07E4CDC
:1038600020464FF4800100222B46CDF800C001F025
:1038700003FB18B1032002B0B0BD00BF2020A06739
:10388000E0670020206684F8740002B0B0BD00003C
:103890002DE9F0479EB0044600201D90CDE91B00A5
:1038A000CDE9190002A85C21FCF745FE206844F22E
:1038B0000041C4F20001884278D044F60001C4F20D
:1038C0000001884200F0DE8043F60001C4F20101ED
:1038D000884240F02C810120029002A8FDF78EFD65
:1038E000002818BFFCF754FF41F24C00C4F202005C
:1038F000416940F2300841F4804141614169022749
:1039000001F48041019101990168002641F0020112
:103910000160006819A900F0020001900198C02020
:10392000199003201C9007201D9040F20040C4F61F
:103930000000C4F202081A971B96FDF74FFA40F2F6
:103940007C1508F12800C2F200054FF08009C5E996
:1039500000072846C5E90266C5E90496C5E906667A
:103960002E62FDF7D5F9002818BFFCF711FF256777
:10397000AC6240F2C41508F11400C2F20005102137
:10398000C5E9000705F1080080E842022846C5E9BC
:103990000566C5E90766FDF7BBF9002818BFFCF707
:1039A000F7FEE566AC621EB0BDE8F0874FF0020995
:1039B00002A8CDF80890FDF721FD002818BFFCF7FC
:1039C000E7FE41F24C00C4F20200C16840F2300848
:1039D00041F40031C160C168002701F40031019158
:1039E00001990168C4F2020841F001010160006818
:1039F00019A900F00100019001980C20CDE91909E6
:103A000003201C9007201D904FF090401B97FDF75E
:103A1000E5F940F2542508F15000C2F200051021EA
:103A2000C5E9000905F108004FF0800A80E882042A
:103A30004FF400562846C5E90577EF612E62FDF781
:103A400067F9002818BFFCF7A3FEE566AC6240F2F8
:103A50000C2508F13C00C2F20005022185E8830034
:103A60002846C5E9037AC5E90577C5E90776FDF774
:103A70004FF9002818BFFCF78BFE2567AC621EB01B
:103A8000BDE8F0870420029002A8FDF7B7FC0028EB
:103A900018BFFCF77DFE41F24C00C4F20200C16881
:103AA000022641F48021C160C168002701F4802111
:103AB00001910199016841F004010160006819A9B0
:103AC00000F00400019001983020199003201C9010
:103AD00007201D9040F20040C4F6000000F5806011
:103AE0001A961B97FDF77AF940F29C253020C2F216
:103AF0000005C4F2020085E8C1004FF400508021A7
:103B000028622846C5E90371C5E90577EF61FDF72D
:103B1000FFF8002818BFFCF73BFE272005210022F4
:103B20002567AC62FDF7E0FB2720FDF7CDFB1EB05B
:103B3000BDE8F08770470000FEE7000040F2004457
:103B40000A20C4F2010401F043FBA06840F21815FA
:103B500040F2104640F2984740F00100C2F20005E2
:103B6000C4F60006C2F20007A06000BF20684FF054
:103B7000FF3140F001002060286802F09FFC0A201D
:103B800001F026FB30683968C0074FF0000008BF1D
:103B90004FF47A704863E9E780B5017A036840F230
:103BA000004EC4F2010E99B163B3417A02292FD0BD
:103BB000012931D0002951D1DEF804109943CEF803
:103BC0000410DEF800101943CEF800102EE000BFFC
:103BD000DEF800104FF0000C9943CEF80010DEF82C
:103BE00004109943CEF804104068DEF82010814399
:103BF000CEF82010DEF8241021EA0000CEF82400D0
:103C000085E000BF4FF0000C43688BBB7FE000BF36
:103C1000DEF80010194302E0DEF800109943CEF8F8
:103C20000010DEF804101943CEF804104FF0000C19
:103C3000817A032917D8DFE801F01803595D00BF26
:103C4000DEF80C109943CEF80C10DEF8081019437A
:103C5000CEF8081043685BB959E000BF4FF0010C83
:103C6000817A0329E7D90CF1020C4368002B4ED06E
:103C7000417A022910D0012912D079BBDEF8241034
:103C80009943CEF82410DEF820101943CEF8201006
:103C9000807A032811D926E0DEF82010194302E0CB
:103CA000DEF820109943CEF82010DEF824101943D6
:103CB000CEF82410807A032815D8DFE800F0280316
:103CC0002B2F00BFDEF82C009843CEF82C00DEF836
:103CD00028001843CEF82800604680BD0CF1040C83
:103CE000807A0328E9D9012080BD00BFDEF80810E2
:103CF000994302E0DEF808101943CEF80810DEF808
:103D00000C101943CEF80C104368002BB0D160465C
:103D100080BD00BFDEF82800984302E0DEF82800EE
:103D20001843CEF82800DEF82C001843CEF82C00FB
:103D3000604680BD2DE9F04F0C6894FAA4F2B2FA07
:103D400082F234FA02F363D04FF001084FF0030B14
:103D50000BE000BFD1E900470568B7402B403B436B
:103D60000360013234FA02F352D008FA02F314EA83
:103D7000030CF6D0D1F80490A9F10103022B1BD259
:103D80009CFAACF6B6FA86F77E00D0F808A00BFADB
:103D900006F3D1E902BE2AEA030A0BFA06F545EA60
:103DA0000A05856045684FF0030BA5430EFB04F43C
:103DB000DB432543456007E09CFAACF3B3FA83F795
:103DC0007E000BFA06F3DB430D69C468B5401C4066
:103DD0002543B9F1020FC560BCD14FEA1C2494FA07
:103DE000A4F4D1F814E0BCF5807F28BFB4FA84F7BE
:103DF0004FF0240438BF202450F804C0BF000F2522
:103E0000BD402CEA05050EFA07F72F430751A1E73D
:103E1000002000F000B830BCBDE8C08F80B540F293
:103E2000541046F20041C2F20000C4F20001082220
:103E3000002380E80E0000F10C014FF4403C4FF4E9
:103E4000800E81E8085083618383FCF7E1FD002840
:103E500008BF80BDBDE88040FCF79ABC80B582B049
:103E600041F24800C4F202000168002241F0010161
:103E700001600068052100F00100019001980D200B
:103E8000FDF732FA0D20FDF71FFA0E200521002262
:103E9000FDF72AFA0E20FDF717FA0F200521002260
:103EA000FDF722FA0F20FDF70FFA1020052100225E
:103EB000FDF71AFA1020FDF707FA1120052100225C
:103EC000FDF712FA112002B0BDE88040FDF7FCB901
:103ED00010B588B046F61840C0F6000090E80E50C5
:103EE000D0E905400191CDE9064001A800210292E8
:103EF0000393CDF810C0CDF814E001F09FF940F223
:103F00005011C2F20001086000F0ECFD08B010BDD5
:103F10002DE9F04F8BB04FF0000841F24C00CDF886
:103F20002480CDF81880C4F20200016840F6000732
:103F300041F0800101600168C4F6000701F08001D2
:103F40000A910A990168012541F0040101600168A4
:103F50004FF4805901F004010A910A9901684FF069
:103F6000040A41F001010160016801AC01F00101A6
:103F70000A910A99016841F002010160016801F0AB
:103F800002010A910A99016841F008010160006884
:103F9000214600F008000A900A984FF62800CFF654
:103FA000FF703D504FF62840CFF6FF7047F8009065
:103FB0004FF61800CFF6FF7047F8009040F6184013
:103FC000C4F60000C0F800A04FF09040CDE90155C4
:103FD000CDE90388CDF81480FFF7ACFE0226A7F5E3
:103FE00080602146CDE90195CDE903880596FFF76C
:103FF000A1FE4FF090402146CDE90195CDE903881F
:104000000595FFF797FE40F60C0BC4F6000B0BF579
:104010007D702146CDE901A5CDE90368CDF8148076
:10402000FFF788FE0820C4F20100016807AC65F3C1
:1040300003010160816866F30F318160C16866F336
:104040000301C1602046CDE90758ADF824508DF832
:104050002660FFF7A1FD4FF40060CDE90708204678
:10406000ADF824508DF82660FFF796FD2046CDE987
:104070000798ADF824508DF82660FFF78DFD4FF6B8
:104080000C40CFF6FF7039584FF0FF3365F3010154
:104090003950DBF80000402620F44000CBF8000047
:1040A000DBF8000020F04070CBF800004FF6004035
:1040B000CFF6FF70395821F003013950386820F4E9
:1040C00040003860386820F0407038604EF60C5080
:1040D000CEF2000001680527C1F3022181F007023A
:1040E000042A28BF5246033903FA02F238BF414678
:1040F00027EA020202FA01F14EF206420901CEF26B
:10410000000211704EF20011CEF200010E60006844
:10411000C0F3022080F00706042E38BFB2460338F1
:1041200003FA0AF338BF404627EA030303FA00F014
:10413000000182F822004FF4807048600BB000F05C
:1041400000B830BCBDE8C08F80B540F2E42045F631
:104150000041C2F20000C4F2000149F6EC42002323
:10416000C1F290024FF0010C80E80E10C0E9043358
:10417000C0E906330362FCF777FF002818BFFCF79D
:1041800007FB40F2E420C2F200000021FCF722FF0E
:10419000002818BFFCF7FCFA40F2E420C2F200004D
:1041A0000021FCF73DFF002808BF80BDBDE880402E
:1041B000FCF7EEBA10B540F2383043F20001C2F21B
:1041C0000000C4F201014FF4827200234FF4E06C4E
:1041D0004FF4007E102480E80E1007210822C0E969
:1041E0000433C0E906E4C0E90833C0E90A31C0E994
:1041F0000C32FEF731F8002808BF10BDBDE81040B2
:10420000FCF7C6BA80B540F29C3043F60001C2F21A
:104210000000C4F200014FF4827200234FF4407C8E
:104220004FF4007E80E80E1007210822C0E9043315
:10423000C0E906E3C0E90833C0E90A31C0E90C323D
:10424000FEF70AF8002808BF80BDBDE88040FCF7F3
:104250009FBA000010B59AB0002401A82C2119942F
:10426000CDE91744CDE91444CDE91244CDE9104419
:10427000CDE90E44CDE90C44FCF75DF940F24C4029
:1042800044F20001C2F20000C4F2010144F61F63CF
:104290004F2280E81600C0E90334C0E90544FEF768
:1042A00043F9002818BFFCF773FA4FF480501690BA
:1042B00040F24C40C2F2000016A9FEF757FA00285F
:1042C00018BFFCF765FA40F24C40C2F20000FEF75E
:1042D00063FE002818BFFCF75BFA40F24C40002454
:1042E000C2F2000013A913941594FEF7E9F8002810
:1042F00018BFFCF74DFA60200C9040F2DB50CDE97E
:104300000D0440F24C40C2F200000CA90022CDE99D
:104310000F44CDE91144FEF76BFC002818BFFCF7F1
:1043200037FA40F24C40C2F200000CA90422FEF71A
:104330005FFC002818BFFCF72BFA00200590CDE9A0
:104340000300CDE901004FF400510B9040F24C40C6
:104350000691C2F2000001A9FEF766F8002818BF16
:10436000FCF716FA40F24C40C2F20000FEF794FB54
:104370001AB010BD10B592B068462C21FCF7DBF8DE
:1043800040F2984044F20041C2F20000C4F2010140
:1043900000234F2240F2E73480E81E00C0E90433D6
:1043A0008361FEF7C1F8002818BFFCF7F1F940F26D
:1043B0009840C2F20000FEF7EFFD002818BFFCF79E
:1043C000E7F960200B9040F2E7300C9040F2984003
:1043D0000024C2F200000BA90022CDE90D44CDE972
:1043E0000F441194FEF704FC002818BFFCF7D0F925
:1043F0004FF40050059040F29840C2F20000694628
:104400000494CDE90244CDE900440A94FEF70CF887
:10441000002818BFFCF7BCF940F29840C2F2000037
:10442000FEF73AFB12B010BD10B59AB0002401A8F7
:104430002C211994CDE91744CDE91444CDE9124457
:10444000CDE91044CDE90E44CDE90C44FCF773F8F6
:1044500040F2004042F60041C2F20000C4F2010105
:1044600044F61F634F2280E81600C0E90334C0E918
:104470000544FEF759F8002818BFFCF789F94FF4F6
:104480008050169040F20040C2F2000016A9FEF7DC
:104490006DF9002818BFFCF77BF940F20040C2F22A
:1044A0000000FEF779FD002818BFFCF771F940F213
:1044B00000400024C2F2000013A9CDE91344159472
:1044C000FDF7FEFF002818BFFCF762F960200C9092
:1044D00040F2DB50CDE90D0440F20040C2F2000092
:1044E0000CA90022CDE90F44CDE91144FEF780FB71
:1044F000002818BFFCF74CF940F20040C2F200005F
:104500000CA90422FEF774FB002818BFFCF740F941
:1045100040F20040C2F200000CA90822FEF768FB3E
:10452000002818BFFCF734F940F20040C2F2000046
:104530000CA90C22FEF75CFB002818BFFCF728F939
:1045400000204FF40051CDE906104FF000710590A6
:10455000CDE90300CDE901000890CDE909100B90E9
:1045600040F20040C2F2000001A9FDF75DFF002803
:1045700018BFFCF70DF940F20040C2F20000FEF750
:104580008BFA1AB010BD000010B58EB040F2E440B6
:104590000021C2F200004FF080424F2340F2E73486
:1045A0000D91CDE90B11CDE90811CDE90611CDE949
:1045B0000411CDE90211CDE90011C0E90023C0E9E1
:1045C000021401618161FDF7AFFF002818BFFCF7FD
:1045D000DFF84FF480500A9040F2E440C2F200004D
:1045E0000AA9FEF7C3F8002818BFFCF7D1F840F27B
:1045F000E440C2F20000FEF7CFFC002818BFFCF731
:10460000C7F840F2E4400024C2F2000007A9079472
:104610000994FDF755FF002818BFFCF7B9F8602092
:10462000CDE9000440F2E440C2F2000069460022F5
:1046300002940494FEF7DCFA002818BFFCF7A8F8EF
:1046400040F2E730019040F2E440C2F200006946D7
:104650000822FEF7CDFA002818BFFCF799F840F2BF
:10466000E440C2F2000069460C22FEF7C1FA0028BD
:1046700018BFFCF78DF840F2E440C2F20000FEF7EC
:104680000BFA0EB010BD000010B584B040F23050EF
:1046900041F200010024C2F20000C4F2000109232B
:1046A00002944F2280E81600C3608461FDF73CFF4E
:1046B000002818BFFCF76CF840F23050C2F200003E
:1046C00001A901940394FDF7FBFE002818BFFCF735
:1046D0005FF804B010BD000080B540F2C85043F64A
:1046E0000001C2F20000C4F2010100234FF00C0CE3
:1046F0004FF4E13280E80E00C0E90333C0E905C39E
:10470000C0E907334362FFF761F8002808BF80BDA6
:10471000BDE88040FCF73CB880B540F24C6044F204
:104720000041C2F20000C4F2000100234FF00C0C63
:104730004FF4E13280E80E00C0E90333C0E905C35D
:10474000C0E907334362FFF741F8002808BF80BD86
:10475000BDE88040FCF71CB810B540F2D06044F6CC
:10476000000CC2F20000C4F2000C42F210724FF4CE
:10477000805300214FF4806E0C24C0E900C2C0E9D0
:104780000231C0E904E4C0E90611C0E90811FFF7ED
:104790001DF8002808BF10BDBDE81040FBF7F8BFAA
:1047A000FEE70000FEE7000000000000000000003F
:1047B000EFF30980BFF36F8F154B1A681EF0100FCF
:1047C00008BF20ED108A20E9F04F10602DE90900A4
:1047D0004FF0500080F31188BFF34F8FBFF36F8FFE
:1047E00001F038FB4FF0000080F31188BDE80900AC
:1047F0001968086800F00EB81EF0100F08BF00F02E
:104800000EB880F30988BFF36F8F704700BF00BFF9
:104810007000002030C8B0E8C04FFFF7EDBFB0EC2B
:10482000088AB0EC08CAFFF7ECBF0000F0B581B011
:1048300041F20007C4F20207FA680D4691070446E8
:1048400014D0F868216800F0030088424FF001009E
:1048500040F09F80002900F09C80F8686168C0F3F8
:1048600002100130884232D134E000BF20680328B2
:104870000CD0022816D0012829D13968012211F064
:10488000020182EA510116D120E000BF3968890394
:1048900010D43968012211F4802182EA91410AD1B1
:1048A00014E000BF3968012211F4806182EA91218D
:1048B00001D10BE00021FA68636822F073026FF007
:1048C0000F0606EB031310431843F86011B10120E3
:1048D00001B0F0BD386820F080603860FCF774FBF0
:1048E000064600BF3868000106D5FCF76DFB801B4B
:1048F0000228F7D944E000BF012D0DD0F5B9386981
:1049000048F2FF01C0F2FF710840D4E9021240EA08
:10491000012040EAC26022E048F2FF013869CFF688
:10492000FF112269002301F1B461CFF6E073084062
:10493000A16803EB02526FF314020DE0386948F2EC
:10494000FF016269CFF6FF114FF07E430840A16876
:1049500003EB026202F07E4240EA0120104338611C
:10496000386840F080603860FCF72EFB054600BFD9
:104970003868000108D4FCF727FB401B0228F7D950
:10498000032001B0F0BD00BFA06939690843386158
:10499000002001B0F0BD000040F2E44840F24D14A8
:1049A000002540F2E7364FF00109C2F200084FF04F
:1049B000010A012709E000BFC9F10009D8F8002069
:1049C00010640320D16300F003FC44FA87F4A0B222
:1049D000B0F57A7F10D0002808BF7F4245FA8AF5EB
:1049E000A9B279B1B1F57A7F08BFCAF1000A46FAD7
:1049F00089F6B1B269B9DFE77F4245FA8AF5A9B213
:104A00000029EFD1CAF1000A46FA89F6B1B20029AD
:104A1000D2D0B1F57A7F08BFC9F10009CEE7000016
:104A2000074B1968086800F00DB880F30988BFF3D8
:104A30006F8F4FF0000080F31188704700BF00BFF8
:104A40007000002030C8B0E8C04FFFF7EEBF000094
:104A500040F2481540F20044C2F20005C4F60004DA
:104A60002A7820464FF48051FCF7A8FA012000F084
:104A7000AFFBF5E780B54FF0500080F31188BFF32E
:104A80006F8FBFF34F8F01F0D5FE30B14EF604505B
:104A9000CEF200004FF080510160002080F31188B9
:104AA00080BD00004EF68850CEF20000016841F44F
:104AB000700101607047000080B540F23050C2F2D2
:104AC0000000FDF723FF40F24C10C2F20000016825
:104AD0000131016080BD000040F27C50C2F2000054
:104AE000FDF714BFF0B591B046F65040C0F6000097
:104AF00090E81E5080690AAD85E81E5010900AA803
:104B00000021002500F09AFB40F21417C2F20007C2
:104B1000386008A80121CDE9085500F067FB7860EE
:104B200046F63440C0F6000090E82E00D0E9044676
:104B300080690DF1040C8CE82E00079001A800217B
:104B4000CDE9054600F07AFBB86011B0F0BD000079
:104B500080B5416ACA070DD18A0716D44A071FD407
:104B60000A0728D4CA0631D48A063AD44A0658D548
:104B700042E000BF0268D0F828C0536823F4003335
:104B800043EA0C0353608A07E8D50268D0F82CC0CA
:104B9000536823F4803343EA0C0353604A07DFD59C
:104BA0000268D0F830C0536823F4802343EA0C0332
:104BB00053600A07D6D50268D0F834C0536823F48E
:104BC000004343EA0C035360CA06CDD50268D0F80F
:104BD00038C0936823F4805343EA0C0393608A0639
:104BE000C4D50268D0F83CC0936823F4005343EA6C
:104BF0000C0393604A0614D50268D0F840C053688D
:104C0000BCF5801F23F4801343EA0C03536008D1E2
:104C1000D2F804C0D0F844E02CF4C00343EA0E03F9
:104C20005360090658BF80BD0168806C4A6822F451
:104C300000221043486080BD806A0021A0F85A100D
:104C4000A0F85210FEF7C0BAB0B505462A69D5E9FA
:104C5000021300680A436969D5F81CE01143026831
:104C600046F6F314CEF6FF7441EA0E0122401143DA
:104C70000160416848F2000C21F440511943416041
:104C8000AA69C4F2000C60451CBF296A0A43816806
:104C9000102321F430611143816047F6FF71C4F2A3
:104CA0000001884212DC44F20041C4F20001884253
:104CB0001CD044F60001C4F2000188422CD141F21C
:104CC0008801C4F2020109680B091DE0604515D096
:104CD00043F60001C4F2010188421DD141F288016E
:104CE000C4F202010B6860A212E000BF41F2880129
:104CF000C4F2020109688B0806E000BF41F2880196
:104D0000C4F2020109688B0A46F6B442C0F60002FA
:104D100003F0030152F82130604542F20040C0F236
:104D2000F40015D0BEF5004F22D1082B4FF0010141
:104D300000F29580DFE803F0065460935893939354
:104D40005E0000BFFCF712FE002855D14FE000BF07
:104D5000082B4FF0010100F28280DFE803F00580AC
:104D600023801B8080802100FCF700FED0B914E076
:104D7000082B4FF0010100F27280DFE803F00553C9
:104D80005F70577070705D00FCF7F0FD002855D122
:104D90004FE000BFFCF716FE20B900215FE000BF26
:104DA0004FF400406A6802EB420188424FF0010173
:104DB00055D31303984252D8010E000210EB520053
:104DC00041F100010023FBF759FA4FF60052A0F51C
:104DD0004071C0F20F0291423BD301213FE000BF7E
:104DE000FCF7DAFD40B902E0FCF7ECFD20B9002148
:104DF00035E000BF4FF4004069684A0802EB40000C
:104E0000B0FBF1F04FF6EF72A0F11001914207D81C
:104E10004FF6F0710140C0F34200084419E000BFB2
:104E200001211CE0FCF7B8FD40B902E0FCF7CAFD27
:104E300020B9002113E000BF4FF4004069684FF62D
:104E4000EF7200EB5100B0FBF1F0A0F110019142C4
:104E500004D82968C860002101E000BF01210022B8
:104E600008466A66AA66B0BD0100000004000000A2
:104E700002000000080000002DE9F041044600682F
:104E80001546C2690E461140891BB1FA81F14909E4
:104E9000A94240F0A080DDF81880B8F1000F29D0B9
:104EA00018F1010140F08080C1693140891BB1FADD
:104EB00081F14909A94240F08E80C1693140891BC6
:104EC000B1FA81F14909A94240F08580C1693140B8
:104ED000891BB1FA81F14909A9427CD1C1693140EC
:104EE000891BB1FA81F14909A942DDD00020BDE852
:104EF000F08100BFFCF768F8206850E8000F2168D7
:104F000020F4D07041E80002BAB3206850E8000FE6
:104F1000216820F4D07041E8000272B3206850E8A4
:104F2000000F216820F4D07041E800022AB3206805
:104F300050E8000F216820F4D07041E80002002AF8
:104F4000DAD11AE0206850E8020F216820F0010051
:104F500041E80202DAB1206850E8020F216820F02F
:104F6000010041E8020292B1206850E8020F216876
:104F700020F0010041E802024AB1206850E8020F27
:104F8000216820F0010041E80202002ADAD1202045
:104F9000A06704F17C0020210160002084F87400E7
:104FA0000320BDE8F08100BF1F4600BFFCF70CF8EE
:104FB000C01B4045A0D820680168490744BFC169AB
:104FC0005FEA01510AD4C0693040801BB0FA80F01A
:104FD0004009A842EAD00020BDE8F0814FF400610A
:104FE000016200BF50E8000F216820F4D07041E852
:104FF0000002C2B3206850E8000F216820F4D0708E
:1050000041E800027AB3206850E8000F216820F4DC
:10501000D07041E8000232B3206850E8000F2168E8
:1050200020F4D07041E80002EAB12068DAE700BF5E
:10503000206850E8020F216820F0010041E80202D8
:10504000DAB1206850E8020F216820F0010041E841
:10505000020292B1206850E8020F216820F001009E
:1050600041E802024AB1206850E8020F216820F0AE
:10507000010041E80202002ADAD12020A067E0679F
:1050800004F1800087E7000040F2D060C2F2000027
:10509000FEF79CB8FEE70000704700000020704754
:1050A00096B0FCF785F80020CDE90D00CDE90B00A6
:1050B000CDE90900CDE907004FF40070FCF750F985
:1050C00020B1EFF3108072B6FEE700BF012005901B
:1050D0004FF48030282106900220032412910721EA
:1050E0000F90CDE91040CDE91310159005A8FCF7FD
:1050F000CBFC28B1EFF3108072B600BFFEE700BF13
:105100000F20CDE900040020CDE90200049068469C
:105110000421FCF7CBFA28B1EFF3108072B600BF80
:10512000FEE700BFFEF7F4FEFEF798FEFEF776FE00
:10513000FFF77AF9FFF728FAFFF7A6FAFFF78AF8E0
:10514000FFF718F9FFF7E8FAFFF706FBFEF7FCFF99
:10515000FFF730F8FFF756F8FFF7BEFA40F2E444E5
:10516000C2F2000420460821FDF78CFF20460C21E6
:10517000FDF788FF40F29840C2F200000021FDF7E1
:1051800081FF40F20044C2F2000420460021FDF7F6
:1051900079FF20460421FDF775FF20460821FDF721
:1051A00071FF20460C21FDF76DFF40F24C44C2F226
:1051B000000420460021FDF765FF20460421FDF78D
:1051C00061FFFEF785FE00F00BF800BFFEE7000070
:1051D00080B5002808BF012000F0F6FC002080BD4B
:1051E00080B500F0C7FD002080BD0000B0B582B0E2
:1051F00043685BB101291DD1032501200021002254
:10520000009500F06FFF02B0B0BD00BF012911D1C1
:10521000012000210322002400F020FF30B10021F2
:1052200000220023054600F0CDFF2C46204602B0A8
:10523000B0BD00BF0024204602B0B0BDB0B584B000
:1052400043698E4693B1846984B10589D0E9001C15
:10525000026928B2843D18BFC51CCDE900536046E1
:105260007346029401F09AFA04B0B0BD0589D0E902
:105270000013028A28B2843D18BFC51C03AC18462F
:1052800073460095019401F059FA0399012818BF5B
:105290000021084604B0B0BDF0B581B040F2700402
:1052A000C2F200040E46E76A21680546081D00F0B8
:1052B00021FB18B1681C0CD016E000BF206801214A
:1052C000C06A626801FA00F022EA00006060681CAF
:1052D0000AD14EB154F8540B011D204601B0BDE86F
:1052E000F04000F069BB00BF2068ED19456007D3AE
:1052F000206A2168043101B0BDE8F04000F02ABB0B
:10530000E0692168043100F025FBA06A854238BFBE
:10531000A56201B0F0BD00002DE9F041044600F0A7
:1053200063FB40F27006C2F20006306940F2547529
:10533000013030613068C2F2000548B17069002860
:1053400040D13068E16AC06A884298BF346039E071
:1053500034603069012835D1284600F0EBFA05F1B8
:10536000140000F0E7FA05F1280000F0E3FA05F177
:105370003C0000F0DFFA05F1500000F0DBFA05F127
:10538000640000F0D7FA05F1780000F0D3FA40F29B
:105390002018C2F20008404600F0CCFA08F11407C9
:1053A000384600F0C7FA06F1680000F0C3FA06F1CB
:1053B000400000F0BFFA06F1540000F0BBFAC6F856
:1053C0001C8037627068B16801220131B16061648C
:1053D000E16A8A401043706001EB810005EB8000B8
:1053E000211D00F0E9FA00F023FB706988B13068F4
:1053F000E16AC06A884228BFBDE8F0814EF60450D9
:10540000CEF200004FF080510160BFF34F8FBFF329
:105410006F8FBDE8F081000040F2700540F25476D5
:105420004EF60458C2F20005C2F20006CEF20008A1
:105430004FF0805703E000BF204600F011FBE86802
:10544000D0B100F0D1FAE86CC468201D00F052FA27
:10545000286901382861E8680138E86000F0E8FA56
:1054600094F85D000228EAD00128E5D070B9206BDD
:1054700000F0F6FAE0E700BF30680228DFD3C8F892
:105480000070BFF34F8FBFF36F8FD8E74FF050001E
:1054900080F31188BFF36F8FBFF34F8FFEE70000DB
:1054A0002DE9F0470A9C8246206B16460F46DDE93F
:1054B00008599100A5229846FBF735F8206B002F7C
:1054C00000EB8600A0F1040020F0070656D03878E3
:1054D00084F83400387800284BD0787884F8350088
:1054E0007878002845D0B87884F83600B878002855
:1054F0003FD0F87884F83700F878D0B3387984F85A
:1055000038003879A8B3787984F83900787980B38D
:10551000B87984F83A00B87958B3F87984F83B0040
:10552000F87930B3387A84F83C00387A08B3787A5E
:1055300084F83D00787AE0B1B87A84F83E00B87A11
:10554000B8B1F87A84F83F00F87A90B1387B84F8E3
:105550004000387B68B1787B84F84100787B40B1AB
:10556000B87B84F84200B87B00281CBFF87B84F825
:105570004300002084F8430003E000BF002084F8CB
:1055800034000027201D062D28BF0625E562C4E94A
:10559000135700F0DBF904F1180000F0D7F985F09B
:1055A0000700A06130465146424624616462676547
:1055B000A76584F85C7000F089F9B9F1000F2060EC
:1055C00018BFC9F80040BDE8F0870000084800682F
:1055D000006880F308884FF0000080F3148862B6FA
:1055E00061B6BFF34F8FBFF36F8F00DF00BF0000C6
:1055F00008ED00E081B00020009040F20C00C2F203
:10560000000000684FF0500181F31188BFF36F8FE5
:10561000BFF34F8F013007D0FEE700BF009830B9CD
:10562000009820B9009810B900980028F6D001B071
:1056300070470000F0B581B0044600F0D5F994F948
:105640004560012E0FDB04F1240500BF286850B12E
:10565000284601F025FA002818BF00F00FFBF0B231
:10566000013E0128F2D8FF2684F8456000F0E0F9F9
:1056700000F0BAF994F94470012F0EDB04F1100523
:10568000286850B1284601F00BFA002818BF00F036
:10569000F5FAF8B2013F0128F2D884F8446001B06D
:1056A000BDE8F04000F0C4B970B5044600F0CAFB94
:1056B00040F2EC0CC2F2000CDCF8040050B19CF893
:1056C0000000002818BF4FF000404FF000057CBBE1
:1056D0008DE000BF40F2E070C2F20000C21D22F077
:1056E000070210F00701A0EB020318BF10460022CA
:1056F0004FF4A045CCE90602002918BF03F5A045E8
:105700004119083921F00701CCF80410C1E9002241
:10571000DCF80420091AC0E9002101208CF80000FF
:105720004FF00040CCE90211002C4FF000055ED094
:1057300020405CD104F1100020F00702600708BF90
:1057400004F10802002A4FF0000550D0DCF80800F0
:1057500082424CD8604650F818EFDEF8045095426B
:105760002BD2DEF80010B9B174464D68954217D2BD
:105770000B68ABB15D68954216D21868A0B1456858
:10578000954215D204689CB16568954214D221688F
:10579000A6460029E9D110E00CF118000DE000BF89
:1057A0008E46204609E000BF9E46084605E000BF41
:1057B0008646184601E000BFA646DCF804108E4578
:1057C00014D00168DEF80040AB1A112B04604DD3F1
:1057D0000EEB0205680719D04FF0500080F31188D6
:1057E000BFF36F8FBFF34F8FFEE700BF002501F0BF
:1057F00091F968075BD04FF0500080F31188BFF338
:105800006F8FBFF34F8F00BFFEE700BF0CF1180092
:105810006B60CEF8042000BF0368AB420AD2186860
:10582000A8420BD20368AB4204D218681A46A842B9
:10583000F2D304E00246184601E000BF1A4653685E
:105840006C68D618AE4202D11C44154654602B1920
:10585000834207D1DCF80430984203D0D0E900033A
:1058600023446B60AA42286018BF156001F1080547
:10587000DEF80400DCE90212091A9142CCF80810A3
:1058800038BFCCF80C109CF80010002918BF40F06D
:105890000040CEF80400DCF8100000210130CEF802
:1058A0000010CCF8100001F035F96807A3D12846A4
:1058B00070BD000040F27000C2F20000016819B132
:1058C00001680A6D01320A6500687047034645F2B7
:1058D000F550C0F600004FF0807C21F0010103E993
:1058E00003106FF0020043F8240CA3F1440043F8C6
:1058F000202C7047D0E9013201699A60D1F804C0C8
:1059000082688445536008BF4A60002202610868CB
:10591000013808600868704745F6E413C2F20003D6
:10592000036045F2E470C2F200000860802010605D
:10593000704700004FF0FF31024642F8081F002177
:105940004260C0E90322016070470000002101614C
:105950007047000010B5D1F800E01EF1010213D02D
:1059600000F1080462681368734511D853681C6815
:10597000744511D85A68146874450FD85468236860
:10598000A4467345EED90BE00269D2F804C007E0E3
:105990009446224604E000BF9C4601E094461A4625
:1059A000C1F804C0CCF808108A6051600861016831
:1059B0000131016010BD0000D0F800C043680861EB
:1059C0009A684B608A609A68996051600CF1010195
:1059D00001607047DFF80C00016841F4700101605C
:1059E0007047000088ED00E04FF0500080F3118810
:1059F000BFF36F8FBFF34F8F40F20C00C2F2000075
:105A000001684A1C026009B1704700BF4EF604509D
:105A1000CEF200000068000608BF70474FF050004B
:105A200080F31188BFF36F8FBFF34F8FFEE7000045
:105A300040F20C00C2F20000016839B10139016086
:105A400018BF7047002080F3118870474FF0500056
:105A500080F31188BFF36F8FBFF34F8FFEE7000015
:105A600070B5002808BF70BD40F2EC05C2F2000519
:105A70000446287854F8041C002818BF4FF0004052
:105A800008420DD0A4F1080632689AB14FF05000D8
:105A900080F31188BFF36F8FBFF34F8FFEE700BF16
:105AA0004FF0500080F31188BFF36F8FBFF34F8F1B
:105AB000FEE700BF21EA000044F8040C00F0C2F940
:105AC00054F8041CA8680844A86005F1180000BF39
:105AD0000368B3420AD21868B04225D20368B342C1
