:020000040800F2
:1000000020150010DD0200088597000829760008F9
:10001000819700084D1F0008DDB9000800000000AE
:1000200000000000000000000000000031A40008F3
:100030000520000800000000619C0008C1A5000820
:10004000F7020008F7020008F7020008F7020008AC
:10005000F7020008F702000809200008F70200086C
:10006000F7020008F7020008F7020008F70200088C
:10007000F7020008B51F0008C51F0008D51F0008BB
:10008000E51F0008F51F0008F7020008F702000846
:10009000511F0008611F0008F7020008F70200085E
:1000A000F7020008F7020008F7020008F70200084C
:1000B000F70200080000000000000000F70200083E
:1000C000F7020008F7020008F7020008F70200082C
:1000D000F7020008F7020008F7020008CDB900088F
:1000E0003D200008F70200080000000000000000AA
:1000F0000000000000000000000000000000000000
:1001000000000000F702000800000000F7020008ED
:10011000000000000000000091A60008B1A6000841
:10012000F7020008F7020008F7020008F7020008CB
:10013000F7020008000000000000000000000000BE
:10014000F7020008F7020008F702000800000000AC
:10015000F7020008F7020008F7020008F70200089B
:10016000F7020008F7020008F7020008000000008C
:10017000F7020008F702000800000000000000007D
:10018000F7020008F7020008F702000800F002F882
:1001900000F094F80AA090E8000C82448344AAF18D
:1001A0000107DA4501D100F089F8AFF2090EBAE88B
:1001B0000F0013F0010F18BFFB1A43F0010318479B
:1001C000DC0F01000C100100103A24BF78C878C180
:1001D000FAD8520724BF30C830C144BF04680C604D
:1001E000704700000023002400250026103A28BF95
:1001F00078C1FBD8520728BF30C148BF0B60704799
:100200006E2900F0E382702900F02984662910F03D
:100210001A84652910F01784672910F01484612965
:1002200010F0138403681B0A28BF41F0800169297C
:1002300000F09082642900F08D82752900F08A8296
:100240006F2900F0B783782900F0F583E92900F0E1
:100250005183E42900F04E83F52900F04B83EF2908
:1002600000F0B483F82900F0F4830368DB0928BFA9
:1002700041F08001632901F00481732901F00981B3
:10028000E32901F01481F32901F01981002070475E
:100290001FB510F0CBFB01F06DF904000020002128
:1002A00010F0D4F8401C60600020002110F0B8F875
:1002B000E06000F0CFF91FBD10B510BD01F02CF9C2
:1002C0001146FFF7E5FF0CF0EFFA01F009FA03B46D
:1002D000FFF7F2FF03BC01F04DFA00000948804728
:1002E00009480047FEE7FEE7FEE7FEE7FEE7FEE718
:1002F000FEE7FEE7FEE7FEE704480549054A064B30
:10030000704700007DA600088D010008200F001036
:1003100020150010201100102011001053EA020CCB
:1003200000F069802DE9F04B4FF00006002B1FBF55
:10033000B3FA83F503FA05F424FA05F65E4012BF1A
:100340001643B2FA82F502FA05F4C5F120051EBF84
:1003500022FA05FC44EA0C04203556EA044C4FEA24
:10036000144418BF641C4FF000084FF0000990427D
:1003700071EB030C39D3002919BFB1FA81F701FAE7
:1003800007F6B0FA80F700FA07F6C7F120071EBF9C
:1003900020FA07FC46EA0C062037B6FBF4FCA7EB74
:1003A0000507103F07F01F0BCBF120062CFA06F6CD
:1003B0000CFA0BFB44BFB3460026202FA4BF5E46B9
:1003C0004FF0000B5BEA060C08BF4FF0010B19EB76
:1003D0000B0948EB0608ABFB027C06FB02CC0BFBCF
:1003E00003CCC01B71EB0C01C1E70B460246414632
:1003F0004846BDE8F08B13B5084318BF4FF0FF30F7
:100400000146AFF30080BDE81C4070470FB41CB537
:10041000084B06AA7B4469460090059800F0EFF966
:1004200004460020694600F0FDF920461CBC5DF83A
:1004300014FB00000D04000040EA0103024630B541
:100440009B0710D14FF0013400E008C208C91D1B02
:100450009D4315EAC41FF8D013F0FF0102F8011BF9
:100460000DD01B0AF8E711F8013B002B02F8013B05
:1004700005D011F8013B002B02F8013BF3D130BD50
:1004800010B5431C02E010F8011B71B18107FAD1CD
:100490004FF0013202C88C1A8C4314EAC211F9D011
:1004A000C01A0A0603D0C01E10BDC01A10BD0A042F
:1004B00001D0801E10BD0902FCD0401E10BD032AD1
:1004C00040F2308010F0030C00F0158011F8013B71
:1004D000BCF1020F624498BF11F801CB00F8013B58
:1004E00038BF11F8013BA2F1040298BF00F801CB1C
:1004F00038BF00F8013B11F0030300F02580083AF3
:10050000C0F0088051F8043B083A51F804CBA0E849
:100510000810F5E7121D5CBF51F8043B40F8043B9E
:10052000AFF30080D20724BF11F8013B11F801CBD3
:1005300048BF11F8012B24BF00F8013B00F801CBA4
:1005400048BF00F8012B704710B5203AC0F00B806F
:10055000B1E81850A0E81850B1E81850A0E81850B9
:10056000203ABFF4F5AF5FEA027C24BFB1E818502F
:10057000A0E8185044BF18C918C0BDE810405FEA91
:10058000827C24BF51F8043B40F8043B08BF70470D
:10059000D20728BF31F8023B48BF11F8012B28BF12
:1005A00020F8023B48BF00F8012B704702F0FF0320
:1005B00043EA032242EA024200F024B84FF000026C
:1005C0000429C0F0128010F0030C00F01B80CCF165
:1005D000040CBCF1020F18BF00F8012BA8BF20F8D3
:1005E000022BA1EB0C0100F00DB85FEAC17C24BF27
:1005F00000F8012B00F8012B48BF00F8012B7047D1
:100600004FF0000200B5134694469646203922BFAB
:10061000A0E80C50A0E80C50B1F12001BFF4F7AFF6
:10062000090728BFA0E80C5048BF0CC05DF804EBD8
:10063000890028BF40F8042B08BF704748BF20F846
:10064000022B11F0804F18BF00F8012B7047704744
:100650007047704770B5064C7C44064D7D4404E0FD
:100660002046016808448047241DAC42F8D170BD83
:100670009C0C0100A00C010010B500F0C3FA00684A
:1006800010BD10B5044600F0BDFA046010BD70B591
:10069000044685690068C10601D5302600E02026A1
:1006A000C00707D070BDD4E9012130469047206AC9
:1006B000401C20626D1EF6D570BD70B5044685697C
:1006C0000078C00707D170BDD4E9012120209047F0
:1006D000206A401C20626D1EF6D570BD09684A056F
:1006E00001D540B27047C905FCD500B27047096812
:1006F0004A0501D5C0B27047C905FCD580B2704724
:1007000070B50C460546012A05D02878800600D52C
:10071000EA69002302E0012305E05B1C934202D258
:10072000E05C0028F9D1A869E618C01AA861286A17
:10073000184428622846FFF7AAFF04E0D5E9012102
:1007400014F8010B9047B442F8D32846FFF7B5FFE1
:1007500070BD00002DE9F04106460024106875299F
:10076000314616A510D0FFF7B9FF002802DA404243
:1007700013A507E031688A0701D512A502E04907F1
:1007800004D511A5012401E0FFF7B1FF00210A22E1
:1007900006F1240709E0B0FBF2FCB0FBF2F302FB28
:1007A0001C00303078541846491C0028F3D12346E9
:1007B0002A463046BDE8F04100F06DBA0000000066
:1007C0002D0000002B0000002000000011680268CE
:1007D000006A530501D508700AE0D30501D50880E9
:1007E00006E0130603D5C217C1E9000200E0086065
:1007F0000120704701694A1C02610878704700B502
:100800008FB0CDE901310021059105497944CDE949
:1008100003101146684600F02DF90FB000BD00002E
:10082000E5FFFFFF0A6802F8010B0A60704700004D
:100830002DE9FF5F15468A460446DFF8AC80F84490
:100840000027D8E900103E46CDE9001010E03AF844
:1008500016106A4602A800F036FE411C07D0217827
:10086000890603D5E269391891420DD80744761CF0
:100870002078800602D5E069B84205DDAE42E6DBAD
:100880003AF816000028E2D1A069C01BA0612046FA
:10089000FFF7FDFED8E90010CDE90010002017E0B9
:1008A0003AF818106A4602A800F00DFEB0F1FF3FBA
:1008B00081460BD000250DF1080B05E0D4E901219C
:1008C0001BF8050090476D1C4D45F7D308F101005A
:1008D000B0428046E4DB206A384420622046FFF7BD
:1008E000ECFE00F003B800000E0201003FBCBDE8C2
:1008F000C09F00002DE9F0418046D21D22F0070282
:100900000025D2E90002F52915A614D0011E72F1C6
:10091000000106DA0023D0EB030063EB020211A60C
:1009200008E0D8F800108B0701D50FA602E04907B0
:1009300001D50EA601251146002408F1240704E084
:1009400000F064F930323A55641C50EA0102F7D1E4
:100950002B46324621464046BDE8F04100F09BB9A7
:10096000000000002D0000002B000000200000000F
:1009700030B4002100F1240408E002F00705D20899
:10098000303542EA4372DB086554491C52EA0305DC
:10099000F3D10468002310A2250708D504F0200431
:1009A0000C4304D0C46901230CA2641EC46130BC92
:1009B00000F071B910B5044621461068FFF797FEA4
:1009C00002462046BDE810400023D1E7D21D22F0A8
:1009D0000701D1E90023CBE7000000003000000050
:1009E000F0B40D460188090502D5214C7C4402E093
:1009F0001F4C7C440E34002100F1240608E002F074
:100A00000F071209E75D42EA03721B097754491C7C
:100A100052EA0307F3D102780023120704D5702DA0
:100A200006D009B1022311342246F0BC00F033B9DC
:100A300001231034F8E770B504460D4621461068CE
:100A4000FFF755FE024629462046BDE870400023C8
:100A5000C6E7D21D22F00703D3E90023C0E70368ED
:100A6000126843F0200303600823C3610023B7E743
:100A7000680001002DE9F05F894604464FF0000A46
:100A8000DFF874B1FB44C0F820A02046E168884735
:100A9000002874D0252806D0D4E901219047206A87
:100AA000401C2062F1E700265F462046E168884747
:100AB0002028054607DB312D05D2781910F8200CC7
:100AC00008B10643F1E7B00701D526F00406C4F8E3
:100AD0001CA00027C4F818A02A2D09D028460FF022
:100AE00079FC38B304EB8708303DC8F8185019E09A
:100AF00059F8041B204604EB87029161E16888479E
:100B0000012F054618D1E069002820DA26F02006DA
:100B10001DE0D8F8180000EB800005EB40003038ED
:100B2000C8F818002046E168884705460FF052FCD7
:100B30000028EED1012F0AD02E2D08D12046E168E1
:100B400088477F1C0546022F46F02006C4DBA069BB
:100B5000002803DA404246F00106A061F00701D008
:100B600026F010066C2D0BD0682D09D04C2D39D0F5
:100B70006A2D35D0742D35D07A2D33D016E038E07B
:100B8000E1682F4620468847B842054609D16C2FB8
:100B900026D04FF48060E16806432046884705462A
:100BA00004E06C2F1AD04FF4807006430DB3A5F10A
:100BB0004100192802D8203546F400664A462946E5
:100BC000204626604E46FFF71BFB80B101280BD064
:100BD000F61D26F0070000F1080956E74020E4E77B
:100BE0008020D8E70020D6E706F104094DE7284623
:100BF00052E7206A00F002B8F8FF000030BCBDE800
:100C0000C09F0000004870472800001030B5B0F1C8
:100C10000A0271F100034FEA900E4EEA817EB0EBBA
:100C20000E0061EB91014FEA101E4EEA017E10EBBF
:100C30000E0041EB11114FEA102E4EEA016E10EB3F
:100C40000E0041EB11214FEA104E4EEA014E10EB1F
:100C50000E0041EB1141401841F100014FEAD00074
:100C600040EA41704FEAD1014FEA810444EA9074AE
:100C700010EB800544EB01046D1944EB0404521B96
:100C8000A3414FF0000348BF0A3200D530BD401CDD
:100C900041F1000130BD2DE9F0470D4699469246DD
:100CA000044600F124080168880604D5E06921F0B3
:100CB0001001216000E00120A84201DD471B00E097
:100CC0000027A1697A1902EB0900081AA0612078AF
:100CD000C00602D42046FFF7DAFC002608E0D4E97B
:100CE00001211AF806009047206A401C761C2062F9
:100CF0004E45F4DB2078C0060AD52046FFF7C7FC36
:100D000006E0D4E9012130209047206A401C20628F
:100D1000381EA7F10107F4DC07E0D4E9012118F837
:100D200005009047206A401C2062281EA5F101059D
:100D3000F3DC2046FFF7C1FC2078000602D5022034
:100D4000BDE8F0870120FBE72DE9FF4F0C461E466A
:100D50004FF0FF378BB0D2E90001DDF860800A90D8
:100D60008A46C1F30A5505B93D46002108464FF0B1
:100D70000000BAF1000F00F4400005DA00EB80003B
:100D80004FF4400101EA50004FEA9059B9F1010FC8
:100D900000DDB9460A9850EA4A000ED044F61050D9
:100DA000A5F2FF3545432F14B8F1000F1ED0754250
:100DB000291E1EDDC9F100021CE0B8F1010F4FF041
:100DC000000001D0302103E0F24305E02154401C33
:100DD000B042FBDB30460022002121540B99C1F8C0
:100DE0000880C1E900200FB000F0BCB9BD1B6D1C2C
:100DF000DEE74A4600DA694206A800F0FFFB06ABD0
:100E000093E8070003AB83E8070050460A990EF009
:100E1000EBFC8DE80700A0F500501F380090039808
:100E2000002D0ADD42F21F014A460844002303A9AF
:100E3000039068460EF054FF09E0A0F500504A46C2
:100E40001F38002303A9039068460EF05EFF8DE86B
:100E500007000004000C03D04FF0FF30410800E011
:100E60001046B8F1000F03D00022009215461EE094
:100E7000751E05D4FFF7CAFE303262556D1EF9D5D6
:100E8000B3460122084302D000227F1C04E02078F0
:100E9000302801D100227F1E002A099784D01DE04E
:100EA000112D07DAFFF7B2FE303262556D1C50EAA1
:100EB0000102F5D1084302D00098C8B10EE000212C
:100EC000681E05E0235C625C63542254401E491C8A
:100ED0008142F7DBAB46A81B401E0990002004F8B6
:100EE0000B000B98099AC0F80880C0E9002B7AE73C
:100EF00011264FF0000857E72DE9F04F88460446C9
:100F0000D21D22F0070191B0D1E90001CDE90A011B
:100F10000FF032F802460B98C00F01D02D2007E0E9
:100F20002068810701D52B2002E0202101EAC000C2
:100F3000032A099001D0072A05DB034641462046D3
:100F400000F01CFB0BE12078800601D5E06900E091
:100F50000620B8F1650F814606D0B8F1660F18D0AB
:100F6000B8F1670F70D131E00020B9F1110F009096
:100F700001DB112301E009F101030AAA01A90CA870
:100F8000FFF7E2FEDDE90C70002609F1010583465A
:100F900047E001204B4600904FF000470AAA01A904
:100FA0000CA8FFF7D1FEDDE90DB00C995D460026D7
:100FB00010B909F101000D18B9EB050003D4C0F117
:100FC000FF3609F10105A5EB09002BE0B9F1010F8E
:100FD00001DA4FF001090020B9F1110F00904846E5
:100FE00001DD112300E003460AAA01A90CA8FFF7BE
:100FF000ABFEDDE90C704D460026834620780007E5
:101000000AD4AB4500DA5D4601A8012D04DD411983
:1010100011F8011C302907D04F4502DA17F1040FEF
:1010200004DA012082460FE06D1EEEE7002F02DC9D
:10103000ED1B3E4403E0781CA84200DD7D1CB81B7C
:1010400000F1010A4FF000472078000703D4AA45B9
:1010500001DB4FF0FF3A0021B7F1004F0DF14308DB
:101060008DF8431024D002202B23002F01DA7F4279
:101070002D230A21021EA0F1010000DC5FB197FBC5
:10108000F1FC97FBF1F201FB1C7C17460CF1300CD4
:1010900008F801CDEEE7A8F10100037021880905E9
:1010A00001D5452100E06521A0F1010800F8011CEF
:1010B00009980FA9A1EB0807FF1D00B101204119F4
:1010C00001EBEA70A1693844081A401EA06120783B
:1010D000C00602D42046FFF7DAFA099828B1D4E90D
:1010E00001219047206A401C20622078C00622D54A
:1010F0002046FFF7CCFA1EE0002E04DBB34502DDEC
:1011000001A8805D00E03020D4E901219047206AE9
:10111000401C2062761CAAF101005FEA000A0AD195
:1011200000F028FAC0680168405CD4E901219047CA
:10113000206A401C2062281EA5F10105DCDC07E0C6
:10114000D4E9012118F8010B9047206A401C206265
:10115000381EA7F10107F3DC2046FFF7AEFA0320A3
:1011600011B041E630BCBDE8C08F00002DE9F04F62
:1011700004460D46D21D22F0070089B0D0E9009741
:10118000484639460EF0F8FE0246F80F01D02D23EE
:1011900007E02068810701D52B2302E0202101EA26
:1011A000C0038DF820300BB1012000E00020032A9D
:1011B000824601D0072A04DB2946204600F0DEF9EA
:1011C0003FE12078800601D40D2500E0E569C7F3F2
:1011D0000A560D2D49DA00214FEA175B08464FF0F9
:1011E0000000002F00F4400007DA00EB80004FF40D
:1011F000400100EBD07001EA60008115012901DD9A
:101200004FF0FF3100224FEA850CBCF1180F06D3D6
:101210001346ACF118004FF08052C24003E04FF487
:10122000801323FA0CF30CF10C0CBCF1200F04D347
:10123000ACF1200C09FA0CF001E007FA0CF00029DF
:101240004FF0004801DD18B90FE00ED140450CD336
:1012500019EB02095F4121B9404502D19F4329EAB8
:101260000209BBEB175F00D0761C2088000502D571
:101270007B48784402E07A487844193808AA302339
:1012800002F80A30037C0AF10101002E0AF1020A79
:1012900053546A4602DC4FF0300101E04FF0310157
:1012A0004FF001088DF8001002D0A6F2FF3603E0DF
:1012B00059EA470100D06B4E002D02DC2178090766
:1012C00004D54FF002082E218DF80110C4460021EC
:1012D0000BE0C7F303433F01C35C491C6D1E02F8DA
:1012E0000830052908F1010801DA002DF1DC0021A0
:1012F0000CE000EB1973491C1B786D1E082902F8DD
:1013000008304FEA091908F1010801DA002DF0DC74
:1013100021688B0602D516E0A8F10108E04505DD3D
:1013200002EB080313F8013C302BF5D0B8F1000FA5
:1013300009DD02EB080313F8013C2E2B03D109074A
:1013400001D4A8F10108002D05DD3E2102F80810A6
:101350006D1E08F10108407C002E02F8080008F11B
:10136000010804DA2D20764202F8080002E02B2062
:1013700002F808000A214FF47A70864208F1010849
:101380000BDB96FBF0F3303302F8083096FBF0F3FA
:1013900008F1010800FB136601E0642E0CDB6420F9
:1013A00096FBF0F3303302F8083096FBF0F308F1C7
:1013B000010800FB136601E00A2E06DB96FBF1F044
:1013C000303002F8080008F1010896FBF1F001FB4B
:1013D0001060303002F80800A16908F1010808EB3C
:1013E000050202EB0A00081AA0612078C00602D4A8
:1013F0002046FFF74CF9216A08AE01EB0A00206293
:1014000004E0D4E9012116F8010B9047BAF1010A72
:10141000F7D22078C00602D52046FFF738F96E468D
:1014200009E016F8010B3E280FD0D4E901219047BE
:10143000206A401C2062B8F10108F2D22046FFF772
:101440003CF909B0032000F00FB8206A284420625C
:1014500003E0D4E90121302090476D1EEBD3F8E77B
:101460002EF8000002FCFFFF30BCBDE8C08F10B5B5
:10147000436913B1AFF3008001E0FFF741F90120A8
:1014800010BD127800F124010A7000224A70012276
:10149000EDE711684FF0FF32E9E710B5436913B18A
:1014A000AFF3008001E0FFF7C3F9012010BD1288FF
:1014B00000F1240182840022C2840122EDE7116838
:1014C0004FF0FF32E9E72DE9F04116460C4605469C
:1014D00000F048F8036893F80101012807D0FF2CB9
:1014E00012D8185D80B101202C70BDE8F081D3F8CE
:1014F00007013246214603F20713C7182846BC46A7
:10150000BDE8F041002360474FF0FF30EDE70000F9
:1015100000487047280000107546FFF7F9FFAE46F7
:1015200005006946534620F00700854618B020B5EF
:10153000FEF7E2FEBDE820404FF000064FF0000746
:101540004FF000084FF0000BAC46ACE8C009ACE827
:10155000C009ACE8C009ACE8C00921F007018D461C
:101560007047000010B500F005F8001D10BD00BF69
:10157000DDEE000000487047480000102DE9F04102
:101580001F46044603260168072A01F4006004DBB5
:1015900008B116A505E016A503E008B115A500E001
:1015A00015A521F010002060A069C01EA0610FB138
:1015B000401EA0612046FFF76AF84FB1D4E901212F
:1015C00038469047206A401C2062C01C206206E01A
:1015D000206AFAE7D4E9012115F8010B9047761E3D
:1015E000F8D22046FFF769F8BDE8F0814E414E0081
:1015F0006E616E00494E4600696E66002DE9F04747
:10160000814616468AB0354878440DC88DE80D00ED
:1016100032487844801C03AC0DC884E80D0041F6C4
:101620009B300844372190FBF1F290FBF1F5A5F1D6
:10163000800501FB12041B3C02D56442012000E03E
:101640000020DFF898A080460027FA44AAF1BE0ADD
:101650000EE0E0070AD03246684607EB4701012357
:101660000AEB81010EF051FB8DE8070064107F1C2E
:10167000002CEED1194F7F44AE3F19E0E80715D09A
:1016800007EB04100DF1180A90E80E008AE80E002E
:10169000C068F04201D1981908903246012306A98A
:1016A00003A80EF032FB03AB83E807006D10641C47
:1016B000002DE3D14FF0010332466946B8F1000F27
:1016C00003A802D00EF00CFB01E00EF01EFBC9E9EE
:1016D0000001C9F808200AB0BDE8F08728F500002D
:1016E00010B50446AFF300802046BDE81040FEF779
:1016F000EEBD00000000000030B44FF0013C50F897
:10170000042B51F8043BCCFA52F4D51A20D1FCB981
:1017100050F8042B51F8043BCCFA52F4D51A17D1E7
:10172000B4B950F8042B51F8043BCCFA52F4D51A52
:101730000ED16CB950F8042B51F8043BCCFA52F49A
:10174000D51A05D1002CDAD030BC4FF0000070471C
:1017500029BAB1FA81F111F01801D1F120008440C9
:10176000F2D1CA40CB4012F0FF0213F0FF0330BCAD
:10177000D01A704701491820ABBEFEE726000200D0
:101780007047000080B584B002900298006806F0AF
:1017900017FA00900298006806F01AFA00284BD059
:1017A000FFE70098002847D1FFE7029800688068AB
:1017B00000F00D00012809D1FFE70298006806F04B
:1017C00097F902980168032008600DE00299486DBE
:1017D00040F0100048650299886D40F0010088656E
:1017E00001208DF80F002BE002F0A8FC0190FFE72C
:1017F000029800688068C007E8B1FFE702F09EFC2D
:101800000199401A032815D3FFE702980068806801
:10181000C00770B1FFE70299486D40F010004865BD
:101820000299886D40F00100886501208DF80F0055
:1018300006E0FFE7DCE7FFE700208DF80F00FFE799
:101840009DF80F0004B080BD80B584B002900020E8
:1018500000900298006806F0BBF9002874D1FFE7F9
:101860000298006880683F21C8F2000108420ED04B
:10187000FFE70299486D40F0100048650299886DB5
:1018800040F00100886501208DF80F0060E00298AB
:10189000006806F047F940F20030C5F2040006F097
:1018A0005FF9000200281CD5FFE740F21400C1F2E6
:1018B00000000068800942F66351C0F23E51A0FB6F
:1018C0000110800900EB40010C2000EB810000902A
:1018D000FFE7009820B1FFE7009801380090F8E793
:1018E000FFE702F02BFC0190FFE702980068006818
:1018F000C00740BBFFE70298006806F069F928B905
:10190000FFE70298006806F00DF9FFE702F016FC09
:101910000199401A032815D3FFE702980068006870
:10192000C00770B9FFE70299486D40F010004865A4
:101930000299886D40F00100886501208DF80F0044
:1019400006E0FFE7D1E7FFE700208DF80F00FFE793
:101950009DF80F0004B080BD80B5A0B01F9000209E
:101960001B90ADF87A001D9064201A900CF0A0F93D
:1019700040F2B050C1F2000018907F21199100F0A0
:101980008BFB1A980CF094F91898199900F084FBC5
:101990001A980CF08DF91B98ADF87200FFE7BDF8AE
:1019A0007200B0F57A7F54DAFFE70A2010900CF04D
:1019B0007FF940F2B050C1F20000119001F056F9E9
:1019C00010980CF075F9119800F0BAFFADF87A0094
:1019D00040F20000C1F20000179000880EF023FED4
:1019E00041EC100B8DED120BBDF87A000EF01BFED2
:1019F00041EC100B9FED821B53EC112B51EC100BA3
:101A00000EF028FE9DED120B41EC110B8DED141B19
:101A10009FED7D1B53EC112B51EC100B0EF01AFEB9
:101A20009DED140B41EC110B51EC110B53EC102BF1
:101A30000EF022FD41EC100B51EC100B0EF0C4FD2A
:101A400017990880FFE7BDF872000130ADF8720009
:101A5000A5E70020ADF87000FFE7BDF87000B0F515
:101A60007A7F59DAFFE70A2008900CF021F940F25A
:101A7000B050C1F20000099001F0F8F808980CF09D
:101A800017F9099800F05CFFADF87A0040F2000009
:101A9000C1F200000F9000880EF0C5FD41EC100B64
:101AA0008DED0A0BBDF87A000EF0BDFD41EC100B78
:101AB0009FED531B53EC112B51EC100B0EF0CAFD94
:101AC0009DED0A0B41EC110B8DED0C1B9FED4E1B98
:101AD00053EC112B51EC100B0EF0BCFD9DED0C0BDB
:101AE00041EC110B51EC110B53EC102B0EF0C4FC1C
:101AF00041EC100B51EC100B0EF066FD01460F98F7
:101B0000018001881D9808441D90FFE7BDF8700012
:101B10000130ADF87000A0E71D9844F6D351C1F232
:101B20006201A0FB011080091D9047F2AA50C1F686
:101B3000FF70008800EE100AB8EEC00AB0EE081A76
:101B400020EE010A9DED1D1AB8EE411A80EE010A41
:101B500040F2A850C1F2000080ED000AFFE70A2021
:101B600000900CF0A5F840F2B050C1F200000190D6
:101B700001F07CF800980CF09BF8019800F0E0FE72
:101B8000ADF87A0040F20000C1F200000790008832
:101B90000EF049FD41EC100B8DED020BBDF87A0003
:101BA0000EF041FD41EC100B9FED151B53EC112B7A
:101BB00051EC100B0EF04EFD9DED020B41EC110BA4
:101BC0008DED041B9FED101B53EC112B51EC100BF2
:101BD0000EF040FD9DED040B41EC110B51EC110B8F
:101BE00053EC102B0EF048FC41EC100B51EC100B99
:101BF0000EF0EAFC07990880B1E700BF00BF00BF04
:101C00009A9999999999B93FCDCCCCCCCCCCEC3F51
:101C100080B582B0019042F210700CF049F808F0E3
:101C20008DF90DF0C3FA0090FFE7684602210CF031
:101C300077F840F28C02C1F2000202F1BC0002F11E
:101C40007001AC329FED020A08F048F8EDE700BFE2
:101C50000000000080B592B0119064200CF028F8CC
:101C600040F28C00C1F200000AF034F9FFE74FF4B3
:101C7000805009F063FF40F26810C1F20000006874
:101C80004FF0FF310DF042F840F28C00C1F200003D
:101C90001B210AF01FFA8DF843009DF8430000F065
:101CA000C0008DF843009DF8430008B9FFE7DEE768
:101CB0009DF8430040287ED0FFE70020ADF84000AB
:101CC0000F9040F28C00C1F20000069012210FAA82
:101CD00006230AF0E5F806989DF83C109DF83D2093
:101CE00041EA022109B200EE101AB8EEC00A8DEDE9
:101CF0000C0A9DF83E109DF83F2041EA022109B2EE
:101D000000EE101AB8EEC00A8DED0D0A9DF84010D5
:101D10009DF8412041EA022109B200EE101AB8EE06
:101D2000C00A8DED0E0A00F17C0100F188020392D9
:101D30000CA80490032305930AF0B4FC0398049ABA
:101D4000059B0699A0310AF0CFFC06999DED0C0A7F
:101D500091ED251A9FED3F3A21EE031A9FED3E2AA1
:101D600020EE020A30EE010A81ED2B0A9DED0D0AEC
:101D700091ED261A21EE031A20EE020A30EE010A36
:101D800081ED2C0A9DED0E0A91ED271A21EE031A22
:101D900020EE020A30EE010A81ED2D0AD1F8AC00E6
:101DA000C1F89400D1F8B000C1F89800D1F8B4009F
:101DB000C1F89C00FFE79DF84300802849D0FFE769
:101DC0000020ADF82C000A9040F28C00C1F2000017
:101DD00000900C210AAA06230AF062F800989DF8E8
:101DE00028109DF8292041EA022109B200EE101ABC
:101DF000B8EEC00A8DED070A9DF82A109DF82B2039
:101E000041EA022109B200EE101AB8EEC00A8DEDC7
:101E1000080A9DF82C109DF82D2041EA022109B2F4
:101E200000EE101AB8EEC00A8DED090A00F14C015F
:101E300000F15802019207A8032302930AF032FC32
:101E4000009A0198029B02F1640170320AF04CFC86
:101E5000FFE70CE73333333F9A99993E80B586B05C
:101E600005904FF4C8700BF023FF40F6DC00C1F280
:101E70000000002104F09EFD0DF098F90390FFE7AB
:101E80000020029003A828210BF04AFF40F28C00AA
:101E9000C1F20000019020210DF11202022309F08D
:101EA000FFFF01989DF812109DF8132041EA0221CE
:101EB000ADF81010BDF9101000EE101AB8EEC00AFF
:101EC0009FED201A80EE010AB3EE071A30EE010AE8
:101ED00080ED2E0A90ED2E0AB5EE400AF1EE10FAD2
:101EE00024D0FFE740F28C00C1F2000090ED2E0AF2
:101EF0009FED151AB4EE410AF1EE10FA04DAFFE78D
:101F00004FF42F7000900EE040F28C00C1F2000000
:101F100090ED2E0A10300AF0E3F9BCEEC00A10EE84
:101F2000100A0090FFE70098029002E00020029063
:101F3000FFE7029840F6DC01C1F20001096848633E
:101F40009EE700BF0000004400002642FFE7FEE7D6
:101F500080B540F21460C1F2000001F089F980BD43
:101F600080B540F21460C1F2000001F081F980BD3B
:101F700080B584B0039009F07DFD0DF017F9029053
:101F8000FFE702A801210BF0CBFE69460020486064
:101F900049F6BC20CFF6FF70086040F21460C1F231
:101FA000000040F2FF1141F2342245F2786309F05B
:101FB0001FFDE6E780B540F25C70C1F2000001F061
:101FC0009DFD80BD80B540F28460C1F2000001F04B
:101FD00095FD80BD80B540F23C60C1F2000001F08B
:101FE0008DFD80BD80B540F2CC60C1F2000001F0F3
:101FF00085FD80BD80B540F21470C1F2000001F093
:102000007DFD80BD7047000080B582B0012006F0E4
:10201000C5F880B1FFE70120009005F0FDFE0098B3
:1020200005F034FF40F27C10C1F20000006801A905
:102030000CF0DAFDFFE702B080BD000080B582B091
:102040004FF4006006F0AAF828B1FFE74FF40060F3
:1020500005F0E2FEFFE74FF4805006F09FF888B1EC
:10206000FFE74FF48050009005F0D6FE009805F091
:102070000DFF40F26810C1F20000006801A90CF0E9
:10208000B3FDFFE702B080BD81B0EFF3108072B600
:102090000090FFE7FEE7000080B586B00490039152
:1020A00000200190FFE7049890F85000012804D127
:1020B000FFE702208DF8170057E00499012081F80E
:1020C0005000FFE7FFE70498FFF75CFB8DF80B007B
:1020D0009DF80B00C0BBFFE70498406D40F0020084
:1020E00020F488500499486504980068039905F025
:1020F00037FEFFE70498006805F052FDD8B1FFE70E
:102100000198013001900198B0F5912F12D3FFE7AB
:102110000498406D40F0100020F0020004994865DA
:10212000FFE70499002081F85000FFE701208DF8B7
:1021300017001AE0DEE70498406D40F0010020F03F
:1021400002000499486505E00499486D40F01000CC
:102150004865FFE7FFE70499002081F85000FFE79A
:102160009DF80B008DF81700FFE79DF8170006B0EB
:1021700080BD000080B5C2B02290219100208DF872
:1021800083001D902198C0680021C4F27F0188421D
:1021900001D0FFE700E0FFE7FFE7229890F850004A
:1021A000012804D1FFE702208DF88F00C4E32299B3
:1021B000012081F85000FFE7FFE72298006805F052
:1021C00017FD002840F0A483FFE721984068052808
:1021D00022D8FFE721984068023801461A91032867
:1021E00015D81A99DFE801F002060A0E21990C2091
:1021F000486010E02199122048600CE021991820D5
:10220000486008E021994FF48070486003E021990C
:1022100006204860FFE7FFE72298006821990A68D6
:10222000496805F0EDFC2298006805F0E1FC1C907F
:102230002298006805F0ACFC1B901C98002840F028
:102240008B81FFE71B98002840F08681FFE72298EA
:102250000068219A1168926805F0FEFC2198406997
:1022600022990968C96801F01801890888401F90FF
:1022700021980069042809D0FFE722980068219975
:102280000A6809691F9B05F039FD64E1229800681E
:10229000002105F06DFC400348B9FFE72298006873
:1022A000002105F065FCC0F38460199018E02298C5
:1022B0000068002105F05CFC90FAA0F04090409886
:1022C00020B9FFE720208DF8070105E04098B0FA1B
:1022D00080F08DF80701FFE79DF807011990FFE7EF
:1022E0001998189021980068400330B9FFE72198A9
:1022F0000068C0F38460179015E02198006890FA98
:10230000A0F03E903E9820B9FFE720208DF8FF0016
:1023100005E03E98B0FA80F08DF8FF00FFE79DF8E9
:10232000FF001790FFE718981799884207D1FFE739
:10233000229800680022114605F0FEFCFFE7229873
:102340000068012105F014FC400348B9FFE722981A
:102350000068012105F00CFCC0F38460169018E0C1
:1023600022980068012105F003FC90FAA0F03C904F
:102370003C9820B9FFE720208DF8F70005E03C9855
:10238000B0FA80F08DF8F700FFE79DF8F70016909F
:10239000FFE71698159021980068400330B9FFE7D1
:1023A00021980068C0F38460149015E021980068BB
:1023B00090FAA0F03A903A9820B9FFE720208DF8E3
:1023C000EF0005E03A98B0FA80F08DF8EF00FFE7F3
:1023D0009DF8EF001490FFE715981499884207D1F3
:1023E000FFE7229800680121002205F0A5FCFFE725
:1023F00022980068022105F0BBFB400348B9FFE7C3
:1024000022980068022105F0B3FBC0F384601390AA
:1024100018E022980068022105F0AAFB90FAA0F0CB
:102420003890389820B9FFE720208DF8E70005E0C4
:102430003898B0FA80F08DF8E700FFE79DF8E700E4
:102440001390FFE71398129021980068400330B969
:10245000FFE721980068C0F38460119015E021988F
:10246000006890FAA0F03690369820B9FFE7202057
:102470008DF8DF0005E03698B0FA80F08DF8DF00C7
:10248000FFE79DF8DF001190FFE71298119988424D
:1024900007D1FFE7229800680221002205F04CFCDA
:1024A000FFE722980068032105F062FB400348B96A
:1024B000FFE722980068032105F05AFBC0F384600F
:1024C000109018E022980068032105F051FB90FA63
:1024D000A0F03490349820B9FFE720208DF8D70081
:1024E00005E03498B0FA80F08DF8D700FFE79DF84A
:1024F000D7001090FFE710980F90219800684003D4
:1025000030B9FFE721980068C0F384600E9015E0B1
:102510002198006890FAA0F03290329820B9FFE735
:1025200020208DF8CF0005E03298B0FA80F08DF8C9
:10253000CF00FFE79DF8CF000E90FFE70F980E99B0
:10254000884207D1FFE7229800680321002205F0A6
:10255000F3FBFFE7FFE7FFE72298006805F038FB91
:10256000002840F04481FFE722980068219A116812
:10257000D26805F08DFB2198C0680021C4F27F016C
:10258000884240F03381FFE7229800680D9021983F
:102590000068400330B9FFE721980068C0F3846009
:1025A0000C9015E02198006890FAA0F030903098D7
:1025B00020B9FFE720208DF8C70005E03098B0FA79
:1025C00080F08DF8C700FFE79DF8C7000C90FFE78B
:1025D0000C98013000F01F0009287DD8FFE72198F2
:1025E0000068400330B9FFE721980068C0F38460B9
:1025F0000B9015E02198006890FAA0F02E902E988C
:1026000020B9FFE720208DF8BF0005E02E98B0FA32
:1026100080F08DF8BF00FFE79DF8BF000B90FFE74B
:102620000B98013000F01F0080060A902198006886
:10263000400330B9FFE721980068C0F38460099037
:1026400015E02198006890FAA0F02C902C9820B901
:10265000FFE720208DF8B70005E02C98B0FA80F055
:102660008DF8B700FFE79DF8B7000990FFE70A98DB
:102670000999013101F01F0201219140084308909E
:1026800021980068400330B9FFE721980068C0F343
:102690008460079015E02198006890FAA0F02A90D5
:1026A0002A9820B9FFE720208DF8AF0005E02A988E
:1026B000B0FA80F08DF8AF00FFE79DF8AF0007900B
:1026C000FFE708980799013101F01F0101EB410173
:1026D00040EA0150069082E021980068400330B93A
:1026E000FFE721980068C0F38460059015E0219809
:1026F000006890FAA0F02890289820B9FFE72020E1
:102700008DF8A70005E02898B0FA80F08DF8A700B2
:10271000FFE79DF8A7000590FFE70598013000F05E
:102720001F008006049021980068400330B9FFE73D
:1027300021980068C0F38460039015E02198006838
:1027400090FAA0F02690269820B9FFE720208DF877
:102750009F0005E02698B0FA80F08DF89F00FFE713
:102760009DF89F000390FFE704980399013101F061
:102770001F02012191400843029021980068400304
:1027800030B9FFE721980068C0F38460019015E03C
:102790002198006890FAA0F02490249820B9FFE7CF
:1027A00020208DF8970005E02498B0FA80F08DF88D
:1027B0009700FFE79DF897000190FFE702990198C5
:1027C000013000F01F0000EB40020020CFF6206037
:1027D00000EB0250084340F000700690FFE70D98B0
:1027E0000699219A926805F037FAFFE7FFE72198EA
:1027F000408848F20801084200F08980FFE740F273
:102800000030C5F2040005F0ABF91E902198006875
:102810000021CCF25271884234D1FFE79DF87A0052
:10282000000600282ED4FFE7229800680021C5F298
:102830000401884225D1FFE71E9840F4000140F2D0
:102840000030C5F2040005F04BFA40F21400C1F26A
:1028500000000068800942F66351C0F23E51A0FBBF
:102860000110800900EB40010C2000EB81001D905D
:10287000FFE71D9820B1FFE71D9801381D90F8E78C
:10288000FFE743E0219800680021CCF684318842BC
:1028900018D1FFE79DF87B00C00798B9FFE72298A1
:1028A00000680021C5F2040188420AD1FFE71E98A2
:1028B00040F0807140F20030C5F2040005F010FADB
:1028C000FFE722E0219800680121C8F20001884258
:1028D00019D1FFE79DF87A004006002813D4FFE7DE
:1028E000229800680021C5F2040188420AD1FFE75E
:1028F0001E9840F4800140F20030C5F2040005F05B
:10290000EFF9FFE700E0FFE7FFE7FFE7FFE708E099
:102910002299486D40F02000486501208DF8830021
:10292000FFE7FFE72299002081F85000FFE79DF8BC
:1029300083008DF88F00FFE79DF88F0042B080BDC7
:1029400081B0009000980068006C01B070470000F2
:1029500080B588B0069000208DF817000290069888
:1029600020B9FFE701208DF81F003FE106980069BC
:1029700040B1FFE7069890F82000012801D1FFE759
:10298000FFE7FFE70698406D50B9FFE7069800F0B3
:1029900031F9069900208865069981F85000FFE713
:1029A0000698006805F004F928B1FFE7069800686A
:1029B00005F0ACF8FFE70698006805F011F9F0B9EA
:1029C000FFE70698006805F0BBF840F21400C1F27A
:1029D00000000068800942F66351C0F23E51A0FB3E
:1029E00001108109022000EB41000290FFE70298EC
:1029F00020B1FFE7029801380290F8E7FFE7069858
:102A0000006805F0EDF870B9FFE70699486D40F0F1
:102A1000100048650699886D40F001008865012026
:102A20008DF81700FFE70698006805F0E1F80390BD
:102A30000698406DC006002800F1CA80FFE70398A1
:102A4000002840F0C580FFE70698406D40F0020086
:102A500020F48070069948650698006805F0B8F87B
:102A600088B9FFE70020C5F2040005F0B1F848B9C5
:102A7000FFE70698416840F20030C5F2040005F017
:102A800021F9FFE7FFE706994A7E486B40EA4230AA
:102A90008A68CB681843104391F8201040EA01403F
:102AA0000490069890F8200001280BD1FFE70698C3
:102AB000416A0020CFF6FE7000EB414104980843C4
:102AC0000490FFE70698806A50B1FFE70699886A8C
:102AD000C96A00F470700143049808430490FFE74A
:102AE00006980068C0684CF20701CFF6F071084004
:102AF0000499084306990968C8600698006805F0BB
:102B000077F801900698006805F042F80090019867
:102B1000E8BBFFE70098D0BBFFE70699087E91F875
:102B20003010800340EA4100049006980068C068B5
:102B300044F2020188430499084306990968C86071
:102B4000069890F83800012819D1FFE70698006828
:102B5000006940F2FD7120EA0102069B1968D86BFA
:102B6000D3F840E0D3F844C040EA0E0040EA0C003D
:102B70009B6C1843104340F00100086106E0069882
:102B80000168086920F001000861FFE7FFE7069887
:102B9000006901280CD1FFE706980068006B20F05F
:102BA0000F00069A1168D269013A1043086306E0E3
:102BB00006980168086B20F00F000863FFE706988D
:102BC000406D40F0010020F002000699486508E0E1
:102BD0000699486D40F01000486501208DF81700F7
:102BE000FFE79DF817008DF81F00FFE79DF81F0015
:102BF00008B080BD80B59AB0199002A85C21FDF79D
:102C0000FFFC199800680021C5F2040188422BD10D
:102C1000FFE74FF4804002904FF080501690032061
:102C2000039002200490102105910721069107903E
:102C300008904FF08070099002A801F071FE18B161
:102C4000FFE7FFF721FAFFE7FFE741F24C00C4F28C
:102C50000200016841F400510160006800F4005076
:102C600001900198FFE7FFE71AB080BD80B584B0FE
:102C700002900298006804F0BBFF00285AD1FFE7D9
:102C8000FFE7029890F85000012804D1FFE70220E6
:102C90008DF80F0057E00299012081F85000FFE7FE
:102CA000FFE70298FEF7D0FD8DF807009DF80700BA
:102CB000C0BBFFE70298406D40F4807040F60161B0
:102CC0008843029948650298406DC004002806D5E3
:102CD000FFE70299886D20F00600886503E00299FD
:102CE00000208865FFE7029801681C200860FFE764
:102CF0000299002081F85000FFE702980068C06840
:102D00008001002809D5FFE70298406D40F480500B
:102D100020F4005002994865FFE70298006804F02B
:102D20008DFF06E0FFE70299002081F85000FFE7E1
:102D3000FFE703E002208DF80700FFE79DF807009A
:102D40008DF80F00FFE79DF80F0004B080BD000074
:102D500084B002900191029890F820008DF8030051
:102D60009DF80300012805D0FFE79DF80300022825
:102D70000AD1FFE7019A0298016848691043486147
:102D800000208DF80F0008E00299486A40F4802086
:102D9000486201208DF80F00FFE79DF80F0004B096
:102DA0007047000088B0069005910492039306983E
:102DB00090F820008DF80700069800688068009061
:102DC0000598806808B9FFE700E0FFE79DF8070075
:102DD000012806D0FFE79DF80700022840F0808018
:102DE000FFE79DF80300400700280CD4FFE79DF89B
:102DF00003000007002806D4FFE79DF80300C00683
:102E0000002864D5FFE70098C0F3016002900299A2
:102E100001208840039908600598806868B9FFE739
:102E200005980168C06840EA415006990968029A0D
:102E300001EB0211C1F880010EE005994A6888682B
:102E4000C96840EAC200084306990968029A01EB82
:102E50000211C1F88001FFE7059800690699096829
:102E6000029A01EB0211C1F884010598007D012846
:102E70000CD1FFE706980068029900EB0111D1F828
:102E8000840140F48070C1F88401FFE70498406831
:102E900006990968029A01EB0211C1F88C010498A5
:102EA000006806990968029A01EB0211C1F88801CD
:102EB00006980068029900EB0111D1F8800140F0FA
:102EC0000100C1F8800100208DF81F0011E0069973
:102ED000486A40F40010486201208DF81F0008E0A5
:102EE0000699486A40F48020486201208DF81F004E
:102EF000FFE79DF81F0008B07047000086B00490FF
:102F00000391049800680190049890F820008DF8CF
:102F100003009DF80300012806D0FFE79DF8030099
:102F2000022840F09B80FFE70199D1F8000240F0B1
:102F30000100C1F800020398406900F01F01012060
:102F400088400290029A0199D1F81C029043C1F87E
:102F50001C020398C069F0B9FFE7029A0199D1F801
:102F60000C029043C1F80C02039A9088D168526910
:102F700040EA0140019901EBC201C1F84002039A05
:102F800010889168526940EA0140019901EBC20141
:102F9000C1F84402FFE70398C06901281ED1FFE78A
:102FA000029A0199D1F80C021043C1F80C02039A5D
:102FB00090881168526940EA0140019901EBC20111
:102FC000C1F84002039A90899168526940EA014031
:102FD000019901EBC201C1F84402FFE7039880693F
:102FE00040B9FFE7029A0199D1F804029043C1F871
:102FF000040207E0029A0199D1F804021043C1F8D3
:103000000402FFE70398006940B9FFE7029A0199BB
:10301000D1F814029043C1F8140207E0029A019912
:10302000D1F814021043C1F81402FFE70398006AB4
:10303000012808D1FFE7029A0199D1F81C02104338
:10304000C1F81C02FFE70199D1F8000220F001004D
:10305000C1F8000200208DF8170008E00499486AC2
:1030600040F48020486201208DF81700FFE79DF8AA
:10307000170006B07047000081B0009001B07047A3
:1030800086B00490039102920193049890F8200076
:103090008DF803009DF80300012806D0FFE79DF896
:1030A0000300022840F0D780FFE7039880B9FFE7CC
:1030B00004980068C068800748B9FFE70499486A27
:1030C00040F40010486201208DF81700CCE00FE0BA
:1030D000049800680069800748B9FFE70499486AC6
:1030E00040F40010486201208DF81700BCE0FFE7B3
:1030F00004980068039900EB0110D0F8B00100F0CB
:103100000400029988600298806858B9FFE7049823
:103110000068039900EB0110D0F8B001400D02994E
:1031200008600AE004980068039900EB0110D0F8E9
:10313000B001C00802994860FFE70498006803994D
:1031400000EB0110D0F8B00100F002000299C86055
:1031500004980068039900EB0110D0F8B40100F066
:103160000F000299086104980068039900EB0110B0
:10317000D0F8B40180B2000A02998861049800680E
:10318000039900EB0110D0F8B401000C02994861DA
:1031900004980068039900EB0110D0F8B801019978
:1031A000087004980068039900EB0110D0F8B8018A
:1031B000000A0199487004980068039900EB011017
:1031C000D0F8B801000C0199887004980068039940
:1031D00000EB0110D0F8B801000E0199C8700498F6
:1031E0000068039900EB0110D0F8BC010199087147
:1031F00004980068039900EB0110D0F8BC01000AA4
:103200000199487104980068039900EB0110D0F807
:10321000BC01000C0199887104980068039900EBC7
:103220000110D0F8BC01000E0199C871039838B99B
:10323000FFE704980168C86840F02000C86006E015
:1032400004980168086940F020000861FFE7002049
:103250008DF8170008E00499486A40F4802048621D
:1032600001208DF81700FFE79DF8170006B07047A2
:1032700080B58AB0099000200890099800684069DC
:10328000079009980068406806900998006880686F
:10329000059009980068C068049009980068006962
:1032A000039009980068806902909DF81C00C0078F
:1032B000002800F09480FFE79DF81400C00758B381
:1032C000FFE709980168012088609DF814008007D5
:1032D000002804D5FFE7099800F07AFB1BE09DF871
:1032E00014004007002805D5FFE7089840F4006067
:1032F00008900FE09DF814000007002805D5FFE7AF
:10330000089840F48050089003E0099800F05CFBB6
:10331000FFE7FFE7FFE7FFE79DF81500C00760B391
:10332000FFE7099801684FF4807088609DF81500E8
:103330008007002804D5FFE7099800F051FB1BE047
:103340009DF815004007002805D5FFE7089840F4D0
:10335000005008900FE09DF815000007002805D5E3
:10336000FFE7089840F48040089003E0099800F0D7
:1033700033FBFFE7FFE7FFE7FFE79DF81600C00715
:1033800060B3FFE7099801684FF4803088609DF8CA
:1033900016008007002804D5FFE7099800F028FBF5
:1033A0001BE09DF816004007002805D5FFE70898A8
:1033B00040F4004008900FE09DF816000007002838
:1033C00005D5FFE7089840F48030089003E009989D
:1033D00000F00AFBFFE7FFE7FFE7FFE7FFE79DF8E5
:1033E0001C000007002810D5FFE79DF81000C0065C
:1033F000002809D5FFE7089840F400700890099864
:1034000001681020C860FFE7FFE79DF81C00400737
:1034100000280FD5FFE79DF810000007002808D509
:10342000FFE7099801680820C860099800F064FA6D
:10343000FFE7FFE79DF81C00800700280BD5FFE79A
:1034400009980068C068800720B1FFE7099800F07C
:1034500057FAFFE7FFE79DF81C004006002810D54B
:10346000FFE79DF80C00C006002809D5FFE7089883
:1034700040F4806008900998016810200861FFE717
:10348000FFE79DF81C00800600280FD5FFE79DF898
:103490000C000007002808D5FFE7099801680820FC
:1034A0000861099800F03EFAFFE7FFE79DF81C006D
:1034B000C00600280BD5FFE709980068006980075F
:1034C00020B1FFE7099800F031FAFFE7FFE79DF828
:1034D0001E00800700280FD5FFE79DF81800C006E2
:1034E000002808D5FFE7099801681020486009986E
:1034F00000F020FAFFE7FFE79DF81E00C00778B153
:10350000FFE79DF818000007002808D5FFE7099895
:10351000016808204860099800F06EFAFFE7FFE7AD
:103520009DF81D000006002840F18D80FFE79DF802
:1035300018004007002840F18180FFE79DF81D003A
:10354000C00750B1FFE79DF80800C00728B1FFE7AA
:10355000089840F001000890FFE79DF81D008007E3
:1035600000280BD5FFE79DF808008007002805D547
:10357000FFE7089840F002000890FFE79DF81D0063
:10358000400700280BD5FFE79DF8080040070028FA
:1035900005D5FFE7089840F004000890FFE79DF884
:1035A0001D000007002848D5FFE79DF8080010F02F
:1035B000700F42D0FFE7029800F0700001460191C1
:1035C000102814D0FFE70198202815D0FFE70198B4
:1035D000302816D0FFE70198402817D0FFE7019860
:1035E000502818D0FFE70198602819D01DE00898EE
:1035F00040F00800089019E0089840F0100008908A
:1036000014E0089840F0200008900FE0089840F07F
:10361000400008900AE0089840F08000089005E01B
:10362000089840F48070089000E0FFE7099801686E
:10363000886920F070008861FFE7FFE7099801685A
:1036400004204860FFE7089848B1FFE7089A099905
:10365000486A104348620998FFF70EFDFFE70AB079
:1036600080BD000080B584B00290029820B9FFE7C9
:1036700001208DF80F00E0E0029890F8200020B9BA
:10368000FFE7029800F0DEF8FFE70298016808689B
:1036900040F00100086000F051FD0190FFE7029842
:1036A00000684068C007A8B9FFE700F047FD01992E
:1036B000401A0B280DD3FFE70299486A40F4003006
:1036C00048620299052081F8200001208DF80F0042
:1036D000B3E0E4E702980168086820F0020008609F
:1036E00000F02CFD0190FFE7029800684068800719
:1036F000002815D5FFE700F021FD0199401A0B289D
:103700000DD3FFE70299486A40F4003048620299FD
:10371000052081F8200001208DF80F008DE0E3E7FF
:103720000298007E012807D1FFE702980168086827
:1037300040F08000086006E002980168086820F008
:1037400080000860FFE70298407E012807D1FFE76C
:1037500002980168086840F04000086006E002989E
:103760000168086820F040000860FFE70298807E4A
:10377000012807D1FFE702980168086840F020009F
:10378000086006E002980168086820F020000860E0
:10379000FFE70298C07E012807D1FFE70298016881
:1037A000086820F01000086006E0029801680868C8
:1037B00040F010000860FFE70298007F012807D161
:1037C000FFE702980168086840F00800086006E01A
:1037D00002980168086820F008000860FFE7029876
:1037E000407F012807D1FFE702980168086840F090
:1037F0000400086006E002980168086820F00400F0
:103800000860FFE7029B19685A689868D3F80CC0F3
:1038100040EA0C00D3F810C040EA0C005B69184382
:10382000013A1043C861029900204862029A0121BE
:1038300082F820108DF80F00FFE79DF80F0004B00C
:1038400080BD000080B58CB00B9000200A900990DC
:103850000890079006900B98006846F20041C4F269
:103860000001884245D1FFE7FFE741F25800C4F26A
:103870000200016841F000710160006800F0007012
:1038800005900598FFE7FFE741F24C00C4F2020003
:10389000016841F002010160006800F0020004903C
:1038A0000498FFE74FF44070069002200790002034
:1038B000029008900320099009200A9040F20040ED
:1038C000C4F6000006A900F07DFA029A14200090C8
:1038D0000521019100F088FF009800F07BFF01991D
:1038E000029A1520039000F07FFF039800F072FF0A
:1038F000FFE70CB080BD000081B0009001B07047C0
:1039000080B58CB00B900B98002104AA02ABFFF796
:10391000B7FB0498B0F5027F01D1FFE700E0FFE7B5
:103920000CB080BD81B0009001B0704781B00090B4
:1039300001B0704781B0009001B0704780B584B08D
:103940000290029890F8200001282FD1FFE70299F9
:10395000022081F8200002980168086820F0010028
:10396000086000F0EBFB0190FFE7029800684068F8
:10397000C007A8B1FFE700F0E1FB0199401A0B284E
:103980000DD3FFE70299486A40F40030486202997B
:10399000052081F8200001208DF80F000FE0E4E7FA
:1039A0000299002048628DF80F0008E00299486AE9
:1039B00040F40020486201208DF80F00FFE79DF8D9
:1039C0000F0004B080BD000081B0009001B07047CE
:1039D00081B0009001B0704781B0009001B0704795
:1039E00081B0009001B0704781B0009001B0704785
:1039F00081B0009001B0704781B0009001B0704775
:103A000083B0019000208DF80300019890F8250004
:103A100002280DD0FFE701990420C863FFE7019950
:103A2000002081F82400FFE701208DF80B0022E040
:103A300001980168086820F00E000860019801688C
:103A4000086820F0010008600198026C406C00F0EA
:103A50001C01012000FA01F15160019981F8250053
:103A6000FFE70199002081F82400FFE79DF803009B
:103A70008DF80B00FFE79DF80B0003B070470000C6
:103A800080B582B0019000208DF80300019890F875
:103A90002500022807D0FFE701990420C863012010
:103AA0008DF8030026E001980168086820F00E00F8
:103AB000086001980168086820F00100086001981A
:103AC000026C406C00F01C01012000FA01F1516011
:103AD000019981F82500FFE70199002081F8240071
:103AE000FFE70198806B20B1FFE70198816B884761
:103AF000FFE7FFE79DF8030002B080BD80B584B00A
:103B000003900398006C00680290039800680068B6
:103B1000019002980399496C01F01C01C8404007CC
:103B2000002825D5FFE79DF80400400700281FD591
:103B3000FFE70398006800688006002807D4FFE7C5
:103B400003980168086820F004000860FFE7039804
:103B5000016C406C00F01C02042090404860039807
:103B6000006B20B1FFE70398016B8847FFE76EE029
:103B700002980399496C01F01C01C8408007002895
:103B80002FD5FFE79DF804008007002829D5FFE71F
:103B9000039800680068800600280BD4FFE70398AC
:103BA0000168086820F00A0008600399012081F884
:103BB0002500FFE70398016C406C00F01C02022016
:103BC00090404860FFE70399002081F82400FFE758
:103BD0000398C06A20B1FFE70398C16A8847FFE7EE
:103BE00034E002980399496C01F01C01C8400007B9
:103BF000002829D5FFE79DF804000007002823D5F9
:103C0000FFE703980168086820F00E000860039839
:103C1000026C406C00F01C01012000FA01F15160BF
:103C20000399C863039981F82500FFE703990020F1
:103C300081F82400FFE70398406B20B1FFE7039869
:103C4000416B8847FFE700E0FFE7FFE7FFE704B0CD
:103C500080BD000083B00190019820B9FFE70120EA
:103C60008DF80B00AAE00198006840F20741C4F209
:103C70000201884218D8FFE7019908684FF6F872E8
:103C8000CBF6FD7210444CF6CD42CCF6CC42A0FBF4
:103C900002026FF0030000EA9200486401990020DC
:103CA000C4F20200086418E0019908684FF6F8327F
:103CB000CBF6FD7210444CF6CD42CCF6CC42A0FBC4
:103CC00002026FF0030000EA92004864019940F29A
:103CD0000040C4F202000864FFE70199022081F865
:103CE00025000198006800680090009847F6F07180
:103CF0008843009001998868D1F80CC00B694A6923
:103D000040EA0C00184310438A691043CA69104303
:103D1000096A0143009808430090009801990968D6
:103D2000086001988068B0F5804F3AD0FFE70198AD
:103D3000006C0021C4F20201884218D1FFE701980B
:103D4000406C00F01C010F2000FA01F2A821C4F21F
:103D50000201086890430860019A5068526C02F0B2
:103D60001C0200FA02F208681043086018E001988B
:103D7000406C00F01C010F2000FA01F240F2A84153
:103D8000C4F20201086890430860019A5068526CBE
:103D900002F01C0200FA02F2086810430860FFE714
:103DA000FFE701990020C863019A012182F82510DC
:103DB000019981F824008DF80B00FFE79DF80B00B6
:103DC00003B070478AB00990089100200790FFE780
:103DD000089800680799C840002800F09781FFE71D
:103DE00008980068079A01219140084006900698BB
:103DF000002800F08781FFE70898406800F0030082
:103E0000012807D0FFE70898406800F00300022867
:103E10002FD1FFE70998806805900798410003209B
:103E200000FA01F10598884305900898C068079941
:103E3000490000FA01F10598084305900598099991
:103E400088600998406805900799012000FA01F1FF
:103E500005988843059008984068C0F300100799BA
:103E600000FA01F105980843059005980999486002
:103E7000FFE70898406800F00300032818D0FFE728
:103E80000998C068059007984100032000FA01F1E5
:103E9000059888430590089880680799490000FABA
:103EA00001F105980843059005980999C860FFE756
:103EB0000898406800F00300022826D1FFE709981F
:103EC00007996FF0030202EA51010844006A059065
:103ED000079800F0070081000F2000FA01F1059813
:103EE0008843059008980069079901F00701890047
:103EF00000FA01F105980843059005980999079B78
:103F000002EA530211440862FFE70998006805902D
:103F100007984100032000FA01F1059888430590B5
:103F20000898406800F003000799490000FA01F181
:103F300005980843059005980999086008988079C4
:103F40008007002800F0DD80FFE7FFE741F2600016
:103F5000C4F20200016841F001010160006800F054
:103F6000010004900498FFE7079820F0030008215F
:103F7000C4F2010140580590079800F00300810049
:103F80000F2000FA01F10598884305900998B0F1D7
:103F9000904F03D1FFE70020039034E0099840F2EE
:103FA0000041C4F60001884203D1FFE701200290DE
:103FB00026E0099840F60001C4F60001884203D1CA
:103FC000FFE70220019018E0099840F60041C4F68E
:103FD0000001884203D1FFE7032000900AE009991D
:103FE00041F20002C4F600020720914208BF0420FB
:103FF0000090FFE700980190FFE701980290FFE72B
:1040000002980390FFE70398079901F003018900E4
:1040100000FA01F10598084305900598079921F0E9
:1040200003010822C4F20102885040F20840C4F2A1
:104030000100006805900699059888430590089846
:104040008079C006002805D5FFE706990598084342
:104050000590FFE7059840F20841C4F201010860AD
:1040600040F20C40C4F201000068059006990598E2
:1040700088430590089880798006002805D5FFE7D9
:104080000699059808430590FFE7059840F20C4112
:10409000C4F20101086040F20440C4F2010000686B
:1040A00005900699059888430590089880798007BF
:1040B000002805D5FFE70699059808430590FFE716
:1040C000059840F20441C4F20101086040F200404A
:1040D000C4F2010000680590069905988843059090
:1040E00008988079C00728B1FFE70699059808432A
:1040F0000590FFE7059840F20041C4F20101086015
:10410000FFE7FFE707980130079061E60AB07047C4
:1041100082B00190ADF802108DF801209DF80100E9
:1041200028B1FFE7BDF802000199886104E0BDF8FD
:10413000020001998862FFE702B0704740F608402C
:10414000C1F200000068704783B0019000910198AF
:1041500090F8410020283BD1FFE7FFE7019890F855
:104160004000012804D1FFE702208DF80B0033E066
:104170000199012081F84000FFE7FFE70199242021
:1041800081F8410001980168086820F0010008608A
:1041900001980168086820F480500860009A01982E
:1041A000016808681043086001980168086840F0D9
:1041B000010008600199202081F84100FFE7019982
:1041C000002081F84000FFE700208DF80B0003E09D
:1041D00002208DF80B00FFE79DF80B0003B070473D
:1041E00084B002900191029890F84100202840D1BB
:1041F000FFE7FFE7029890F84000012804D1FFE7AD
:1042000002208DF80F0038E00299012081F840006B
:10421000FFE7FFE70299242081F841000298016836
:10422000086820F0010008600298006800680090AB
:10423000009820F4706000900199009840EA0120F5
:10424000009000980299096808600298016808685F
:1042500040F0010008600299202081F84100FFE74A
:104260000299002081F84000FFE700208DF80F0040
:1042700003E002208DF80F00FFE79DF80F0004B067
:104280007047000080B582B00090009820B9FFE729
:1042900001208DF8070073E0009890F8410040B9C4
:1042A000FFE70099002081F84000009800F07AF9BB
:1042B000FFE70099242081F8410000980168086810
:1042C00020F00100086000980168406820F07060EC
:1042D000086100980168886820F4004088600098B0
:1042E000C068012807D1FFE700980168806840F4A2
:1042F0000040886006E000980168806840F404404F
:104300008860FFE70098C068022806D1FFE70098A0
:1043100001684FF400604860FFE700980168486852
:1043200048F20002C0F20022104348600098016881
:10433000C86820F40040C860009A11681069536989
:104340009269184340EA0220C860009A1168D06957
:10435000126A1043086000980168086840F0010084
:104360000860009900204864009A202182F84110DA
:1043700000990863009981F842008DF80700FFE773
:104380009DF8070002B080BD80B588B0DDF828C078
:104390000690ADF816100492ADF80E30069890F81D
:1043A0004100202840F0F580FFE7FFE7069890F8ED
:1043B0004000012804D1FFE702208DF81F00ECE047
:1043C0000699012081F84000FFE7FFE7FFF7B6FEFE
:1043D0000290069802996A4611604FF4004101224A
:1043E000192303F07BFA20B1FFE701208DF81F00AD
:1043F000D3E00699212081F841000699102081F828
:1044000042000699002048640499069A5162BDF85A
:104410000E10069A5185069948630698408DB0F5AE
:10442000807F14D3FFE70699FF2008850698BDF822
:10443000161090F82820EC4642F20003C8F2000360
:10444000CCF800304FF0807303F01EFA14E00698A9
:10445000408D069908850698BDF8161090F828201A
:10446000EC4642F20003C8F20003CCF800304FF0F3
:10447000007303F009FAFFE7FFE70698408D002874
:104480005ED0FFE706980A99029A03F0B5FA20B1C8
:10449000FFE701208DF81F007FE006980168406A61
:1044A000007888620699486A013048620699488D0A
:1044B000013848850699088D013808850698408D91
:1044C000E8B3FFE70698008DC8BBFFE706980A9B94
:1044D00002996A4611608021002203F0FFF920B1A1
:1044E000FFE701208DF81F0057E00698408DB0F5DA
:1044F000807F11D3FFE70699FF2008850698BDF855
:10450000161090F82820EC460023CCF800304FF02D
:10451000807303F0B9F911E00698408D069908857B
:104520000698BDF8161090F82820EC460023CCF829
:1045300000304FF0007303F0A7F9FFE7FFE79CE7B7
:1045400006980A99029A03F011FA20B1FFE70120B8
:104550008DF81F0021E0069801682020C8610699A7
:104560000A6851684EF60003CFF6006319405160A7
:10457000069981F841000699002081F84200FFE782
:104580000699002081F84000FFE700208DF81F0009
:1045900003E002208DF81F00FFE79DF81F0008B020
:1045A00080BD000080B5A0B01F9000201E901D901F
:1045B0001C901B901A9003A85C21FCF721F81F980F
:1045C000006845F60041C4F2000188423CD1FFE793
:1045D0004FF4807003900020119003A800F0A0F920
:1045E00018B1FFE7FDF750FDFFE7FFE741F24C0090
:1045F000C4F20200016841F004010160006800F0AB
:10460000040002900298FFE703201A9012211B91E8
:1046100000211C911D9004201E9040F60000C4F65D
:1046200000001AA9FFF7CEFBFFE741F25800C4F2E1
:104630000200016841F400010160006800F400001C
:1046400001900198FFE7FFE720B080BD40F21C0019
:10465000C1F20000027840F60841C1F2000108688A
:10466000104408607047000080B582B000208DF8CB
:104670000700032000F0D2F80F2000F00DF820B161
:10468000FFE701208DF8070002E000F07BF8FFE76C
:104690009DF8070002B080BD80B58CB00B90002063
:1046A0008DF80700FFE741F25800C4F202000168EC
:1046B00041F020010160006800F0200000900098A7
:1046C000FFE706A802A900F0D5FC09980490049819
:1046D00020B9FFE700F0FEFC059004E000F0FAFCD2
:1046E00040000590FFE705984DF68361C4F21B3149
:1046F000A0FB01014FF0FF3000EB9140039040F62A
:104700007410C1F2000041F20041C4F200010160E6
:1047100040F2E731C160039941600021016181608D
:10472000816101F0E3FB8DF807009DF8070028BBCD
:10473000FFE740F67410C1F2000001F0B7FC8DF8FD
:1047400007009DF80700C0B9FFE7372000F042F8E6
:104750000B980F280CD8FFE70B993720002200F0A8
:1047600043F80B9840F22001C1F20001086003E019
:1047700001208DF80700FFE7FFE7FFE79DF807003E
:104780000CB080BD80B582B0FFE741F26000C4F29A
:104790000200016841F001010160006800F00100C1
:1047A00001900198FFE7FFE741F25800C4F20200D0
:1047B000016841F080510160006800F08050009075
:1047C0000098FFE76FF001000F21002200F00CF8C5
:1047D00002B080BD80B582B08DF807009DF907005A
:1047E00007F0A4FE02B080BD80B586B08DF817003A
:1047F000049103920020029007F0B8FE02909DF908
:104800001700019002980499039A04F0F3FF0146FF
:10481000019807F0D5FE06B080BD000080B582B0DB
:104820000190019807F0EEFE02B080BD84B00290C6
:104830000298B0F5007F4DD1FFE747F20000C4F2C7
:104840000000006800F4C060B0F5007F41D0FFE7D1
:1048500047F20002C4F200021168012060F34A210D
:10486000116040F21401C1F2000109683222514383
:104870004DF68362C4F21B32A1FB022100EB914092
:104880000190FFE747F21400C4F200000168002025
:1048900049050029009006D5FFE70198002818BFB8
:1048A00001200090FFE70098C00720B1FFE70198C2
:1048B00001380190E6E747F21400C4F200000068F6
:1048C0004005002804D5FFE703208DF80F001BE00A
:1048D000FFE715E047F20000C4F20000006800F4B2
:1048E000C060B0F5806F0AD0FFE747F20001C4F264
:1048F00000010868022262F34A200860FFE7FFE730
:1049000000208DF80F00FFE79DF80F0004B07047FE
:1049100047F20000C4F20000006800F4C060704775
:1049200080B586B0059000208DF80B008DF80A0048
:1049300005984078000700283BD5FFE70598406CB4
:10494000009098B1FFE70098B0F5000F05D0FFE7A1
:104950000098B0F5400F11D011E041F20C01C4F203
:104960000201086840F4803008600CE005980430CB
:10497000002105F0EFFA8DF80B0004E003E00120C0
:104980008DF80B00FFE79DF80B0060B9FFE741F2DF
:104990008801C4F20201086820F44000059A526CB4
:1049A0001043086004E09DF80B008DF80A00FFE753
:1049B000FFE7059880788007002840F1B580FFE781
:1049C00000208DF8090041F25800C4F2020000688E
:1049D000C000002813D4FFE7FFE741F25800C4F2FB
:1049E0000200016841F080510160006800F08050D1
:1049F00001900198FFE701208DF80900FFE747F2D9
:104A00000001C4F20001086840F480700860FFF7FC
:104A100095FB0390FFE747F20000C4F20000006836
:104A2000C00500280CD4FFE7FFF788FB0399401A64
:104A3000032804D3FFE703208DF80B0000E0EAE72A
:104A40009DF80B0000285BD1FFE741F29000C4F213
:104A50000200006800F4407004900498C8B1FFE7B9
:104A600004980599896D884213D0FFE741F29001BF
:104A7000C4F20201086820F440700490086840F411
:104A800080300860086820F480300860049808606E
:104A9000FFE79DF81000C007E0B1FFE7FFF74EFB0E
:104AA0000390FFE741F29000C4F202000068800723
:104AB00000280ED4FFE7FFF741FB0399401A41F2AB
:104AC0008931884204D3FFE703208DF80B0000E012
:104AD000E8E7FFE79DF80B0060B9FFE741F29001BE
:104AE000C4F20201086820F44070059A926D1043E8
:104AF000086004E09DF80B008DF80A00FFE704E071
:104B00009DF80B008DF80A00FFE79DF809000128C9
:104B100009D1FFE741F25801C4F20201086820F010
:104B200080500860FFE7FFE705980078C00760B194
:104B3000FFE741F28801C4F20201086820F0030097
:104B4000059A126A10430860FFE70598007880070D
:104B500000280CD5FFE741F28801C4F20201086881
:104B600020F00C00059A526A10430860FFE7059890
:104B70000078400700280CD5FFE741F28801C4F215
:104B80000201086820F03000059A926A104308601C
:104B9000FFE705980078800600280CD5FFE741F272
:104BA0008801C4F20201086820F44060059AD26AC4
:104BB00010430860FFE705984078800700280CD56F
:104BC000FFE741F28801C4F20201086820F44020A6
:104BD000059AD26B10430860FFE7059840784007BC
:104BE00000280CD5FFE741F28801C4F202010868F1
:104BF00020F44010059A126C10430860FFE70598F6
:104C00000078400600280CD5FFE741F28801C4F285
:104C10000201086820F44050059A126B10430860A6
:104C2000FFE705980078000600280CD5FFE741F261
:104C30008801C4F20201086820F44040059A526BD2
:104C400010430860FFE705984078C00760B1FFE7B0
:104C500041F28801C4F20201086820F44030059A4C
:104C6000926B10430860FFE70598807800070028E2
:104C700034D5FFE741F28801C4F20201086820F050
:104C80004060059A926C104308600598806CB0F102
:104C9000006F09D1FFE741F20C01C4F2020108687C
:104CA00040F48010086018E00598806CB0F1806FC7
:104CB00011D1FFE705980430012105F04BF98DF87B
:104CC0000B009DF80B0028B1FFE79DF80B008DF855
:104CD0000A00FFE700E0FFE7FFE7FFE705988078BD
:104CE0004007002834D5FFE741F28801C4F20201F1
:104CF000086820F04060059AD26C1043086005985F
:104D0000C06CB0F1006F09D1FFE741F20C01C4F2B1
:104D10000201086840F48010086018E00598C06C33
:104D2000B0F1806F11D1FFE705980430012105F043
:104D300011F98DF80B009DF80B0028B1FFE79DF8E5
:104D40000B008DF80A00FFE700E0FFE7FFE7FFE751
:104D5000059840784006002823D5FFE741F28801F6
:104D6000C4F20201086820F04050059A126D104309
:104D700008600598006DB0F1805F11D1FFE70598DC
:104D80000430022105F0E6F88DF80B009DF80B00C9
:104D900028B1FFE79DF80B008DF80A00FFE7FFE759
:104DA000FFE705984078000600280CD5FFE741F2A0
:104DB0008801C4F20201086820F08040059A526D13
:104DC00010430860FFE79DF80A0006B080BD0000B0
:104DD00080B586B004900391049820B9FFE70120C4
:104DE0008DF8170041E1039842F20001C4F202017C
:104DF000096801F00701884216D9FFE742F2000076
:104E0000C4F20200016821F00701039A1143016016
:104E1000006800F007000399884204D0FFE70120F2
:104E20008DF8170021E1FFE704980078800700283B
:104E300019D5FFE70498806841F20801C4F2020125
:104E4000096801F0F00188420CD9FFE741F208013E
:104E5000C4F20201086820F0F000049A926810433E
:104E60000860FFE7FFE704980078C007002873D0C8
:104E7000FFE70498406803280ED1FFE741F20000E5
:104E8000C4F2020000688001002804D4FFE701207A
:104E90008DF81700E9E034E00498406802280ED14C
:104EA000FFE741F20000C4F202000068800300281E
:104EB00004D4FFE701208DF81700D6E020E0049825
:104EC000406870B9FFE741F20000C4F202000068D8
:104ED0008007002804D4FFE701208DF81700C4E004
:104EE0000DE041F20000C4F2020000684005002815
:104EF00004D4FFE701208DF81700B6E0FFE7FFE7D5
:104F0000FFE741F20801C4F20201086820F0030043
:104F1000049A526810430860FFF710F90290FFE707
:104F200041F20800C4F20200006800F00C0004998D
:104F30004968B0EB810F0ED0FFE7FFF7FFF8029949
:104F4000401A41F28931884204D3FFE703208DF8EB
:104F500017008AE0E4E7FFE704980078800700285C
:104F600019D5FFE70498806841F20801C4F20201F4
:104F7000096801F0F00188420CD2FFE741F2080114
:104F8000C4F20201086820F0F000049A926810430D
:104F90000860FFE7FFE7039842F20001C4F2020154
:104FA000096801F00701884216D2FFE742F20000CB
:104FB000C4F20200016821F00701039A1143016065
:104FC000006800F007000399884204D0FFE7012041
:104FD0008DF8170049E0FFE70498007840070028A3
:104FE0000CD5FFE741F20801C4F20201086820F481
:104FF000E060049AD26810430860FFE704980078E4
:10500000000700280DD5FFE741F20801C4F20201B4
:10501000086820F46050049A126940EAC2000860EF
:10502000FFE700F07FF841F20801C4F202010968CD
:10503000C9B20A0940F6BC41C0F60101895C01F021
:105040001F01C84040F21401C1F20001086040F2A3
:105050002000C1F200000068FFF71EFB8DF807007A
:105060009DF807008DF81700FFE79DF8170006B0C0
:1050700080BD000082B00190009101990F2008606E
:1050800041F20800C4F20200016801F00301019A34
:105090005160016801F0F001019A9160016801F42A
:1050A000E061019AD160006800F46050C008019985
:1050B000086142F20000C4F20200006800F007003C
:1050C0000099086002B0704740F21400C1F200007D
:1050D0000068704780B5FFF7F7FF41F20801C4F29E
:1050E00002010968C1F3022240F6CC41C0F6010179
:1050F000895C01F01F01C84080BD000080B5FFF74A
:10510000E3FF41F20801C4F202010968C1F3C222BF
:1051100040F6CC41C0F60101895C01F01F01C84096
:1051200080BD000089B000200890079041F208007F
:10513000C4F20200006800F00C00029041F20C0082
:10514000C4F20200006800F003000190029840B130
:10515000FFE702980C282ED1FFE7019801282AD1F9
:10516000FFE741F20000C4F20200006800070028D7
:1051700009D4FFE741F29400C4F202000068C0F3D2
:105180000320089008E041F20000C4F20200006829
:10519000C0B200090890FFE7089941F2D400C0F6B8
:1051A000010050F821000890029818B9FFE708980C
:1051B0000790FFE716E00298042806D1FFE742F2C5
:1051C0000040C0F2F40007900BE00298082806D1D6
:1051D000FFE741F20020C0F27A00079000E0FFE70D
:1051E000FFE7FFE702980C2846D1FFE741F20C00E9
:1051F000C4F20200006800F00300059005980090DA
:10520000012814D0FFE70098022804D0FFE7009897
:10521000032806D00CE042F20040C0F2F4000690F1
:1052200009E041F20020C0F27A00069003E0FFE7B7
:1052300008980690FFE741F20C00C4F202000168F2
:1052400001F07002012101EB12110391069902682D
:10525000C2F306225143039AB1FBF2F106910068B2
:1052600000F0C061022000EB1160049006980499E0
:10527000B0FBF1F00790FFE7079809B07047000016
:10528000B0B58AB00890089828B9FFE701208DF8DA
:10529000270000F021BD41F20800C4F202000068BE
:1052A00000F00C00059041F20C00C4F2020000680E
:1052B00000F00300049008980078C006002840F130
:1052C0002E81FFE7059850B1FFE705980C2840F0C4
:1052D000BD80FFE70498012840F0B880FFE741F265
:1052E0000000C4F2020000688007002809D5FFE72B
:1052F0000898806928B9FFE701208DF8270000F0A1
:10530000EBBC0898006A019041F20000C4F2020070
:1053100000680007002809D5FFE741F20000C4F249
:105320000200006800F0F000009009E041F29400F3
:10533000C4F20200006800F4706000090090FFE70A
:1053400001980099884229D9FFE70898006A04F07B
:1053500041FF28B1FFE701208DF8270000F0BCBC19
:10536000FFE741F20001C4F20201086840F00800C2
:105370000860086820F0F000089A126A104308607C
:10538000FFE741F20401C4F20201086820F47F4003
:10539000089AD26940EA022008602CE0FFE741F257
:1053A0000001C4F20201086840F0080008600868C3
:1053B00020F0F000089A126A10430860FFE741F2FB
:1053C0000401C4F20201086820F47F40089AD269FF
:1053D00040EA02200860059860B9FFE70898006A73
:1053E00004F0F8FE28B1FFE701208DF8270000F057
:1053F00073BCFFE7FFE7FFF795FE41F20801C4F237
:1054000002010968C9B20A0940F6BC41C0F60101AF
:10541000895C01F01F01C84040F21401C1F2000193
:10542000086040F22000C1F200000068FFF734F984
:105430008DF81B009DF81B0030B1FFE79DF81B00A5
:105440008DF8270000F048BCFFE767E00898806906
:10545000002840D0FFE741F20001C4F202010868D1
:1054600040F001000860FEF769FE0790FFE741F297
:105470000000C4F202000068800700280DD4FFE796
:10548000FEF75CFE0799401A032805D3FFE70320C7
:105490008DF8270000F020BCE9E7FFE741F20001AA
:1054A000C4F20201086840F008000860086820F0B3
:1054B000F000089A126A10430860FFE741F2040105
:1054C000C4F20201086820F47F40089AD26940EAD9
:1054D0000220086021E041F20001C4F202010868E4
:1054E00020F001000860FEF729FE0790FFE741F277
:1054F0000000C4F202000068800700280CD5FFE716
:10550000FEF71CFE0799401A032804D3FFE7032087
:105510008DF82700E0E3EAE7FFE7FFE7FFE70898F9
:105520000078C007002800F08B80FFE70598082866
:1055300008D0FFE705980C2816D1FFE70498032848
:1055400012D1FFE741F20000C4F2020000688003BC
:10555000002808D5FFE70898406820B9FFE7012038
:105560008DF82700B8E36AE0FFE708984068B0F5D7
:10557000803F09D1FFE741F20001C4F2020108684F
:1055800040F48030086020E008984068B0F5A02F13
:105590000DD1FFE741F20001C4F20201086840F4B6
:1055A00080200860086840F4803008600CE041F218
:1055B0000001C4F20201086820F480300860086825
:1055C00020F480200860FFE7FFE7FFE708984068C5
:1055D000D0B1FFE7FEF7B2FD0790FFE741F2000010
:1055E000C4F202000068800300280CD4FFE7FEF735
:1055F000A5FD0799401A652804D3FFE703208DF81D
:10560000270069E3EAE719E0FEF798FD0790FFE756
:1056100041F20000C4F202000068800300280CD5AB
:10562000FFE7FEF78BFD0799401A652804D3FFE7D3
:1056300003208DF827004FE3EAE7FFE7FFE7FFE7E6
:10564000089800788007002840F18280FFE70598DD
:10565000042808D0FFE705980C2823D1FFE7049819
:1056600002281FD1FFE741F20000C4F202000068E7
:105670004005002808D5FFE70898C06820B9FFE773
:1056800001208DF8270027E341F20401C4F2020152
:10569000086820F0F850089A126940EA0260086031
:1056A000FFE754E00898C06870B3FFE741F20001DB
:1056B000C4F20201086840F480700860FEF73EFD05
:1056C0000790FFE741F20000C4F2020000684005C5
:1056D00000280CD4FFE7FEF731FD0799401A032894
:1056E00004D3FFE703208DF82700F5E2EAE741F253
:1056F0000401C4F20201086820F0F850089A126907
:1057000040EA0260086021E041F20001C4F20201B7
:10571000086820F480700860FEF710FD0790FFE72E
:1057200041F20000C4F202000068400500280CD5D8
:10573000FFE7FEF703FD0799401A032804D3FFE7AC
:1057400003208DF82700C7E2EAE7FFE7FFE7FFE75E
:10575000089800780007002849D5FFE708984069B5
:1057600010B3FFE741F29401C4F20201086840F06F
:1057700001000860FEF7E2FC0790FFE741F29400A9
:10578000C4F202000068800700280CD4FFE7FEF78F
:10579000D5FC0799401A032804D3FFE703208DF8AE
:1057A000270099E2EAE721E041F29401C4F2020104
:1057B000086820F001000860FEF7C0FC0790FFE7D2
:1057C00041F29400C4F202000068800700280CD562
:1057D000FFE7FEF7B3FC0799401A032804D3FFE75D
:1057E00003208DF8270077E2EAE7FFE7FFE7089854
:1057F00000784007002840F1C680FFE700208DF8C0
:105800000F0041F25800C4F202000068C0000028F6
:1058100013D4FFE7FFE741F25800C4F20200016829
:1058200041F080510160006800F0805002900298C1
:10583000FFE701208DF80F00FFE747F20000C4F2F8
:1058400000000068C005002822D4FFE747F20001ED
:10585000C4F20001086840F480700860FEF76EFC36
:105860000790FFE747F20000C4F200000068C0059F
:1058700000280CD4FFE7FEF761FC0799401A0328C3
:1058800004D3FFE703208DF8270025E2EAE7FFE7CE
:10589000FFE708988068012809D1FFE741F29001ED
:1058A000C4F20201086840F0010008601FE0089897
:1058B000806805280DD1FFE741F29001C4F2020192
:1058C000086840F004000860086840F001000860C3
:1058D0000CE041F29001C4F20201086820F00100DE
:1058E0000860086820F004000860FFE7FFE7FFE7B2
:1058F00008988068E0B1FFE7FEF720FC0790FFE71B
:1059000041F29000C4F202000068800700280ED423
:10591000FFE7FEF713FC0799401A41F289318842EC
:1059200004D3FFE703208DF82700D5E1E8E71BE06B
:10593000FEF704FC0790FFE741F29000C4F202007A
:105940000068800700280ED5FFE7FEF7F7FB0799F0
:10595000401A41F28931884204D3FFE703208DF8D1
:105960002700B9E1E8E7FFE79DF80F00012809D11A
:10597000FFE741F25801C4F20201086820F08050AC
:105980000860FFE7FFE7089800788006002849D5FF
:10599000FFE70898406A10B3FFE741F29801C4F2AC
:1059A0000201086840F001000860FEF7C7FB07909D
:1059B000FFE741F29800C4F2020000688007002867
:1059C0000CD4FFE7FEF7BAFB0799401A032804D36B
:1059D000FFE703208DF827007EE1EAE721E041F2AE
:1059E0009801C4F20201086820F001000860FEF787
:1059F000A5FB0790FFE741F29800C4F2020000689F
:105A0000800700280CD5FFE7FEF798FB0799401A9E
:105A1000032804D3FFE703208DF827005CE1EAE7C1
:105A2000FFE7FFE70898806A002800F05181FFE750
:105A30000898806A022840F01481FFE741F20C00C8
:105A4000C4F2020000680490049800F00300089972
:105A5000C96A88423CD1FFE7049800F070000899B9
:105A60000A6B6FF00F0101EB0211884230D1FFE7A2
:105A7000049800F4FE400899496BB0EB012F27D140
:105A8000FFE7049800F078400899896BB0EBC16F8C
:105A90001ED1FFE7049800F4C0000899CA6B0021EA
:105AA000CFF6E07101EA0251A1F5001188420FD151
:105AB000FFE7049800F0C06008990A6C4FF07E413F
:105AC00001EA026101F17E41884200F09580FFE722
:105AD00005980C2800F08B80FFE741F20000C4F22B
