:020000040800F2
:10000000181000103D020008054C0008493E000889
:10001000014C0008B90A0008E5560008000000007D
:10002000000000000000000000000000B14E0008C9
:10003000110B000800000000114C000825500008BA
:10004000570200085702000857020008570200082C
:100050005702000857020008150B00085702000855
:10006000570200085702000857020008570200080C
:1000700057020008D50A0008E10A0008ED0A000846
:10008000F90A0008050B000857020008570200088B
:10009000BD0A0008C90A00085702000857020008F4
:1000A00057020008570200085702000857020008CC
:1000B000570200080000000000000000570200087E
:1000C00057020008570200085702000857020008AC
:1000D000570200085702000857020008D9560008C6
:1000E000490B000857020008000000000000000053
:1000F0000000000000000000000000000000000000
:10010000000000005702000800000000570200082D
:10011000000000000000000069500008895000083D
:10012000570200085702000857020008570200084B
:10013000570200080000000000000000000000005E
:10014000570200085702000857020008000000008C
:10015000570200085702000857020008570200081B
:10016000570200085702000857020008000000006C
:1001700057020008570200080000000000000000BD
:1001800057020008570200085702000800F002F862
:1001900000F044F80AA090E8000C82448344AAF1DD
:1001A0000107DA4501D100F039F8AFF2090EBAE8DB
:1001B0000F0013F0010F18BFFB1A43F0010318479B
:1001C000B4850000E4850000103A24BF78C878C1E7
:1001D000FAD8520724BF30C830C144BF04680C604D
:1001E000704700000023002400250026103A28BF95
:1001F00078C1FBD8520728BF30C148BF0B60704799
:10020000752900F02581632900F0F58200207047F0
:100210001FB508F000FA1FBD10B510BD00F0FCFAC4
:100220001146FFF7F5FF05F013FF00F01AFB03B4CA
:10023000FFF7F2FF03BC00F01DFB000009488047F8
:1002400009480047FEE7FEE7FEE7FEE7FEE7FEE7B8
:10025000FEE7FEE7FEE7FEE704480549054A064BD0
:1002600070470000555000088D010008180A001062
:1002700018100010180C0010180C001053EA020C93
:1002800000F069802DE9F04B4FF00006002B1FBFF6
:10029000B3FA83F503FA05F424FA05F65E4012BFBB
:1002A0001643B2FA82F502FA05F4C5F120051EBF25
:1002B00022FA05FC44EA0C04203556EA044C4FEAC5
:1002C000144418BF641C4FF000084FF0000990421E
:1002D00071EB030C39D3002919BFB1FA81F701FA88
:1002E00007F6B0FA80F700FA07F6C7F120071EBF3D
:1002F00020FA07FC46EA0C062037B6FBF4FCA7EB15
:100300000507103F07F01F0BCBF120062CFA06F66D
:100310000CFA0BFB44BFB3460026202FA4BF5E4659
:100320004FF0000B5BEA060C08BF4FF0010B19EB16
:100330000B0948EB0608ABFB027C06FB02CC0BFB6F
:1003400003CCC01B71EB0C01C1E70B4602464146D2
:100350004846BDE8F08B13B5084318BF4FF0FF3097
:100360000146AFF30080BDE81C4070470FB41CB5D8
:10037000074B06AA7B4469460090059800F019FADD
:100380000020694600F028FA1CBC5DF814FB000050
:10039000610400002DE9F0410E4604460020206271
:1003A0002046E168884730B3252805D0D4E90121EB
:1003B0009047206A401CF2E7E16820460027884702
:1003C000050018D0A5F14100192802D820354FF4B6
:1003D00000673246294620462760FFF711FF40B1EB
:1003E000012804D0F61D26F007060836D8E7361D8A
:1003F000D6E72846DAE7206ABDE8F08170B50C46FA
:100400000546012A05D02878800600D5EA69002330
:1004100002E0012305E05B1C934202D2E05C00286D
:10042000F9D1A869E618C01AA861286A1844286298
:100430002846AFF3008004E0D5E9012114F8010B50
:100440009047B442F8D32846AFF3008070BD000057
:100450002DE9F0410646002410687529314616A59D
:1004600010D0AFF30080002802DA404213A507E065
:1004700031688A0701D512A502E0490704D511A504
:10048000012401E0AFF3008000210A2206F12407D5
:1004900009E0B0FBF2FCB0FBF2F302FB1C003030D1
:1004A00078541846491C0028F3D123462A46304682
:1004B000BDE8F04100F01EB9000000002D00000072
:1004C0002B0000002000000040EA0103024630B586
:1004D0009B0710D14FF0013400E008C208C91D1B72
:1004E0009D4315EAC41FF8D013F0FF0102F8011B69
:1004F0000DD01B0AF8E711F8013B002B02F8013B75
:1005000005D011F8013B002B02F8013BF3D130BDBF
:1005100010B5431C02E010F8011B71B18107FAD13C
:100520004FF0013202C88C1A8C4314EAC211F9D080
:10053000C01A0A0603D0C01E10BDC01A10BD0A049E
:1005400001D0801E10BD0902FCD0401E10BD032A40
:1005500040F2308010F0030C00F0158011F8013BE0
:10056000BCF1020F624498BF11F801CB00F8013BC7
:1005700038BF11F8013BA2F1040298BF00F801CB8B
:1005800038BF00F8013B11F0030300F02580083A62
:10059000C0F0088051F8043B083A51F804CBA0E8B9
:1005A0000810F5E7121D5CBF51F8043B40F8043B0E
:1005B000AFF30080D20724BF11F8013B11F801CB43
:1005C00048BF11F8012B24BF00F8013B00F801CB14
:1005D00048BF00F8012B704710B5203AC0F00B80DF
:1005E000B1E81850A0E81850B1E81850A0E8185029
:1005F000203ABFF4F5AF5FEA027C24BFB1E818509F
:10060000A0E8185044BF18C918C0BDE810405FEA00
:10061000827C24BF51F8043B40F8043B08BF70477C
:10062000D20728BF31F8023B48BF11F8012B28BF81
:1006300020F8023B48BF00F8012B704702F0FF038F
:1006400043EA032242EA024200F00AB802F0FF0342
:1006500043EA032242EA024200F024B84FF00002CB
:100660000429C0F0128010F0030C00F01B80CCF1C4
:10067000040CBCF1020F18BF00F8012BA8BF20F832
:10068000022BA1EB0C0100F00DB85FEAC17C24BF86
:1006900000F8012B00F8012B48BF00F8012B704730
:1006A0004FF0000200B5134694469646203922BF0B
:1006B000A0E80C50A0E80C50B1F12001BFF4F7AF56
:1006C000090728BFA0E80C5048BF0CC05DF804EB38
:1006D000890028BF40F8042B08BF704748BF20F8A6
:1006E000022B11F0804F18BF00F8012B70477047A4
:1006F000704770472DE9F0470D46994692460446EB
:1007000000F124080168880604D5E06921F0100191
:10071000216000E00120A84201DD471B00E0002726
:10072000A1697A1902EB0900081AA0612078C006B5
:1007300002D42046AFF30080002608E0D4E901216E
:100740001AF806009047206A401C761C20624E452D
:10075000F4DB2078C0060AD52046AFF3008006E01F
:10076000D4E9012130209047206A401C2062381EC5
:10077000A7F10107F4DC07E0D4E9012118F805002E
:100780009047206A401C2062281EA5F10105F3DC79
:100790002046AFF300802078000602D50220BDE895
:1007A000F0870120FBE7000001694A1C026108781C
:1007B000704700B58FB0CDE90131002105910549A1
:1007C0007944CDE9031011466846FFF7E3FD0FB009
:1007D00000BD0000E5FFFFFF0A6802F8010B0A6098
:1007E000704710B5436913B1AFF3008001E0FFF724
:1007F00005FE012010BD127800F124010A700022CC
:100800004A700122EDE711684FF0FF32E9E700007E
:1008100000487047980000107546FFF7F9FFAE4694
:1008200005006946534620F00700854618B020B5FC
:10083000FFF712FDBDE820404FF000064FF0000723
:100840004FF000084FF0000BAC46ACE8C009ACE834
:10085000C009ACE8C009ACE8C00921F007018D4629
:10086000704710B50446AFF300802046BDE8104045
:10087000FFF7DDBC01491820ABBEFEE726000200F1
:10088000704700008AB040F200486420C4F20108BA
:1008900006F0BAFC40F20804C1F20004204605F05C
:1008A000D5F904F11400049004F12000039004F140
:1008B0002C0040F2AC16029004F138009FED628AE1
:1008C0009FED629AC1F2000600270DF12009019008
:1008D00004F14400009033E02046ADF824700897FE
:1008E00005F0D4F820460C2106224B4604F000FF08
:1008F000204604F0F9FEBDF92000BDF9221000EEFB
:10090000100AB8EEC00ABDF924208DED050A00EEEC
:10091000101AB8EEC00ADDE903518DED060A00EEAB
:10092000102AB8EEC00A05A82A4603238DED070A4F
:1009300005F0AEFADDE901212846032305F00EFBA0
:10094000D8F800004FF0FF3140F48050C8F80000A4
:10095000306807F0B9FA204605F098F820461B21C8
:1009600004F0BCFF8346204604F0BEFE1BF0C00529
:10097000E6D0402DB0D02046ADF82470089705F0A1
:1009800085F82046122106224B4604F0B1FE20468F
:1009900004F0AAFEBDF92000BDF9221000EE100AF5
:1009A000B8EEC00ABDF924208DED050A00EE101A3C
:1009B000B8EEC00A8DED060A00EE102A374604F1A3
:1009C00050060DF1140A0099B8EEC00A504632469E
:1009D00003238DED070A05F05BFA04F16801304648
:1009E000524603233E46002705F0B8FA9DED050A5E
:1009F00094ED173A9DED061A94ED184A9DED072ADD
:100A000020EE080A94ED195A23EE093A33EE000A53
:100A100021EE081A24EE093A33EE011A22EE082AD2
:100A200025EE093A33EE022A802D84ED1D0A84ED6D
:100A30001E1A84ED1F2A84ED170A84ED181A84ED1E
:100A4000192A3FF47DAF47E79A99993E3333333FF4
:100A500082B04FF47A7006F0D7FB07F0F1FB40F25A
:100A600008059FED148A6C46C1F200050DF10606DB
:100A7000B3EE079A009000BF2046282106F014FC30
:100A8000284605F003F8284620210222334604F0C8
:100A90002FFE284604F028FEBDF9060000EE100ADD
:100AA000B8EEC00A20EE080A30EE090A85ED200AE9
:100AB000E2E700BF0000003BFEE7000040F2EC1060
:100AC000C1F2000000F06AB840F2EC10C1F2000080
:100AD00000F064B840F23430C1F2000000F0C0BA57
:100AE00040F25C20C1F2000000F0BABA40F21420DB
:100AF000C1F2000000F0B4BA40F2A420C1F200003C
:100B000000F0AEBA40F2EC20C1F2000000F0A8BA4A
:100B10007047000080B582B040F20040C4F201008E
:100B20004169C9070DD001214161016821F001012E
:100B3000016040F2A410C1F20000006801A907F0B2
:100B40005FF902B080BD000080B582B040F2144071
:100B5000C4F201000168090544BF4FF4006101605F
:100B60000168C90410D54FF48051016050F8141C7D
:100B700021F4805140F8141C40F2AC10C1F2000086
:100B8000006801A907F03CF902B080BDEFF31080C6
:100B900072B600BFFEE70000704700002DE9F04F7D
:100BA00081B0044600684669D0F804908768D0F8A0
:100BB0000CB0D0F810A0D0F81880F10704D10025AF
:100BC00030071DD424E000BFF90710D00121BA0777
:100BD000816009D4780700F1AF80380700F1B68052
:100BE000204600F0DDF902E0204600F0DBF90025A8
:100BF000F80500F18780F80300F1B180300707D5D0
:100C00001BF0100004D0206845F400751021C1606D
:100C1000700708D51BF0080005D020680821C160C6
:100C2000204600F0B3F9B00706D52068C0688007F9
:100C300002D0204600F0ACF9700607D51AF010007B
:100C400004D0206845F4806510210161B00608D504
:100C50001AF0080005D0206808210161204600F044
:100C600099F9F00606D520680069800702D0204671
:100C700000F092F9B00308D519F0100005D02068F3
:100C800010214160204600F089F9F00308D519F0E1
:100C9000080005D0206808214160204600F08CF94A
:100CA000300440F19B805FEA497040F1948006F483
:100CB000807008EA102028435FEA8871014648BF27
:100CC00041F00201B20558BF01465FEA48700D4687
:100CD00048BF45F00405700558BF0D46300540F18A
:100CE0007A8018F0700000F076801038000905282E
:100CF0006CD8DFE800F003595D61656945F00805CF
:100D000064E000BF20684FF48071BA0581600BD4A5
:100D1000780515D438051DD4204600F045F9F803B0
:100D20007FF56CAF1BE000BF204600F03FF9F803F1
:100D30007FF564AF13E000BF4FF4006558E700BFD4
:100D400005F50055F8037FF559AF08E04FF48055DD
:100D50004EE700BF05F58045F8037FF54FAF2068EB
:100D60004FF48031BA0381600AD4780310D4380379
:100D700014D4204600F01CF930073FF541AF47E797
:100D8000204600F017F930073FF53AAF40E700BFC3
:100D900005F5004530073FF533AF39E705F58035F8
:100DA00030073FF52DAF33E745F010050EE000BFEB
:100DB00045F020050AE000BF45F0400506E000BF11
:100DC00045F0800502E000BF45F480752068816928
:100DD00021F07001816120680421416055B1606A91
:100DE00040EA05012046616201B000F006B8FFF755
:100DF000D3BE00BF01B000F005B830BCBDE8C04FA5
:100E0000FFF7F5BF30BCBDE8C08F0000B0B5C8B17A
:100E1000044690F8200010B9204600F071F82068D0
:100E2000016841F00101016000F0CCFA054600BF05
:100E300020684168C90707D100F0C4FA401B0B289D
:100E4000F6D312E00120B0BD016821F0020101607B
:100E500000F0B8FA054600BF2068416889070DD543
:100E600000F0B0FA401B0B28F6D3606A052140F46D
:100E700000306062012084F82010B0BD217E02683D
:100E8000012922F0800208BF80320260617E026880
:100E9000012922F0400208BF40320260A17E0268B0
:100EA000012922F0200208BF20320260E17E0268A0
:100EB000012922F0100218BF10320260217F02685F
:100EC000012922F0080208BF08320260617F02682F
:100ED000012922F0040208BF04320260D4E901C2F1
:100EE000D4E9033561691A432A431143ACF1010285
:100EF0001143C16100200121606284F82010B0BD5F
:100F000080B586B0006846F20041C4F20001884214
:100F100002D006B080BD00BF41F24C00C4F2020016
:100F2000C16841F00071C160C16801F000710191B8
:100F30000199016841F002010160006801A900F017
:100F40000200019001984FF440700190022002903D
:100F500000200390032004900920059040F20040F7
:100F6000C4F6000000F038F914200521002200F03A
:100F7000B9FB142000F0A6FB15200521002200F08B
:100F8000B1FB152000F09EFB06B080BD704700004D
:100F90007047000070470000704700007047000075
:100FA0007047000070470000704700007047000065
:100FB000704700007047000070470000014690F83D
:100FC0002500022818D10868D1E910C3026822F070
:100FD0000E020260026822F00102026003F01C00AF
:100FE000012202FA00F0CCF80400002081F825204C
:100FF000002281F8242070470420C86301200022C9
:1010000081F824207047000080B590F8251002294F
:1010100022D10168D0F838E0D0E910C30A68BEF1E7
:10102000000F22F00E020A600A6822F001020A6034
:1010300003F01C014FF0010202FA01F1CCF8041098
:101040004FF0000180F8252080F8241001D0F047EF
:101050000021084680BD00BF0421C163012080BD7E
:10106000B0B5D0E910C30268DCF8001003F01C032F
:101070000424D2F800E09C400C4218BF1EF0040586
:1010800022D102249C400C4218BF1EF0020529D137
:10109000D940090724D51EF0080108BFB0BD11686A
:1010A00021F00E011160012101FA03F2CCF80420B5
:1010B000C16380F82510416B002280F8242079B1AB
:1010C000BDE8B040084700BF1168890603D4116825
:1010D00021F004011160CCF80440016B0029EFD12C
:1010E000B0BD00BF1168890606D4116821F00A015D
:1010F0001160012180F82510CCF80440C16A00225B
:10110000002980F82420DBD1EAE70000002804BF92
:10111000012070472DE9F04740F2000CC4F2020CA8
:1011200002684FF6F8310CF5816ECBF6FD71724511
:1011300038BF01F580614CF6CD431144CCF6CC4369
:10114000A1FB03136FF003010CF5806701EA930A1A
:101150004FF00203D0E90249D0F810803CBF0027CD
:10116000C4F20207C0E9107A80F82530136847F608
:10117000F077BB432343D0E9057643EA090343EA0A
:101180000803D0E907513B4333432B431943B4F5DC
:10119000804F116015D04FF495640AF01C010F23A5
:1011A000724538BFA8245CF804208B409A434CF861
:1011B000042042685CF8043002FA01F119434CF84B
:1011C000041000210122C16380F8252080F824103A
:1011D000BDE8F047084670472DE9F04F84B08E46D1
:1011E00041F20002C4F60002DEF8004007219042FE
:1011F000019008BF0421002C009100F0D7800198D5
:10120000002500F138424FEAB2230098012700265A
:101210004FF00008042B38BF18460090CDF808E0C6
:101220000EE000BFDEF8004008F1010834FA07F1D3
:1012300006F1020607F1010705F1040500F0B6808A
:10124000A7F1010A012000FA0AF314EA0309E9D020
:10125000DEF804C00CF0030BABF10104012C17D82D
:101260000198744681680322E468B2409143B44017
:101270002143816041684FEA480E9943CCF3001343
:1012800003FA0AF30446D043194361600CE000BF3F
:101290000321B140019CC843BBF1030FB64603D103
:1012A000B6464FF0030B23E0E168029A01409368D1
:1012B000BBF1020F03FA0EF341EA0301E16017D11B
:1012C0006FF0030101EA5A01214405F01C040F23C9
:1012D000D1F820C003FA04FB13692CEA0B0CA340DD
:1012E00043EA0C03019C0B62D2F804C00CF0030B20
:1012F00021680BFA0EF2014011432160DDF808E08D
:101300001CF4403F8ED041F26000C4F2020001683C
:1013100040F2004C41F0010101600168C4F2010C8F
:1013200001F00101039103992AF003014FF6084AE5
:101330006144CFF6FF7A05F00C030F2051F80A2024
:1013400000FA03F40098A24300FA03F31A4341F8A9
:101350000A20DCF80810DEF8042041EA090340F214
:101360000C40D40258BF21EA0903CCF80830C4F27B
:1013700001000168940241EA090358BF21EA090308
:101380000360DCF80410940341EA090358BF21EA22
:101390000903CCF80430DCF80010D20341EA090359
:1013A00058BF21EA0903CCF800303BE704B000F055
:1013B00000B830BCBDE8C08F1823002A08BF28231E
:1013C000C150704740F2B070C1F200000068704731
:1013D00090F84120202A03D190F84020012A01D121
:1013E00002207047242280F841200268136823F00D
:1013F00001031360136823F48053136013681943C7
:101400001160116841F001011160202180F8411044
:10141000002180F8401008467047000090F84120F5
:10142000202A03D190F84020012A01D102207047E0
:10143000242280F841200268136823F0010313601E
:10144000136823F4706343EA01211160116841F0CD
:1014500001011160202180F84110002180F8401026
:1014600008467047002804BF0120704710B50446A5
:1014700090F8410028B9002084F84000204600F090
:1014800043F8242084F8410094E80910E2680168D8
:10149000012A21F00101016023F07061016181687E
:1014A00021F40041816003D14CF40041816007E0E8
:1014B0004CF40441022A816004BF4FF40061416092
:1014C000416804F1100C41F0007141F400414160A9
:1014D000C16821F40041C1609CE80E10114341EA4B
:1014E0000321C160216A41EA0C010160016841F0F9
:1014F0000101016000202021606484F84110206314
:1015000084F8420010BD000010B59EB0044602A849
:1015100004305821FFF7C4F8206845F60041C4F2B2
:101520000001884202D01EB010BD00BF4FF4807091
:10153000029002A800F060F9002818BFFFF726FB10
:1015400041F24C04C4F202042068122140F004006D
:101550002060206800F004001990199803201A9167
:1015600000211990CDE91B1004201D9040F60000C9
:10157000C4F6000019A9FFF72FFEE06840F4000050
:10158000E060E06800F40000019001981EB010BD1A
:1015900040F2000040F2B071C1F20000C1F200015F
:1015A00000780A68104408607047000080B5032086
:1015B00000F0C4F80F2000F009F800281CBF01203B
:1015C00080BD00F061F8002080BD0000B0B586B09D
:1015D00041F25801C4F202010A68044642F02002B6
:1015E0000A60096801A801F020010191019969468A
:1015F00000F098FB049D002D18BF012500F0B4FBFE
:101600004DF68361A840C4F21B31A0FB01014FF0ED
:10161000FF3000EB914140F24C5041F20042C1F2E8
:101620000000C4F2000240F2E7330025C0E90021C7
:10163000C0E902530561856101F092F8054618B1D1
:10164000284606B0B0BD00BF40F24C50C1F20000C9
:1016500001F078F905460028F2D1372000F032F881
:101660000F2C0DD8372021460022002500F03AF833
:1016700040F20400C1F200000460284606B0B0BD8C
:101680000125284606B0B0BD82B041F25800C4F230
:1016900002008168002241F001018160816801F04F
:1016A000010101910199016841F0805101600068D8
:1016B0000F2100F08050009000986FF0010002B000
:1016C00000F010B8002848BF704700F01F01012249
:1016D00002FA01F14EF200124009CEF2000242F885
:1016E0002010704710B54EF60C5CCEF2000CDCF802
:1016F0000030C3F3022E8EF00704042C28BF04240C
:10170000BEF103034FF0FF3E0EFA04F438BF00238E
:10171000A14399400EFA03F39A43114300F00F02DC
:10172000043A624409010C3200F16043B0F1FF3F1A
:10173000C8BF03F56442117010BD00004EF60C5195
:10174000CEF200010A684FF6FF031A4060F30A2246
:1017500042F0806040F0FD700860704747F2000181
:10176000C4F200010A68B0F5007F02F4C06031D114
:10177000B0F5007F2CD00868012262F34A2008608F
:1017800040F28C00C1F200000068322250434DF656
:101790008362C4F21B32A0FB0202900C4A6952051C
:1017A00011D5421C0FD04A6952050CD558B14A696F
:1017B000520508D5012806D04A69520503D50228EA
:1017C000A0F10400EAD14869400544BF03207047F6
:1017D00000207047B0F5806FFAD00868022262F3EB
:1017E0004A2008600020704747F20000C4F2000061
:1017F000006800F4C06070472DE9F04381B00446F2
:10180000407841F288070007C4F2020721D5606CD6
:1018100080B1B0F5400F15D0B0F5000F40F02A812F
:1018200057F87C0C40F4803047F87C0C4FF40000F3
:101830000AE000BF201D002103F028FA814650B9BC
:10184000606C01E04FF44000396821F44001084326
:1018500038604FF00009A078800751D557F8300C58
:1018600010F080580BD157F8300C40F0805047F8FA
:10187000300C57F8300C00F080500090009847F280
:101880000005C4F20005286840F480702860FFF766
:1018900099FD06462868C00508D4FFF793FD801B14
:1018A0000228F7D94FF0030921E000BFB9F1000F7A
:1018B0001DD1B86810F4407011D0A16D88420BD0D2
:1018C000B868B96820F4407041F48031B960B968F3
:1018D00021F48031B960B860C00740F0D380B868A7
:1018E000A16D20F4407008434FF00009B860B8F1D2
:1018F000000F05D157F8300C20F0805047F8300C1D
:101900002168C80712D1880718D448071ED4880652
:1019100024D488052AD4480530D4480636D408068D
:101920003CD4C80542D4080348D459E03868226A38
:1019300020F00300104338608807E6D53868626AF3
:1019400020F00C00104338604807E0D53868A26AE0
:1019500020F03000104338608806DAD53868E26A33
:1019600020F44060104338608805D4D53868E26BB5
:1019700020F44020104338604805CED53868226CEA
:1019800020F44010104338604806C8D53868226BF0
:1019900020F44050104338600806C2D53868626BA6
:1019A00020F4404010433860C805BCD53868A26BAD
:1019B00020F4403010433860080311D53A68A06C19
:1019C00022F040620243B0F1806F3A601ED0B0F165
:1019D000006F05D157F87C0C40F4801047F87C0C60
:1019E000480327D53A68E06C22F040620243B0F128
:1019F000806F3A6016D0B0F1006F1BD157F87C0CA5
:101A000040F4801047F87C0C14E000BF201D012139
:101A100003F03CF92168002818BF81464803E1D44F
:101A200008E000BF201D012103F030F921680028E3
:101A300018BF8146480410D53868226D20F0405008
:101A40001043B2F1805F386007D1201D022103F0FE
:101A50001DF92168002818BF8146080405D538689B
:101A6000616D20F0804008433860484601B0BDE811
:101A7000F08300BF4FF00109A07880073FF5EEAE7C
:101A80003EE700BFFFF79EFC064641F288354FF067
:101A9000030900BFB86880073FF521AFFFF792FC4C
:101AA000801BA842F6D922E72DE9F04381B0002837
:101AB0006BD042F20008C4F202080446D8F80000D5
:101AC0000D4600F0070088420CD2D8F8000020F044
:101AD00007002843C8F80000D8F8000000F007000D
:101AE000A84252D1206841F2080910F00201C4F264
:101AF00002090DD0A268D9F8003003F0F0039A4231
:101B000006D9D9F8003023F0F0031A43C9F80020B1
:101B1000C2072DD169B1A168D9F8002002F0F00206
:101B2000914206D2D9F8002022F0F0021143C9F800
:101B30000010D8F8001001F00701A9420CD9D8F81C
:101B4000001021F007012943C8F80010D8F8001050
:101B500001F00701A94218D141071BD4000723D483
:101B6000D9F80000D9F8041010F00C002CD131E0A5
:101B7000606800285ED0022800F07E80032840F0D4
:101B8000818059F8081C890158D4012001B0BDE8B2
:101B9000F08300BFD9F80010E26821F4E06111433E
:101BA000C9F800100007DBD5D9F80000216920F43E
:101BB000605040EAC100C9F80000D9F80000D9F827
:101BC000041010F00C0005D00C2829D101F00301FD
:101BD000012925D159F8081C090703D4D9F88C101C
:101BE000090A02E059F8081C090948F2F06201F0FC
:101BF0000F01C0F6000252F8211000280A4618BF53
:101C000000220C2871D1D9F8040000F0030002284A
:101C100046D0032804BF41F20021C0F27A0143E01C
:101C2000042857D008285BD141F20022C0F27A0282
:101C30005BE000BF59F8081C8907A6D5D9F8001049
:101C400021F003010843C9F80000FFF7BBFB06467B
:101C500041F28837D9F80000616800F00C00B0EB61
:101C6000810F15D0FFF7AEFB801BB842F2D90320DD
:101C700001B0BDE8F08300BF59F8081C89037FF567
:101C800084AFDBE759F8081C49057FF57EAFD5E73F
:101C9000206800F0020100297FF43DAF49E700BF52
:101CA00042F20041C0F2F401D9F80400D9F804204E
:101CB000C0F30210C2F306225143D9F804200130C8
:101CC000B1FBF0F0C2F34161022202EB4101B0FB33
:101CD000F1F20AE042F20042C0F2F40205E000BF75
:101CE000002200210C283FF48EAFD9F8000048F202
:101CF000D861C0F30310C0F60001085C00F01F00BB
:101D000022FA00F140F20400C1F2000040F28C021D
:101D10000068C1F20002116001B0BDE8F043FFF7B6
:101D200055BC00000F22026041F20802C4F2020218
:101D3000136803F003034360136803F0F003836048
:101D4000136803F4E063C36012684FF4E06303EACE
:101D5000D202026142F20000C4F20200006800F008
:101D6000070008607047000040F28C0041F2080153
:101D7000C1F20000C4F202010068096848F2E8629A
:101D8000C1F30221C0F60002515C01F01F01C840FE
:101D90007047000040F28C0041F20801C1F20000DF
:101DA000C4F202010068096848F2E862C1F3C22186
:101DB000C0F60002515C01F01F01C84070470000EE
:101DC00041F20C01C4F2020151F8040C10F00C02B3
:101DD000086805D00C2A29D100F00300012825D17C
:101DE00051F80C0C000703D4D1F88800000A02E077
:101DF00051F80C0C000948F2F06300F00F00C0F637
:101E0000000353F82030002A184618BF00200C2A7F
:101E100018BF7047086800F00300022810D003289C
:101E200004BF41F20023C0F27A030DE0042A1FD060
:101E3000082A23D141F20020C0F27A00704700BF87
:101E400042F20043C0F2F40308680A68C0F30210CB
:101E5000C2F30622096801305A43B2FBF0F0C1F325
:101E60004161022202EB4101B0FBF1F0704700BF7B
:101E700042F20040C0F2F400704700BF002000238F
:101E8000C5E700002DE9F04383B0002800F0388357
:101E900041F200060446C4F20206B068F1682278F6
:101EA00000F00C09D00601F003081DD42078C0070B
:101EB00000F08180B9F1080F76D0B9F10C0F08BF9E
:101EC000B8F1030F70D06068B0F5803F07D0B0F56F
:101ED000A02F40F04B82306840F4802030603068A2
:101EE00040F4803030604CE2B9F1000F1ED0B9F1FF
:101EF0000C0F08BFB8F1010F18D0A1693068002994
:101F000000F0968140F001003060FFF75BFA054673
:101F10003068800700F19E81FFF754FA401B0228C9
:101F20004FF00300F4D903B0BDE8F08330688007B8
:101F300003D5A069002800F0E382256A3068000715
:101F400000F13E81D6F89400000900F0F0008542CF
:101F500000F23C813068B9F1000F40F008003060B9
:101F6000306820F0F00040EA050030607068E169F8
:101F700020F47F4040EA0120706040F0AF82B06DF5
:101F8000C00000F14B82B06D40F08050B065B06D84
:101F900000F0805002900298FFF726FCB16D21F00E
:101FA0008051B1653CE200BF3068800303D56068B2
:101FB000002800F0A582207880072DD5B9F1040F04
:101FC0001CD0B9F10C0F08BFB8F1020F16D0E168B0
:101FD0003068002900F0E48140F480703060FFF741
:101FE000F1F90546306840050FD4FFF7EBF9401BC7
:101FF00002284FF00300F5D995E700BF306840058F
:1020000003D5E068002800F07B827068216920F029
:10201000F85040EA016070602078000760D42078B2
:10202000400775D42078800600F1AE80A06A0028B1
:1020300000F00C83022840F01F81F068E16A00F094
:1020400003028A4240F03081226B6FF00F0300F0F0
:10205000700103EB0212914240F02681616B00F4A3
:10206000FE42B2EB012F40F01F81A16B00F07842DD
:10207000B2EBC16F40F01881E26B0023CFF6E07342
:1020800003EB025200F4C0016FF31402914240F0DE
:102090000B81216C4FF07E4202EB016100F0C060C9
:1020A00001F07E41884240F0FF803068800100F1FD
:1020B000CD82306840F080703060F06840F0807011
:1020C000F060FFF77FF904463068800100F1BE82BE
:1020D000FFF778F9001B02284FF00300F4D922E73C
:1020E0006169D6F89400002900F08C8040F001006E
:1020F000C6F89400FFF766F9054600BFD6F89400CD
:1021000080078CD4FFF75EF9401B0228F6D929E13D
:10211000B06D10F0805808D1B06D40F08050B065BF
:10212000B06D00F080500090009847F20007C4F2B4
:1021300000073868C00513D4386840F480703860F0
:10214000FFF740F9054600BF3868C00508D4FFF71F
:1021500039F9401B02284FF00300F5D9E3E600BF30
:10216000A068012808D0052840F0DE80D6F890004D
:1021700040F00400C6F89000D6F8900040F001004E
:10218000C6F89000DFE000BF616AD6F89800002929
:1021900000F0B48040F00100C6F89800FFF712F993
:1021A000054600BFD6F8980080073FF53FAFFFF720
:1021B00009F9401B02284FF00300F3D9B3E600BF32
:1021C000306800F0F00085427FF6C4AEB06DC0000C
:1021D00000F18680B06D40F08050B065B06D00F0C9
:1021E000805001900198FFF7FFFAB16D21F0805106
:1021F000B165B0F5007F79D0802D40F2E3800320F7
:10220000EBE000BF20F00100C6F89400FFF7DAF819
:10221000054600BFD6F8940080077FF500AFFFF7B2
:10222000D1F8401B02284FF00300F3D97BE600BF32
:1022300020F001003060FFF7C5F8054630688007E0
:102240007FF534AEFFF7BEF8401B02284FF00300C5
:10225000F4D968E6306840F0080030603068D4E9AE
:10226000072120F0F00008433060706820F47F40C0
:1022700040EA0220706019E6B9F10C0F00F04081CD
:10228000306820F080703060FFF79CF8044600BF93
:102290003068800140F1EE80FFF794F8001B0228BF
:1022A0004FF00300F4D93EE6B9F10C0F00F028819D
:1022B0003068400100F12481306820F08070306087
:1022C000FFF780F805463068800140F18181FFF713
:1022D00079F8401B02284FF00300F4D923E600BF31
:1022E000FFF782FAB0F5007F7FF486AF812D73D3BC
:1022F0000120A02D88BF02206FE000BF20F0010068
:10230000C6F89800FFF75EF8054600BFD6F89800BB
:1023100080077FF58BAEFFF755F8401B02284FF082
:102320000300F3D9FFE500BFD6F89010002821F094
:102330000101C6F89010D6F8901021F00401C6F8FB
:10234000901000F07B80FFF73DF8054641F288379A
:10235000D6F89000800700F18380FFF733F8401B28
:10236000B842F5D9032003B0BDE8F08331680028F6
:1023700021F480313160316821F48021316000F036
:102380008580FFF71FF80546306880033FF513AEE0
:10239000FFF718F8401B64284FF00300F4D9C2E59A
:1023A00020F480703060FFF70DF805463068400576
:1023B0007FF532AEFFF706F8401B02284FF003000E
:1023C000F4D9B0E5A5F17000B0FA80F04009802D95
:1023D00008BF022001E000BF002042F20001C4F269
:1023E00002010A6822F0070202440A60096801F04B
:1023F0000701814240F08480306840F0080030607E
:102400003068D4E9072120F0F0000843306070689C
:1024100020F47F4040EA022070605FE0FFF7E4F9BB
:10242000B0F5007F06D1812D40D30120A02D88BFBB
:10243000022045E0802D3BD9032041E0FEF7C2FF9A
:10244000054641F28837D6F89000800708D5FEF798
:10245000B9FF401BB8424FF00300F4D963E500BF59
:10246000B8F1000F7FF4DEADB06D20F08050B065A4
:10247000D8E500BFF0684FF6FC71CFF6EE6108407A
:10248000F060002003B0BDE8F08300BFFEF79AFFC4
:102490000546306880037FF58EADFEF793FF401B45
:1024A00064284FF00300F4D93DE500BF002007E0A9
:1024B000A5F17000B0FA80F04009802D08BF02201D
:1024C00042F20001C4F202010A6822F0070202444B
:1024D0000A60096801F00701814211D1B068F16812
:1024E00010F00C0005D00C282AD101F003010129BD
:1024F00026D13168090707D4D6F89410090A05E0F7
:10250000012003B0BDE8F0833168090948F2F062A8
:1025100001F00F01C0F6000252F8211000280A460F
:1025200018BF00220C2837D1F06800F00300022801
:1025300010D0032804BF41F20021C0F27A010DE05F
:1025400004281FD0082823D141F20022C0F27A02C9
:1025500022E000BF42F20041C0F2F401F068F268EC
:10256000C0F30210C2F306225143F2680130B1FBFE
:10257000F0F0C2F34161022202EB4101B0FBF1F243
:102580000AE000BF42F20042C0F2F40204E000BFE1
:10259000002200210C28C7D0B06848F2D861C0F3EF
:1025A0000310C0F60001085C00F01F0022FA00F1E1
:1025B00040F20400C1F2000040F28C020068C1F257
:1025C00000021160FFF702F800287FF4ACAC6DE464
:1025D000F06848F28C01C0F29D1104F12C0700EA6A
:1025E000010C8ECF6FF00F00D4E90F5400EB0210F6
:1025F0000022CFF6E07241EA0C0102EB05520843DB
:102600006FF314024FF07E4540EA032005EB0465AA
:10261000104305F07E4540EAC7602843F06030680B
:1026200040F080703060F06840F08070F060FEF73D
:10263000C9FE04463068800108D4FEF7C3FE001BC3
:1026400002284FF00300F5D96DE400BF002003B06D
:10265000BDE8F0837047000070470000704700003D
:1026600010B590F83C20012A04BF022010BDD1E92A
:102670000232D1E900CE22F47C5223F470531A4383
:1026800048F2FF73CFF6F07303EA0E0342EA030E3B
:102690000A692CF477234EEA030C22F476224B6964
:1026A00042EA0C021A438B6A22F4742223F4702348
:1026B00042EA030C8B69D0F800E042F60042C4F213
:1026C000010296454CEA03430FD123F07C72D1E915
:1026D000073C496A0024CFF6F04404EA0151114353
:1026E00023F00072114341EA0C030021CEF844307C
:1026F00080F83C10084610BD10B590F83C20012A27
:102700004FF002022AD080F83D20026842F6004CC9
:102710005368D2F808E0C4F2010C624503D14C685A
:1027200023F4700323430C6823F070032343B2F1B6
:10273000804F536007D044F20003C4F201039A4271
:1027400001D0624504D189682EF08003194391605D
:102750000121002280F83D1080F83C20104610BD79
:10276000002804BF01207047B0B5044690F83D0032
:1027700028B9002084F83C00204600F063F80220CD
:1027800084F83D00206842F6004E0268C4F2010E53
:10279000704502D0B0F1804F03D1A36822F07002DF
:1027A0001A4343F6FF73C4F2010344F2004C98420B
:1027B000C4F2010C06DCB0F1804F0BD0704509D09B
:1027C0000CE000BF604505D044F20003C4F20103F1
:1027D000984203D1236922F440721A43A16922F07E
:1027E00080026368E568114370450160C5628362D9
:1027F00018BF60451ED1616901630121416100205C
:1028000084F8481084F83E1084F83F1084F8401093
:1028100084F8411084F8421084F8431084F844107E
:1028200084F8451084F8461084F8471084F83D1069
:10283000B0BD00BF44F20001C4F201018842DCD106
:10284000D9E7000080B582B0006842F6FF31C4F2DB
:102850000101884220DD44F20041C4F201018842B6
:102860003ED044F20001C4F20101884248D042F651
:102870000041C4F2010188423FD141F26000C4F23C
:102880000200016841F400610160006800F400602A
:102890000190019802B080BDB0F1804F40D041F26C
:1028A0000001C4F20001884227D141F26000C4F265
:1028B000020050F8081C002241F0100140F8081CEA
:1028C00050F8080C052100F0100001900198362006
:1028D000FEF708FF362002B0BDE88040FEF7F2BEEA
:1028E00041F26000C4F20200016841F4003101606D
:1028F000006800F400300190019802B080BD00BF74
:1029000041F26000C4F20200016841F480310160CC
:10291000006800F480300190019802B080BD00BFD3
:1029200041F26000C4F2020050F8081C41F00101BD
:1029300040F8081C50F8080C00F0010001900198C4
:1029400002B080BD90F83D1001291CBF01207047E6
:10295000022180F83D100168C868B1F1804F40F055
:102960000100C8600BD044F20000C4F201008142B3
:1029700005D042F60040C4F2010081420CD18868C3
:102980000722C0F201020240062A4FF0000008D0E0
:10299000B2F5803F08BF7047086840F0010008604A
:1029A0000020704780B590F83C20012A4FF00202C9
:1029B00000F0C28080F83D20D0F800C08822DCF80A
:1029C0000830CFF6FE721A40CCF808200B684F2B67
:1029D00028DC1F2B44DD202B45D0302B43D0402B4F
:1029E00040F0AC80D1F804E0C968DCF82030DCF8B5
:1029F000202022F00102CCF82020DCF8182022F060
:102A0000F00242EA011123F00A0242EA0E02CCF877
:102A10001810CCF82020DCF8081041F0470121F014
:102A2000300180E06F2B27DDB3F5005F48D0B3F5B0
:102A3000805F7AD0702B40F08180D1E901E3C968D2
:102A4000DCF8082043EA0E0322F47F4243EA012126
:102A50001143CCF80810DCF8081041F0770162E06F
:102A60000BB1102B6AD1DCF8081021F0700119436A
:102A700041F0070157E000BF502B35D0602B5DD1EE
:102A8000D1F804E0C968DCF8203023F01003CCF85A
:102A90002030DCF81830DCF8202023F4704322F0DA
:102AA000A00243EA013142EA0E12CCF81810CCF829
:102AB0002020DCF8081041F0670121F0100132E01D
:102AC000D1E901E3C968DCF8082043EA0E0322F4E7
:102AD0007F4243EA01211143CCF80810DCF80810CA
:102AE00041F480411FE000BFD1F804E0C968DCF880
:102AF0002030DCF8202022F00102CCF82020DCF885
:102B0000182022F0F00242EA011123F00A0242EA00
:102B10000E02CCF81810CCF82020DCF8081041F098
:102B2000570121F02001CCF808100022012180F883
:102B30003D10002180F83C10104680BD0122F5E7D1
:102B40007047000010B5016804460869800744BF5B
:102B5000C8685FEA80703FD40869400744BFC8680E
:102B60005FEA407044D40869000744BFC8685FEA60
:102B700000704BD40869C00644BFC8685FEAC060F3
:102B800050D40869C0071CBFC8685FEAC07057D13D
:102B90000869000644BFC8685FEA006058D4086945
:102BA000C00544BFC8685FEA006059D408694006A0
:102BB00044BFC8685FEA40605AD40869800646BFCF
:102BC000C8685FEA806010BD6FF0200220460A618D
:102BD000BDE81040FFF742BD6FF002000861012020
:102BE0002077886980074BD02046FFF7A9FF4DE08A
:102BF0006FF00400086102202077886910F4407F9C
:102C000048D02046FFF79CFF4AE000BF6FF0080065
:102C1000086104202077C869800745D02046FFF767
:102C20008FFF47E06FF01000086108202077C86927
:102C300010F4407F42D02046FFF782FF44E000BFFF
:102C40006FF001000861204600F0CAFB21689FE791
:102C50006FF0800008612046FFF7FEFC21689EE7C8
:102C60006FF4807008612046FFF7F4FC21689DE74F
:102C70006FF040000861204600F0BCFB21689CE733
:102C8000204600F0CFF8204600F016FB2168002017
:102C9000207761E7204600F0C5F8204600F00CFBE5
:102CA0002168002020775EE7204600F0BBF8204630
:102CB00000F002FB2168002020775BE7204600F04F
:102CC000B1F8204600F0F8FA21680020207758E794
:102CD00070B586B0006843F6FF71C4F20101884206
:102CE0004FF000010591CDE90311CDE9011121DC7F
:102CF000B0F1804F44D042F60041C4F20101884255
:102D000040F08E8041F24C00C4F20200016841F0B4
:102D100001010160006800F00100009000984FF48C
:102D200070600190022002900020CDE90300012094
:102D300022E000BF44F20001C4F20101884251D0F8
:102D400044F20041C4F20101884269D141F24C00D1
:102D5000C4F20200016841F001010160006800F066
:102D60000100009000984020019002200290012074
:102D70000390002004900E2005904FF090404CE00E
:102D800041F24C00C4F202000168022441F0020149
:102D900001600168012501F00201009100990168BC
:102DA000002641F001010160006801A900F0010066
:102DB000009000984FF44060019040F20040C4F64B
:102DC000000002940395CDE90465FEF705FA4FF47F
:102DD0000040CDE90104CDE9034605954FF0904050
:102DE0001BE000BF41F24C00C4F20200016841F058
:102DF00002010160006800F00200009000984FF4AA
:102E000040400190022002900020CDE903000E20F6
:102E1000059040F20040C4F6000001A9FEF7DCF97D
:102E200006B070BD70470000F0B590F83C30012B43
:102E300004BF0220F0BD4FEAB202052A5CD8DFE8E9
:102E400012F007006100AF00FD003D017D0100BFF1
:102E5000036842F600461A6AC4F2010622F0010233
:102E60001A621D6A1A465C6852F818CF8F68D1F84A
:102E700000E025F00205B34245EA07050BD044F215
:102E80000047C4F20107BB4205D044F20007C4F278
:102E90000107BB4205D1CF6825F00C0527F00407D8
:102EA0003D43B3420BD044F20046C4F20106B342A4
:102EB00005D044F20006C4F20106B34205D1D1E9BF
:102EC000056724F4407434433C434FF68C76CFF6C8
:102ED000FE760CEA060747EA0E075C609F614F68C2
:102EE00009695F631D629F6947F008079F619F69D9
:102EF00027F004079F6162E10121002280F83C2055
:102F00000846F0BD036842F600461A6AC4F201069C
:102F100022F010021A621F6A1A465C6852F818CF33
:102F20008D6827F02007B34247EA051508D125F040
:102F3000C00ECD686FF0400707EA051545EA0E059B
:102F4000D1F800E0B3420BD044F20046C4F20106CF
:102F5000B34205D044F20006C4F20106B34207D1E1
:102F6000D1E9056724F4406444EA860444EA87040E
:102F700048F6FF46CFF6FF660CEA060747EA0E273B
:102F80005C609F614F6809699F631D629F6947F498
:102F900000679F619F6927F480679F610EE100BF12
:102FA000036842F600461A6AC4F2010622F48072EF
:102FB0001A621F6A1A465C6852F81CCF8D6827F4A3
:102FC0000077B34247EA052509D1CF6825F4406E62
:102FD0003F0240F2FF4527EA050545EA0E05D1F814
:102FE00000E0B3420BD044F20046C4F20106B34203
:102FF00005D044F20006C4F20106B34207D1D1E97C
:10300000056724F4405444EA061444EA07144FF6D2
:103010008C76CFF6FE760CEA060747EA0E075C6070
:10302000DF614F680969DF631D62DF6947F00807E8
:10303000DF61DF6927F00407DF61C0E0036842F663
:1030400000471A6AC4F2010722F480521A621A4633
:103050001C6A5D6852F81CCFD1F800E08E68BB4254
:103060000BD044F20047C4F20107BB4205D044F242
:103070000007C4F20107BB4204D14F6925F4804523
:1030800045EA871524F4005444EA063448F6FF461E
:10309000CFF6FF660CEA060747EA0E275D60DF61A0
:1030A0004F6809691F641C62DF6947F40067DF61CC
:1030B000DF6927F48067DF6180E000BF036842F6C4
:1030C00000471A6AC4F2010722F480321A621A46D3
:1030D0001C6A5D6852F854EFD1F800C08E68BB429C
:1030E0000BD044F20047C4F20107BB4205D044F2C2
:1030F0000007C4F20107BB4204D14F6925F48035B3
:1031000045EA072524F4003444EA06444FF68C7659
:10311000CFF6FE7603360EEA060747EA0C075D6037
:103120005F654F6809699F651C625F6D47F008071E
:103130005F655F6D27F004075F6540E0036842F656
:1031400000471A6AC4F2010722F480121A621A4672
:103150001C6A5D6852F854EFD1F800C08E68BB421B
:103160000BD044F20047C4F20107BB4205D044F241
:103170000007C4F20107BB4204D14F6925F4802542
:1031800045EA872524F4001444EA065448F6FF462D
:10319000CFF6FF6606F540760EEA060747EA0C27EB
:1031A0005D605F654F680969DF651C625F6D47F4AC
:1031B00000675F655F6D27F480675F6509021368CC
:1031C000194311600021002280F83C200846F0BD20
:1031D000002804BF01207047B0B5044690F83D00B8
:1031E00028B9002084F83C00204600F063F8022053
:1031F00084F83D00206842F6004E0268C4F2010ED9
:10320000704502D0B0F1804F03D1A36822F0700264
:103210001A4343F6FF73C4F2010344F2004C984290
:10322000C4F2010C06DCB0F1804F0BD0704509D020
:103230000CE000BF604505D044F20003C4F2010376
:10324000984203D1236922F440721A43A16922F003
:1032500080026368E568114370450160C56283625E
:1032600018BF60451ED161690163012141610020E1
:1032700084F8481084F83E1084F83F1084F8401019
:1032800084F8411084F8421084F8431084F8441004
:1032900084F8451084F8461084F8471084F83D10EF
:1032A000B0BD00BF44F20001C4F201018842DCD18C
:1032B000D9E70000704700007047000061B10A1FA5
:1032C0004FEAB202032A11D8DFE802F00214181CF8
:1032D00000F13F0318E000BF90F83E20012A1CBF18
:1032E00001207047022280F83E202CE000F14303C9
:1032F0000AE000BF00F1400306E000BF00F1410317
:1033000002E000BF00F142031B78012B1CBF01202B
:103310007047032A08D8DFE802F0030B0F1300BF41
:10332000022280F83F200EE0022280F843200AE0CB
:10333000022280F8402006E0022280F8412002E0CC
:10334000022280F84220026801F01F000121136A66
:1033500001FA00F023EA00011162116A084343F602
:10336000FF71C4F201018A42106209DCB2F1804FA0
:1033700022D042F60040C4F2010082420CD028E084
:1033800044F20040C4F20100824205D044F2000041
:10339000C4F2010082421CD1506C44F20001C4F21C
:1033A000010140F400408A42506405D042F60040DA
:1033B000C4F2010082420CD190680721C0F20101E1
:1033C000014006294FF0000008D0B1F5803F08BF4A
:1033D0007047106840F00100106000207047000046
:1033E000006841F20041C4F20001884208BFFEF7C4
:1033F000CFB870477047000070470000704700006A
:1034000070470000B0B501680446C8690D6840F611
:103410002F028B680240202A05F0200E0AD1BEF14F
:10342000000F07D0616E00293CD02046BDE8B040B7
:10343000084700BF40F60F02104209D040F22012A8
:10344000C0F2004203F0010C2A4012EB0C0215D12D
:10345000226E012A05D110F0100218BF15F01002DB
:1034600022D1C20214D513F4800211D04FF480127D
:1034700020460A62BDE8B040FFF7C0BFC20718BFD0
:1034800015F4807240F09681820700F19D81A6E1DB
:10349000020640F1998015F0800200F09580A16E3F
:1034A0000029C2D1B0BD00BF102008628868400664
:1034B00000F1C280B4F85800B4F85A20B4F85A3079
:1034C000002B1CBF801A5FEA0042EBD001E000BF76
:1034D000216851E8001F226821F4907142E800132E
:1034E000DBB1216851E8001F226821F4907142E8A5
:1034F000001393B1216851E8001F226821F49071F4
:1035000042E800134BB1216851E8001F226821F402
:10351000907142E80013002BDAD1216851E8021FB4
:10352000226821F0010142E80213DBB1216851E871
:10353000021F226821F0010142E8021393B12168C1
:1035400051E8021F226821F0010142E802134BB149
:10355000216851E8021F226821F0010142E80213AC
:10356000002BDAD12021E167002121666166216804
:1035700051E8001F226821F0100142E80013002BDF
:1035800000F01181216851E8001F226821F010012C
:1035900042E80013002B00F00681216851E8001F6B
:1035A000226821F0100142E80013002B00F0FB809C
:1035B000216851E8001F226821F0100142E8001341
:1035C000002BD4D1EFE000BF40067FF56BAF15F0C4
:1035D000400008BFB0BD51E8000F00BF216820F0D7
:1035E000400041E80002002A00F0E281206850E833
:1035F000000F216820F0400041E80002002A00F09E
:10360000D781206850E8000F216820F0400041E891
:103610000002002A00F0CC81206850E8000F2168E9
:1036200020F0400041E80002002A00F0C18120683B
:1036300050E8000FD2E700BF206F0268536898B2CD
:1036400000283FF42FAFB4F858C06045BFF42AAF4C
:10365000A4F85A301068800600F1A18051E8000FEC
:10366000216820F4807041E80002FAB1206850E837
:10367000000F216820F4807041E80002B2B1206898
:1036800050E8000F216820F4807041E800026AB120
:10369000206850E8000F216820F4807041E80002A3
:1036A00022B1206850E8000FDAE700BF206850E838
:1036B000020F216820F0010041E80202BAB320683D
:1036C00050E8020F216820F0010041E8020272B3C5
:1036D000206850E8020F216820F0010041E8020252
:1036E0002AB3206850E8020F216820F0010041E869
:1036F0000202002ADAD11AE0206850E8020F21689D
:1037000020F0400041E80202DAB1206850E8020FE0
:10371000216820F0400041E8020292B1206850E8A0
:10372000020F216820F0400041E802024AB12068FF
:1037300050E8020F216820F0400041E80202002A10
:10374000DAD12020E06700202066206850E8000FD2
:10375000216820F0100041E80002DAB1206850E84A
:10376000000F216820F0100041E8000292B12068AB
:1037700050E8000F216820F0100041E800024AB133
:10378000206850E8000F216820F0100041E8000296
:10379000002ADAD1206FFDF711FCB4F858C0B4F854
:1037A0005A00ACEB000081B22046BDE8B040FFF704
:1037B00023BE00BF01220A62D4F8802042F0010239
:1037C000C4F8802082070AD5BCF1000F07D002227E
:1037D0000A62D4F8802042F00402C4F88020420734
:1037E0000AD5BCF1000F07D004220A62D4F8802069
:1037F00042F00202C4F8802002070AD55EEA0C02F9
:1038000007D008220A62D4F8802042F00802C4F8E7
:10381000802002050BD515F0806208D04FF40062BD
:103820000A62D4F8802042F02002C4F88020D4F844
:103830008020002A3FF436AE10F0200018BFBEF101
:10384000000F40F0BF80D4F880008A6800F02800A4
:1038500002F04002801807D12046FFF7D1FD00207A
:10386000C4F88000B0BD00BF51E8000F216820F40B
:10387000907041E80002D2B3206850E8000F216840
:1038800020F4907041E800028AB3206850E8000FED
:10389000216820F4907041E8000242B3206850E8AB
:1038A000000F216820F4907041E80002FAB120680E
:1038B00050E8000FDAE700BF206850E8020F2168E7
:1038C00020F0010041E80202DAB1206850E8020F5E
:1038D000216820F0010041E8020292B1206850E81E
:1038E000020F216820F0010041E802024AB120687D
:1038F00050E8020F216820F0010041E80202002A8E
:10390000DAD1206E012824D1206850E8000F216808
:1039100020F0100041E80002DAB1206850E8000F02
:10392000216820F0100041E8000292B1206850E8C0
:10393000000F216820F0100041E800024AB1206821
:1039400050E8000F216820F0100041E80002002A32
:10395000DAD120200021E067216620686166816855
:10396000490649D550E8020F216820F0400041E89F
:1039700002027AB3206850E8020F216820F040006C
:1039800041E8020232B3206850E8020F216820F0BB
:10399000400041E80202EAB1206850E8020F2168C5
:1039A00020F0400041E80202A2B12068DAE700BF3F
:1039B00020200021A0672046A166BDE8B04000F0AD
:1039C00041BA00BF626E002A3FF43DAF20469047E7
:1039D000216838E7206F78B145F28921C0F60001EF
:1039E0008163FDF711FB00283FF45CAD206F816B14
:1039F000BDE8B040084700BF2046BDE8B040FFF733
:103A0000FFBC0000B0B582B0A0B10446806F28B9F9
:103A1000002084F87400204600F056F82420A067A7
:103A20002068016821F001010160204601F034FCAA
:103A3000012803D1012002B0B0BD00BF606A10B1FF
:103A4000204601F0ADFB2068416821F490414160BF
:103A5000816821F02A018160016841F00101016063
:103A60000020C4F88000FDF7ADFC216805460A6817
:103A700012070CD56FF07E4C20464FF40011002247
:103A80002B46CDF800C001F01FFD78B92168086809
:103A900040070FD56FF07E4C20464FF48001002286
:103AA0002B46CDF800C001F00FFD18B1032002B085
:103AB000B0BD00BF2020A067E0670020206684F82A
:103AC000740002B0B0BD00002DE9F0479EB004467E
:103AD00000201D90CDE91B00CDE9190002A85C2152
:103AE000FCF7DEFD206844F20041C4F20001884288
:103AF00078D044F60001C4F20001884200F0DE8074
:103B000043F60001C4F20101884240F02C810120FB
:103B1000029002A8FDF770FE002818BFFDF736F8E6
:103B200041F24C00C4F20200416940F2300841F415
:103B3000804141614169022701F48041019101996D
:103B40000168002641F002010160006819A900F037
:103B5000020001900198C020199003201C900720BA
:103B60001D9040F20040C4F60000C4F202081A970B
:103B70001B96FDF731FB40F2142508F12800C1F235
:103B800000054FF08009C5E900072846C5E902662F
:103B9000C5E90496C5E906662E62FDF7B7FA002866
:103BA00018BFFCF7F3FF2567AC6240F25C2508F113
:103BB0001400C1F200051021C5E9000705F1080055
:103BC00080E842022846C5E90566C5E90766FDF7B3
:103BD0009DFA002818BFFCF7D9FFE566AC621EB05D
:103BE000BDE8F0874FF0020902A8CDF80890FDF774
:103BF00003FE002818BFFCF7C9FF41F24C00C4F2D5
:103C00000200C16840F2300841F40031C160C1686F
:103C1000002701F40031019101990168C4F2020802
:103C200041F001010160006819A900F00100019054
:103C300001980C20CDE9190903201C9007201D9044
:103C40004FF090401B97FDF7C7FA40F2EC2508F1C2
:103C50005000C1F200051021C5E9000905F1080076
:103C60004FF0800A80E882044FF400562846C5E9E8
:103C70000577EF612E62FDF749FA002818BFFCF7BF
:103C800085FFE566AC6240F2A42508F13C00C1F274
:103C90000005022185E883002846C5E9037AC5E9C5
:103CA0000577C5E90776FDF731FA002818BFFCF75C
:103CB0006DFF2567AC621EB0BDE8F087042002905E
:103CC00002A8FDF799FD002818BFFCF75FFF41F23D
:103CD0004C00C4F20200C168022641F48021C16098
:103CE000C168002701F4802101910199016841F028
:103CF00004010160006819A900F004000190019816
:103D00003020199003201C9007201D9040F20040A5
:103D1000C4F6000000F580601A961B97FDF75CFA68
:103D200040F234353020C1F20005C4F2020085E8CB
:103D3000C1004FF40050802128622846C5E9037174
:103D4000C5E90577EF61FDF7E1F9002818BFFCF739
:103D50001DFF2720052100222567AC62FDF7C2FC6C
:103D60002720FDF7AFFC1EB0BDE8F0872DE9F0433A
:103D700081B00446806F20280BD10E4600294FF0F9
:103D800001005CD01746002A59D094F8740001282D
:103D900004D1022001B0BDE8F08300BF012084F807
:103DA00074004FF0000921201D46C4F88090A067E0
:103DB000FDF708FBA4F85070A4F85270A1680746FC
:103DC000B1F5805F08D1206900281CBF30464E46FF
:103DD000B046064602E000BF4FF0000884F8749039
:103DE00009E000BF16F8010B21680885B4F85200FD
:103DF0000138A4F85200B4F8520088B1204680215E
:103E000000223B46009501F05FFB88B9002EE9D106
:103E100038F8020B21686FF35F2008850026E5E77C
:103E20002046402100223B46009501F04DFB18B191
:103E3000032001B0BDE8F0832020A067002001B07E
:103E4000BDE8F08370470000FEE7000040F2004448
:103E50000A20C4F2010402F093F9A06840F2A41809
:103E600040F00100A060206840F2104640F2E015EA
:103E700040F00100C1F20008C4F600060127C1F2BB
:103E800000052060D8F800004FF0FF3104F01CF866
:103E90000A2003F0B9F9306827EA0000287020688A
:103EA00040F001002060EDE780B5017A036840F240
:103EB000004EC4F2010E99B163B3417A02292FD0AA
:103EC000012931D0002951D1DEF804109943CEF8F0
:103ED0000410DEF800101943CEF800102EE000BFE9
:103EE000DEF800104FF0000C9943CEF80010DEF819
:103EF00004109943CEF804104068DEF82010814386
:103F0000CEF82010DEF8241021EA0000CEF82400BC
:103F100085E000BF4FF0000C43688BBB7FE000BF23
:103F2000DEF80010194302E0DEF800109943CEF8E5
:103F30000010DEF804101943CEF804104FF0000C06
:103F4000817A032917D8DFE801F01803595D00BF13
:103F5000DEF80C109943CEF80C10DEF80810194367
:103F6000CEF8081043685BB959E000BF4FF0010C70
:103F7000817A0329E7D90CF1020C4368002B4ED05B
:103F8000417A022910D0012912D079BBDEF8241021
:103F90009943CEF82410DEF820101943CEF82010F3
:103FA000807A032811D926E0DEF82010194302E0B8
:103FB000DEF820109943CEF82010DEF824101943C3
:103FC000CEF82410807A032815D8DFE800F0280303
:103FD0002B2F00BFDEF82C009843CEF82C00DEF823
:103FE00028001843CEF82800604680BD0CF1040C70
:103FF000807A0328E9D9012080BD00BFDEF80810CF
:10400000994302E0DEF808101943CEF80810DEF8F4
:104010000C101943CEF80C104368002BB0D1604649
:1040200080BD00BFDEF82800984302E0DEF82800DB
:104030001843CEF82800DEF82C001843CEF82C00E8
:10404000604680BD2DE9F04F0C6894FAA4F2B2FAF4
:1040500082F234FA02F363D04FF001084FF0030B01
:104060000BE000BFD1E900470568B7402B403B4358
:104070000360013234FA02F352D008FA02F314EA70
:10408000030CF6D0D1F80490A9F10103022B1BD246
:104090009CFAACF6B6FA86F77E00D0F808A00BFAC8
:1040A00006F3D1E902BE2AEA030A0BFA06F545EA4D
:1040B0000A05856045684FF0030BA5430EFB04F429
:1040C000DB432543456007E09CFAACF3B3FA83F782
:1040D0007E000BFA06F3DB430D69C468B5401C4053
:1040E0002543B9F1020FC560BCD14FEA1C2494FAF4
:1040F000A4F4D1F814E0BCF5807F28BFB4FA84F7AB
:104100004FF0240438BF202450F804C0BF000F250E
:10411000BD402CEA05050EFA07F72F430751A1E72A
:10412000002000F000B830BCBDE8C08F2DE9F0479A
:104130000268520644BF0120BDE8F08702684FF6CE
:10414000BF73D1E9008E22EA030C4CEA080201F1A8
:10415000080742EA0E02F0CF2A43D1E9063A324379
:104160003A43D1F820901A4342EA0A0242EA09028D
:104170000260426840F604739A4344EA17431A43C4
:104180000023B3EBD42F426003D1426842F4805243
:104190004260B9F5005F1CBF0020BDE8F087898C44
:1041A00001610020BDE8F08780B540F2EC1046F2D6
:1041B0000041C1F20000C4F200010822002380E89F
:1041C0000E0000F10C014FF4403C4FF4800E81E8EA
:1041D000085083618383FCF719FE002808BF80BD67
:1041E000BDE88040FCF7D2BC80B582B041F2480007
:1041F000C4F202000168002241F001010160006880
:10420000052100F00100019001980D20FDF76AFAE8
:104210000D20FDF757FA0E2005210022FDF762FA66
:104220000E20FDF74FFA0F2005210022FDF75AFA64
:104230000F20FDF747FA102005210022FDF752FA62
:104240001020FDF73FFA112005210022FDF74AFA60
:10425000112002B0BDE88040FDF734BA10B588B037
:1042600048F23060C0F6000090E80E50D0E90540FA
:104270000191CDE9064001A8002102920393CDF8F7
:1042800010C0CDF814E001F0B1FF40F2E811C1F226
:104290000001086000F0FEFE08B010BD2DE9F04FEF
:1042A0008BB04FF0000841F24C00CDF82480CDF8DF
:1042B0001880C4F20200016840F6000741F0800156
:1042C00001600168C4F6000701F080010A910A99B3
:1042D0000168042641F00401016001684FF480592F
:1042E00001F004010A910A99016801AC41F0010151
:1042F00001600168012501F001010A910A99016834
:104300004FF0030B41F002010160016801F002016E
:104310000A910A99016841F008010160006841F2C0
:10432000010100F008000A900A984FF61800CFF635
:10433000FF70395040F61840C4F6000006604FF692
:104340002840CFF6FF7047F800904FF0904021468C
:10435000CDE90155CDE903B8CDF81480FFF772FE21
:104360004FF0020AA7F580602146CDE90195CDE91D
:104370000388CDF814A0FFF765FE4FF0904021466A
:10438000CDE90195CDE903880595FFF75BFECDE901
:1043900003B840F60C0BC4F6000B0BF57D702146FC
:1043A000CDE90165CDF81480FFF74CFE0820C4F27A
:1043B0000100016807AC65F30301016081686AF3DD
:1043C0000F318160C1686AF30301C1602046CDE905
:1043D0000758ADF824508DF826A0FFF765FD4FF47F
:1043E0000060CDE907082046ADF824508DF826A0DE
:1043F000FFF75AFD2046CDE90798ADF824508DF817
:1044000026A0FFF751FD4FF60C40CFF6FF7039584C
:104410004FF0FF3365F301013950DBF80000402510
:1044200020F44000CBF80000DBF8000020F04070E2
:10443000CBF800004FF60040CFF6FF70395821F05E
:1044400003013950386820F440003860386820F0A3
:10445000407038604EF60C50CEF20000016805271F
:10446000C1F3022181F00702042A28BF3246033932
:1044700003FA02F238BF414627EA020202FA01F1CA
:104480004EF206420901CEF2000211704EF2001106
:10449000CEF200010D600068C0F3022080F0070535
:1044A000042D38BF2E46033803FA06F338BF4046C2
:1044B00027EA030303FA00F0000182F822004FF418
:1044C000807048600BB000F000B830BCBDE8C08F11
:1044D00080B540F27C3045F60041C1F20000C4F2E4
:1044E000000149F6EC420023C1F290024FF0010CAA
:1044F00080E80E10C0E90433C0E906330362FCF71C
:10450000B1FF002818BFFCF741FB40F27C30C1F23C
:1045100000000021FCF75CFF002818BFFCF736FB09
:1045200040F27C30C1F200000021FCF777FF002848
:1045300008BF80BDBDE88040FCF728BB10B590B037
:1045400041F24C00C4F202004169002441F4805160
:104550004161416901F4805106910699016841F079
:10456000020101600068694600F0020006900698AA
:104570003820009002200190032002900520059031
:1045800040F20040C4F60000CDE90344FFF75AFDB5
:104590004FF4827007904FF4E060CDE908044FF4C7
:1045A000007006940A94CDE90B04CDE90D4443F262
:1045B00004040720C4F201040F90201F06A9FFF78E
:1045C000B5FD206820F010002060206840F0080051
:1045D000206010B010BD00002DE9F04391B041F211
:1045E0004C00C4F20200C16840F2004441F4804132
:1045F000C160C168C4F6000401F4804107910799C5
:10460000016801AD41F00401016001684FF002084A
:1046100001F004010791079901684FF0030941F087
:10462000020101600068002600F002000790079870
:104630000C200190052704F580602946CDF80880FC
:10464000CDF80C90CDE904660697FFF7FBFC4FF41C
:10465000005001A981E8010320462946CDE90466FE
:104660000697FFF7EFFC4FF4827008904FF4E0607C
:10467000CDE909064FF4007043F60404CDE90C06B9
:104680000720C4F200041090201F07A907960B967C
:10469000CDE90E66FFF74AFD206820F0100020608B
:1046A000206840F00800206011B0BDE8F0830000F1
:1046B00010B59AB0002401A82C211994CDE9174413
:1046C000CDE91444CDE91244CDE91044CDE90E44BE
:1046D000CDE90C44FBF7E4FF40F21C4044F200013A
:1046E000C1F20000C4F2010144F61F634F2280E8CA
:1046F0001600C0E90334C0E90544FEF731F800288C
:1047000018BFFCF743FA4FF48050169040F21C405B
:10471000C1F2000016A9FEF745F9002818BFFCF702
:1047200035FA40F21C40C1F20000FEF751FD0028AE
:1047300018BFFCF72BFA40F21C400024C1F2000025
:1047400013A913941594FDF7D7FF002818BFFCF7A1
:104750001DFA60200C9040F2DB50CDE90D0440F2D0
:104760001C40C1F200000CA90022CDE90F44CDE9A4
:104770001144FEF759FB002818BFFCF707FA40F276
:104780001C40C1F200000CA90422FEF74DFB0028DA
:1047900018BFFCF7FBF900200590CDE90300CDE937
:1047A00001004FF400510B9040F21C400691C1F201
:1047B000000001A9FDF754FF002818BFFCF7E6F937
:1047C00040F21C40C1F20000FEF782FA1AB010BDA0
:1047D00010B592B068462C21FBF762FF40F26840AA
:1047E00044F20041C1F20000C4F2010100234F2253
:1047F00040F2E73480E81E00C0E904338361FDF72E
:10480000AFFF002818BFFCF7C1F940F26840C1F2C1
:104810000000FEF7DDFC002818BFFCF7B7F96020A8
:104820000B9040F2E7300C9040F268400024C1F257
:1048300000000BA90022CDE90D44CDE90F441194ED
:10484000FEF7F2FA002818BFFCF7A0F94FF4005069
:10485000059040F26840C1F2000069460494CDE939
:104860000244CDE900440A94FDF7FAFE002818BF7F
:10487000FCF78CF940F26840C1F20000FEF728FA1C
:1048800012B010BD10B59AB0002401A82C211994C3
:10489000CDE91744CDE91444CDE91244CDE91044E3
:1048A000CDE90E44CDE90C44FBF7FAFE40F2D030DE
:1048B00042F60041C1F20000C4F2010144F61F6358
:1048C0004F2280E81600C0E90334C0E90544FDF733
:1048D00047FF002818BFFCF759F94FF48050169095
:1048E00040F2D030C1F2000016A9FEF75BF80028B4
:1048F00018BFFCF74BF940F2D030C1F20000FEF7D0
:1049000067FC002818BFFCF741F940F2D0300024C2
:10491000C1F2000013A9CDE913441594FDF7ECFE94
:10492000002818BFFCF732F960200C9040F2DB50F1
:10493000CDE90D0440F2D030C1F200000CA90022F4
:10494000CDE90F44CDE91144FEF76EFA002818BFF7
:10495000FCF71CF940F2D030C1F200000CA904228F
:10496000FEF762FA002818BFFCF710F940F2D030C9
:10497000C1F200000CA90822FEF756FA002818BF61
:10498000FCF704F940F2D030C1F200000CA90C226F
:10499000FEF74AFA002818BFFCF7F8F800204FF499
:1049A0000051CDE906104FF000710590CDE90300EC
:1049B000CDE901000890CDE909100B9040F2D0300C
:1049C000C1F2000001A9FDF74BFE002818BFFCF75B
:1049D000DDF840F2D030C1F20000FEF779F91AB0EC
:1049E00010BD000010B58EB040F2B4400021C1F2FD
:1049F00000004FF080424F2340F2E7340D91CDE9A3
:104A00000B11CDE90811CDE90611CDE90411CDE96D
:104A10000211CDE90011C0E90023C0E902140161CF
:104A20008161FDF79DFE002818BFFCF7AFF84FF439
:104A300080500A9040F2B440C1F200000AA9FDF78C
:104A4000B1FF002818BFFCF7A1F840F2B440C1F252
:104A50000000FEF7BDFB002818BFFCF797F840F2F6
:104A6000B4400024C1F2000007A907940994FDF79F
:104A700043FE002818BFFCF789F86020CDE9000448
:104A800040F2B440C1F2000069460022029404944E
:104A9000FEF7CAF9002818BFFCF778F840F2E730B3
:104AA000019040F2B440C1F2000069460822FEF7CE
:104AB000BBF9002818BFFCF769F840F2B440C1F216
:104AC000000069460C22FEF7AFF9002818BFFCF77A
:104AD0005DF840F2B440C1F20000FEF7F9F80EB004
:104AE00010BD000010B584B040F2005041F200014A
:104AF0000024C1F20000C4F20001092302944F22F5
:104B000080E81600C3608461FDF72AFE002818BF04
:104B1000FCF73CF840F20050C1F2000001A90194FA
:104B20000394FDF7E9FD002818BFFCF72FF804B047
:104B300010BD000080B540F2985043F60001C1F26C
:104B40000000C4F2010100234FF00C0C4FF4E132DD
:104B500080E80E00C0E90333C0E905C3C0E90733AC
:104B60004362FEF74FFF002808BF80BDBDE88040CC
:104B7000FCF70CB880B540F21C6044F20041C1F271
:104B80000000C4F200014EF2603200234FF00C0C22
:104B9000C0F2160280E80E00C0E90333C0E905C385
:104BA000C0E907334362FEF72DFF002808BF80BD30
:104BB000BDE88040FBF7EABF10B540F2A06044F6C4
:104BC000000CC1F20000C4F2000C42F210724FF46B
:104BD000805300214FF4806E0C24C0E900C2C0E96C
:104BE0000231C0E904E4C0E90611C0E90811FEF78A
:104BF00009FF002808BF10BDBDE81040FBF7C6BF85
:104C0000FEE70000FEE700000000000000000000DA
:104C1000EFF30980BFF36F8F154B1A681EF0100F6A
:104C200008BF20ED108A20E9F04F10602DE909003F
:104C30004FF0500080F31188BFF34F8FBFF36F8F99
:104C400002F00EFE4FF0000080F31188BDE809006D
:104C50001968086800F00EB81EF0100F08BF00F0C9
:104C60000EB880F30988BFF36F8F704700BF00BF95
:104C7000F800001030C8B0E8C04FFFF7EDBFB0EC4F
:104C8000088AB0EC08CAFFF7ECBF0000F0B581B0AD
:104C900041F20007C4F20207FA680D469107044684
:104CA00014D0F868216800F0030088424FF001003A
:104CB00040F09F80002900F09C80F8686168C0F394
:104CC00002100130884232D134E000BF206803284E
:104CD0000CD0022816D0012829D13968012211F000
:104CE000020182EA510116D120E000BF3968890330
:104CF00010D43968012211F4802182EA91410AD14D
:104D000014E000BF3968012211F4806182EA912128
:104D100001D10BE00021FA68636822F073026FF0A2
:104D20000F0606EB031310431843F86011B101207E
:104D300001B0F0BD386820F080603860FCF742FBBD
:104D4000064600BF3868000106D5FCF73BFB801B18
:104D50000228F7D944E000BF012D0DD0F5B938691C
:104D600048F2FF01C0F2FF710840D4E9021240EAA4
:104D7000012040EAC26022E048F2FF013869CFF624
:104D8000FF112269002301F1B461CFF6E0730840FE
:104D9000A16803EB02526FF314020DE0386948F288
:104DA000FF016269CFF6FF114FF07E430840A16812
:104DB00003EB026202F07E4240EA012010433861B8
:104DC000386840F080603860FCF7FCFA054600BFA8
:104DD0003868000108D4FCF7F5FA401B0228F7D91F
:104DE000032001B0F0BD00BFA069396908433861F4
:104DF000002001B0F0BD000082B003F021FA40F2C3
:104E0000E01A40F2684B40F24D15002640F2E737B9
:104E10000124C1F2000AC1F2000B4FF001084FF06B
:104E20000109019011E000BF644240F2B443C1F2B5
:104E300000031B6818649AF80000002818BF4FF49C
:104E40007A71DBF800004163DA6301A8032102F004
:104E50002BFA45FA89F5A8B2B0F57A7F12D000286E
:104E600008BFC9F1000946FA88F6B1B289B1B1F5B7
:104E70007A7F08BFC8F1000847FA84F7BAB27AB956
:104E8000D2E700BFC9F1000946FA88F6B1B200299D
:104E9000EDD1C8F1000847FA84F7BAB2002AC3D0AE
:104EA000B2F57A7F08BF6442BFE70000000000004F
:104EB000074B1968086800F00DB880F30988BFF344
:104EC0006F8F4FF0000080F31188704700BF00BF64
:104ED000F800001030C8B0E8C04FFFF7EEBF000088
:104EE00040F2E11540F20044C1F20005C4F60004AE
:104EF0002A7820464FF48051FCF75EFA012001F039
:104F00003FF9F5E7FAB016AC20464FF4C871FBF74D
:104F1000C7FB2F480DF1280809902DA0071D8ECF43
:104F200000F1140E88E88E0000F12403056A0ECB10
:104F3000006B9EE84050CDE911513249159031A0E7
:104F4000071D0E96CDE9132301918ECFD0E905659B
:104F5000C069CDE90FCE0DF1080C8CE88E00CDE9CB
:104F60000665089003F06CF940F2E01740F21C6609
:104F7000EA46C1F20007C1F200060DF124080DF166
:104F80000409009011E000BF02F086FA304649465D
:104F90001E224FF47A73FEF7E9FE304621464FF4A5
:104FA000C8724FF47A73FEF7E1FE5046642102F0B6
:104FB0007BF93D7820464FF4C871FBF771FB204622
:104FC000002DE1D102F0E8FA304641463222E0E716
:104FD0000D0AC8CECEF1C3FB2020C8CECEF1D7B487
:104FE000CCAC2020D3C5CFC8BCB62020CAA3D3E008
:104FF000D5BB2020C8CECEF1D0F2BAC50D0A000034
:10500000000000000D0AC8CECEF1C3FB2020D4CB97
:10501000D0D0BCC6CAFD2020CAB9D3C3C2CA0D0AAB
:105020000000000080B54FF0500080F31188BFF3FE
:105030006F8FBFF34F8F03F009F930B14EF6045074
:10504000CEF200004FF080510160002080F3118803
:1050500080BD00004EF68850CEF20000016841F499
:10506000700101607047000080B540F20050C1F24D
:105070000000FDF767FD40F2E410C1F20000016896
:105080000131016080BD000040F24C50C1F20000CF
:10509000FDF758BD2DE9F041A8B048F2BC60C0F65C
:1050A000000090E82E00D0E9044C80690DF1840ED8
:1050B0008EE82E00279021A80021CDE9254C4FF045
:1050C000000801F093F840F2E811C1F2000140F24B
:1050D0009C140968C1F200042060084602F058F9E7
:1050E00048F2A060C0F6000090E8EE0080690DF183
:1050F000680C8CE8EE0020901AA8002101F076F8E8
:10510000606018A80121CDE9188801F047F8A06077
:1051100048F28460C0F6000090E88E00D0E9046593
:1051200080690DF1440C8CE88E00179011A80021C5
:10513000CDE9156501F05AF8E0600EA80121CDE92E
:105140000E8801F02BF8206148F24C60C0F6000098
:1051500090E88E00D0E9046580690DF11C0C8CE8A4
:105160008E000D9007A80021CDE90B6501F03EF8F7
:10517000606148F26860C0F6000090E88E00D0E9F7
:10518000046580698DE88E00069068460021CDE9AF
:10519000046501F02BF8A06128B0BDE8F0810000A3
:1051A00080B5416ACA070DD18A0716D44A071FD4B1
:1051B0000A0728D4CA0631D48A063AD44A0658D5F2
:1051C00042E000BF0268D0F828C0536823F40033DF
:1051D00043EA0C0353608A07E8D50268D0F82CC074
:1051E000536823F4803343EA0C0353604A07DFD546
:1051F0000268D0F830C0536823F4802343EA0C03DC
:1052000053600A07D6D50268D0F834C0536823F437
:10521000004343EA0C035360CA06CDD50268D0F8B8
:1052200038C0936823F4805343EA0C0393608A06E2
:10523000C4D50268D0F83CC0936823F4005343EA15
:105240000C0393604A0614D50268D0F840C0536836
:10525000BCF5801F23F4801343EA0C03536008D18C
:10526000D2F804C0D0F844E02CF4C00343EA0E03A3
:105270005360090658BF80BD0168806C4A6822F4FB
:1052800000221043486080BD806A0021A0F85A10B7
:10529000A0F85210FEF7B4B8B0B505462A69D5E9B2
:1052A000021300680A436969D5F81CE011430268DB
:1052B00046F6F314CEF6FF7441EA0E012240114384
:1052C0000160416848F2000C21F4405119434160EB
:1052D000AA69C4F2000C60451CBF296A0A438168B0
:1052E000102321F430611143816047F6FF71C4F24D
:1052F0000001884212DC44F20041C4F200018842FD
:105300001CD044F60001C4F2000188422CD141F2C5
:105310008801C4F2020109680B091DE0604515D03F
:1053200043F60001C4F2010188421DD141F2880117
:10533000C4F202010B6860A212E000BF41F28801D2
:10534000C4F2020109688B0806E000BF41F288013F
:10535000C4F2020109688B0A48F22072C0F600020A
:1053600003F0030152F82130604542F20040C0F2E0
:10537000F40015D0BEF5004F22D1082B4FF00101EB
:1053800000F29580DFE803F00654609358939393FE
:105390005E0000BFFCF7E8FC002855D14FE000BFDD
:1053A000082B4FF0010100F28280DFE803F0058056
:1053B00023801B8080802100FCF7D6FCD0B914E04C
:1053C000082B4FF0010100F27280DFE803F0055373
:1053D0005F70577070705D00FCF7C6FC002855D1F7
:1053E0004FE000BFFCF7ECFC20B900215FE000BFFC
:1053F0004FF400406A6802EB420188424FF001011D
:1054000055D31303984252D8010E000210EB5200FC
:1054100041F100010023FAF731FF4FF60052A0F5E9
:105420004071C0F20F0291423BD301213FE000BF27
:10543000FCF7B0FC40B902E0FCF7C2FC20B9002147
:1054400035E000BF4FF4004069684A0802EB4000B5
:10545000B0FBF1F04FF6EF72A0F11001914207D8C6
:105460004FF6F0710140C0F34200084419E000BF5C
:1054700001211CE0FCF78EFC40B902E0FCF7A0FC27
:1054800020B9002113E000BF4FF4004069684FF6D7
:10549000EF7200EB5100B0FBF1F0A0F1100191426E
:1054A00004D82968C860002101E000BF0121002262
:1054B00008466A66AA66B0BD01000000040000004C
:1054C00002000000080000002DE9F04104460068D9
:1054D0001546C2690E461140891BB1FA81F149098E
:1054E000A94240F0A080DDF81880B8F1000F29D063
:1054F00018F1010140F08080C1693140891BB1FA87
:1055000081F14909A94240F08E80C1693140891B6F
:10551000B1FA81F14909A94240F08580C169314061
:10552000891BB1FA81F14909A9427CD1C169314095
:10553000891BB1FA81F14909A942DDD00020BDE8FB
:10554000F08100BFFBF73EFF206850E8000F2168A4
:1055500020F4D07041E80002BAB3206850E8000F90
:10556000216820F4D07041E8000272B3206850E84E
:10557000000F216820F4D07041E800022AB32068AF
:1055800050E8000F216820F4D07041E80002002AA2
:10559000DAD11AE0206850E8020F216820F00100FB
:1055A00041E80202DAB1206850E8020F216820F0D9
:1055B000010041E8020292B1206850E8020F216820
:1055C00020F0010041E802024AB1206850E8020FD1
:1055D000216820F0010041E80202002ADAD12020EF
:1055E000A06704F17C0020210160002084F8740091
:1055F0000320BDE8F08100BF1F4600BFFBF7E2FEBD
:10560000C01B4045A0D820680168490744BFC16954
:105610005FEA01510AD4C0693040801BB0FA80F0C3
:105620004009A842EAD00020BDE8F0814FF40061B3
:10563000016200BF50E8000F216820F4D07041E8FB
:105640000002C2B3206850E8000F216820F4D07037
:1056500041E800027AB3206850E8000F216820F486
:10566000D07041E8000232B3206850E8000F216892
:1056700020F4D07041E80002EAB12068DAE700BF08
:10568000206850E8020F216820F0010041E8020282
:10569000DAB1206850E8020F216820F0010041E8EB
:1056A000020292B1206850E8020F216820F0010048
:1056B00041E802024AB1206850E8020F216820F058
:1056C000010041E80202002ADAD12020A067E06749
:1056D00004F1800087E7000040F2A060C1F2000002
:1056E000FDF790BEFEE70000D0E901108861704729
:1056F000F0B50468858961F07F0C0021A668B607C3
:105700001CD4CEB2B54219D3A668B60716D441F060
:105710000106F6B2B54211D3A668B6070ED441F021
:105720000206F6B2B54209D3A668B60706D441F020
:105730000306F6B2B54201F10401DFD284F80CC0D1
:105740000168B0F80CE000258E6836061CD5EEB274
:10575000B64519D38E68360616D545F00106F6B261
:10576000B64511D38E6836060ED545F00206F6B260
:10577000B64509D38E68360606D545F00306F6B25F
:10578000B64505F10405DFD200258E68F6071CD169
:10579000EEB2B64519D38E68F60716D145F001066C
:1057A000F6B2B64511D38E68F6070ED145F0020663
:1057B000F6B2B64509D38E68F60706D145F0030662
:1057C000F6B2B64505F10405DFD20E7B002A7DD086
:1057D0004FF0000C0BE000BF097B03F80C100CF13C
:1057E000010C944508BFF0BD0168B0F80CE0847B63
:1057F00000258E68B6071FD4EFB21FFA8EF6BE42A0
:105800001AD38F68BF0717D445F00107FFB2BE4215
:1058100012D38F68BF070FD445F00207FFB2BE4214
:105820000AD38F68BF0707D445F00307FFB2BE4213
:1058300005F10405DDD200BF0C730168B0F80CE07F
:1058400000248D682D061DD5E5B2AE451AD38D68AE
:105850002D0617D544F00105EDB2AE4512D38D6883
:105860002D060FD544F00205EDB2AE450AD38D6882
:105870002D0607D544F00305EDB2AE4504F104044E
:10588000DFD200BF00248D68ED07A5D1E5B2AE459B
:10589000A2D38D68ED079FD144F00105EDB2AE456E
:1058A0009AD38D68ED0797D144F00205EDB2AE456D
:1058B000FFF492AF8D68ED077FF48EAF44F00305DF
:1058C000EDB2AE4504F10404DDD285E7F0BD000081
:1058D0000EC0086840F040000860704710B590F8AE
:1058E0000EC00368828961F07F0E00219C68A407C6
:1058F0001CD4CCB2A24219D39C68A40716D441F0A0
:105900000104E4B2A24211D39C68A4070ED441F072
:105910000204E4B2A24209D39C68A40706D441F071
:105920000304E4B2A24201F10401DFD283F80CE0E7
:105930000168838900228C6824061CD5D4B2A34256
:1059400019D38C68240616D542F00104E4B2A342B0
:1059500011D38C6824060ED542F00204E4B2A342AF
:1059600009D38C68240606D542F00304E4B2A342AE
:1059700002F10402DFD200228C68E4071CD1D4B209
:10598000A34219D38C68E40716D142F00104E4B2B3
:10599000A34211D38C68E4070ED142F00204E4B2B2
:1059A000A34209D38C68E40706D142F00304E4B2B1
:1059B000A34202F10402DFD20A7B00228C68A40712
:1059C0001CD4D4B2A34219D38C68A40716D442F0D5
:1059D0000104E4B2A34211D38C68A4070ED442F0B0
:1059E0000204E4B2A34209D38C68A40706D442F0AF
:1059F0000304E4B2A34202F10402DFD281F80CC036
:105A00000168808900228B681B061CD5D3B298429E
:105A100019D38B681B0616D542F00103DBB29842FE
:105A200011D38B681B060ED542F00203DBB29842FD
:105A300009D38B681B0606D542F00303DBB29842FC
:105A400002F10402DFD200228B68DB071CD1D3B243
:105A5000984219D38B68DB0716D142F00103DBB201
:105A6000984211D38B68DB070ED142F00203DBB200
:105A7000984209D38B68DB0706D142F00303DBB2FF
:105A8000984202F10402DFD2087B10BDD0E9011078
:105A90008862704710B5D0F800E0B0F80CC0002361
:105AA000DEF80840A4071FD4DCB2A4451CD3DEF8FE
:105AB0000840A40718D443F00104E4B2A44513D36A
:105AC000DEF80840A4070FD443F00204E4B2A44572
:105AD0000AD3DEF80840A40706D443F00304E4B276
