:020000040800F2
:10000000286000202D020008AD40000829380008B3
:10001000A94000082504000821490008000000004C
:10002000000000000000000000000000A1420008E5
:100030007D04000800000000B14000088143000872
:10004000470200084702000847020008470200086C
:10005000470200084702000847020008470200085C
:10006000470200084702000847020008470200084C
:1000700047020008410400084D0400085904000824
:1000800065040008710400084702000847020008E0
:100090002904000835040008470200084702000848
:1000A000470200084702000847020008470200080C
:1000B000470200080000000000000000470200089E
:1000C00047020008470200084702000847020008EC
:1000D00047020008470200084702000815490008C7
:1000E000470200084702000800000000000000006E
:1000F0000000000000000000000000000000000000
:10010000000000004702000800000000470200084D
:100110000000000000000000C5430008D1430008B3
:10012000470200084702000847020008470200088B
:10013000470200080000000000000000000000006E
:1001400047020008470200084702000800000000BC
:10015000470200084702000847020008470200085B
:10016000470200084702000847020008000000009C
:1001700047020008470200080000000000000000DD
:1001800047020008470200084702000800F002F892
:1001900000F03CF80AA090E8000C82448344AAF1E5
:1001A0000107DA4501D100F031F8AFF2090EBAE8E3
:1001B0000F0013F0010F18BFFB1A43F0010318479B
:1001C0008C570000AC570000103A24BF78C878C1A3
:1001D000FAD8520724BF30C830C144BF04680C604D
:1001E000704700000023002400250026103A28BF95
:1001F00078C1FBD8520728BF30C148BF0B60704799
:100200001FB505F056FB1FBD10B510BD00F0D0F8AE
:100210001146FFF7F5FF04F085FB00F0EEF803B49C
:10022000FFF7F2FF03BC00F0F5F800000948804733
:1002300009480047FEE7FEE7FEE7FEE7FEE7FEE7C8
:10024000FEE7FEE7FEE7FEE704480549054A064BE0
:1002500070470000B14300088D010008285A0020B3
:1002600028600020285C0020285C002053EA020C53
:1002700000F069802DE9F04B4FF00006002B1FBF06
:10028000B3FA83F503FA05F424FA05F65E4012BFCB
:100290001643B2FA82F502FA05F4C5F120051EBF35
:1002A00022FA05FC44EA0C04203556EA044C4FEAD5
:1002B000144418BF641C4FF000084FF0000990422E
:1002C00071EB030C39D3002919BFB1FA81F701FA98
:1002D00007F6B0FA80F700FA07F6C7F120071EBF4D
:1002E00020FA07FC46EA0C062037B6FBF4FCA7EB25
:1002F0000507103F07F01F0BCBF120062CFA06F67E
:100300000CFA0BFB44BFB3460026202FA4BF5E4669
:100310004FF0000B5BEA060C08BF4FF0010B19EB26
:100320000B0948EB0608ABFB027C06FB02CC0BFB7F
:1003300003CCC01B71EB0C01C1E70B4602464146E2
:100340004846BDE8F08B13B5084318BF4FF0FF30A7
:100350000146AFF30080BDE81C4070474FF000023B
:1003600000B5134694469646203922BFA0E80C50AB
:10037000A0E80C50B1F12001BFF4F7AF090728BF86
:10038000A0E80C5048BF0CC05DF804EB890028BF02
:1003900040F8042B08BF704748BF20F8022B11F02B
:1003A000804F18BF00F8012B7047704770477047A7
:1003B000754600F02BF8AE4605006946534620F01E
:1003C0000700854618B020B5FFF73EFFBDE8204086
:1003D0004FF000064FF000074FF000084FF0000B01
:1003E000AC46ACE8C009ACE8C009ACE8C009ACE870
:1003F000C00921F007018D46704710B50446AFF3E0
:1004000000802046BDE81040FFF709BF0048704754
:100410001000002001491820ABBEFEE726000200B4
:1004200070470000FEE7000040F24010C2F20000FA
:1004300000F02EB840F24010C2F2000000F028B8E0
:1004400040F28820C2F2000000F084BA40F2B010FE
:10045000C2F2000000F07EBA40F26810C2F2000062
:1004600000F078BA40F2F810C2F2000000F072BA60
:1004700040F24020C2F2000000F06CBA7047000069
:10048000EFF3108072B600BFFEE700007047000077
:100490002DE9F04F81B0044600684669D0F8049019
:1004A0008768D0F80CB0D0F810A0D0F81880F10709
:1004B00004D1002530071DD424E000BFF90710D077
:1004C0000121BA07816009D4780700F1AF803807AD
:1004D00000F1B680204600F0DDF902E0204600F091
:1004E000DBF90025F80500F18780F80300F1B18001
:1004F000300707D51BF0100004D0206845F40075C4
:100500001021C160700708D51BF0080005D02068D5
:100510000821C160204600F0B3F9B00706D5206875
:10052000C068800702D0204600F0ACF9700607D5FD
:100530001AF0100004D0206845F480651021016194
:10054000B00608D51AF0080005D02068082101611E
:10055000204600F099F9F00606D52068006980076A
:1005600002D0204600F092F9B00308D519F010002F
:1005700005D0206810214160204600F089F9F00381
:1005800008D519F0080005D02068082141602046F0
:1005900000F08CF9300440F19B805FEA497040F133
:1005A000948006F4807008EA102028435FEA88717E
:1005B000014648BF41F00201B20558BF01465FEA5B
:1005C00048700D4648BF45F00405700558BF0D46FC
:1005D000300540F17A8018F0700000F07680103815
:1005E000000905286CD8DFE800F003595D616569F2
:1005F00045F0080564E000BF20684FF48071BA053B
:1006000081600BD4780515D438051DD4204600F040
:1006100045F9F8037FF56CAF1BE000BF204600F002
:100620003FF9F8037FF564AF13E000BF4FF40065B6
:1006300058E700BF05F50055F8037FF559AF08E00E
:100640004FF480554EE700BF05F58045F8037FF570
:100650004FAF20684FF48031BA0381600AD4780329
:1006600010D4380314D4204600F01CF930073FF5AD
:1006700041AF47E7204600F017F930073FF53AAFA2
:1006800040E700BF05F5004530073FF533AF39E7D8
:1006900005F5803530073FF52DAF33E745F0100500
:1006A0000EE000BF45F020050AE000BF45F0400520
:1006B00006E000BF45F0800502E000BF45F480750C
:1006C0002068816921F07001816120680421416006
:1006D00055B1606A40EA05012046616201B000F050
:1006E00006B8FFF7D3BE00BF01B000F005B830BCBC
:1006F000BDE8C04FFFF7F5BF30BCBDE8C08F0000BC
:10070000B0B5C8B1044690F8200010B9204600F0FA
:1007100071F82068016841F00101016000F0CCFA35
:10072000054600BF20684168C90707D100F0C4FA38
:10073000401B0B28F6D312E00120B0BD016821F068
:100740000201016000F0B8FA054600BF2068416868
:1007500089070DD500F0B0FA401B0B28F6D3606A6C
:10076000052140F400306062012084F82010B0BD03
:10077000217E0268012922F0800208BF80320260D7
:10078000617E0268012922F0400208BF4032026007
:10079000A17E0268012922F0200208BF20320260F7
:1007A000E17E0268012922F0100218BF10320260B7
:1007B000217F0268012922F0080208BF0832026086
:1007C000617F0268012922F0040208BF043202603E
:1007D000D4E901C2D4E9033561691A432A431143BC
:1007E000ACF101021143C16100200121606284F873
:1007F0002010B0BD80B586B0006846F20041C4F25A
:100800000001884202D006B080BD00BF41F24C001A
:10081000C4F20200C16841F00071C160C16801F01A
:10082000007101910199016841F0020101600068C5
:1008300001A900F00200019001984FF4407001906E
:1008400002200290002003900320049009200590CC
:1008500040F20040C4F6000000F038F914200521F1
:10086000002200F0B9FB142000F0A6FB15200521A2
:10087000002200F0B1FB152000F09EFB06B080BD09
:10088000704700007047000070470000704700008C
:10089000704700007047000070470000704700007C
:1008A000704700007047000070470000704700006C
:1008B000014690F82500022818D10868D1E910C334
:1008C000026822F00E020260026822F00102026059
:1008D00003F01C00012202FA00F0CCF80400002012
:1008E00081F82520002281F8242070470420C86365
:1008F0000120002281F824207047000080B590F884
:100900002510022922D10168D0F838E0D0E910C3BF
:100910000A68BEF1000F22F00E020A600A6822F097
:1009200001020A6003F01C014FF0010202FA01F11A
:10093000CCF804104FF0000180F8252080F8241036
:1009400001D0F0470021084680BD00BF0421C163EB
:10095000012080BDB0B5D0E910C30268DCF80010FA
:1009600003F01C030424D2F800E09C400C4218BFA2
:100970001EF0040522D102249C400C4218BF1EF038
:10098000020529D1D940090724D51EF0080108BF66
:10099000B0BD116821F00E011160012101FA03F2CE
:1009A000CCF80420C16380F82510416B002280F848
:1009B000242079B1BDE8B040084700BF116889061E
:1009C00003D4116821F004011160CCF80440016BDC
:1009D0000029EFD1B0BD00BF1168890606D41168A7
:1009E00021F00A011160012180F82510CCF80440A3
:1009F000C16A0022002980F82420DBD1EAE7000048
:100A0000002804BF012070472DE9F04740F2000C98
:100A1000C4F2020C02684FF6F8310CF5816ECBF689
:100A2000FD71724538BF01F580614CF6CD4311442C
:100A3000CCF6CC43A1FB03136FF003010CF58067E8
:100A400001EA930A4FF00203D0E90249D0F810807E
:100A50003CBF0027C4F20207C0E9107A80F82530B5
:100A6000136847F6F077BB432343D0E9057643EAA2
:100A7000090343EA0803D0E907513B4333432B43BF
:100A80001943B4F5804F116015D04FF495640AF006
:100A90001C010F23724538BFA8245CF804208B404A
:100AA0009A434CF8042042685CF8043002FA01F1E1
:100AB00019434CF8041000210122C16380F825205D
:100AC00080F82410BDE8F047084670472DE9F04F44
:100AD00084B08E4641F20002C4F60002DEF8004007
:100AE00007219042019008BF0421002C009100F0E2
:100AF000D7800198002500F138424FEAB2230098D0
:100B0000012700264FF00008042B38BF184600903C
:100B1000CDF808E00EE000BFDEF8004008F1010863
:100B200034FA07F106F1020607F1010705F10405A1
:100B300000F0B680A7F1010A012000FA0AF314EAD6
:100B40000309E9D0DEF804C00CF0030BABF101049B
:100B5000012C17D80198744681680322E468B240DA
:100B60009143B4402143816041684FEA480E994364
:100B7000CCF3001303FA0AF30446D043194361602F
:100B80000CE000BF0321B140019CC843BBF1030F3F
:100B9000B64603D1B6464FF0030B23E0E168029A54
:100BA00001409368BBF1020F03FA0EF341EA03011F
:100BB000E16017D16FF0030101EA5A01214405F009
:100BC0001C040F23D1F820C003FA04FB13692CEA9C
:100BD0000B0CA34043EA0C03019C0B62D2F804C047
:100BE0000CF0030B21680BFA0EF201401143216057
:100BF000DDF808E01CF4403F8ED041F26000C4F202
:100C00000200016840F2004C41F0010101600168FE
:100C1000C4F2010C01F00101039103992AF00301D0
:100C20004FF6084A6144CFF6FF7A05F00C030F2017
:100C300051F80A2000FA03F40098A24300FA03F3E3
:100C40001A4341F80A20DCF80810DEF8042041EAD3
:100C5000090340F20C40D40258BF21EA0903CCF842
:100C60000830C4F201000168940241EA090358BF48
:100C700021EA09030360DCF80410940341EA090344
:100C800058BF21EA0903CCF80430DCF80010D20385
:100C900041EA090358BF21EA0903CCF800303BE7D9
:100CA00004B000F000B830BCBDE8C08F1823002AA3
:100CB00008BF2823C150704745F2CC70C2F2000033
:100CC0000068704790F84120202A03D190F8402016
:100CD000012A01D102207047242280F841200268B5
:100CE000136823F001031360136823F48053136027
:100CF000136819431160116841F00101116020214E
:100D000080F84110002180F840100846704700002C
:100D100090F84120202A03D190F84020012A01D1E7
:100D200002207047242280F841200268136823F0D3
:100D300001031360136823F4706343EA0121116017
:100D4000116841F001011160202180F8411000215B
:100D500080F8401008467047002804BF0120704703
:100D600010B5044690F8410028B9002084F84000EE
:100D7000204600F043F8242084F8410094E809104C
:100D8000E2680168012A21F00101016023F070612D
:100D90000161816821F40041816003D14CF400417C
:100DA000816007E04CF40441022A816004BF4FF4E3
:100DB00000614160416804F1100C41F0007141F4A0
:100DC00000414160C16821F40041C1609CE80E10FF
:100DD000114341EA0321C160216A41EA0C0101602B
:100DE000016841F00101016000202021606484F865
:100DF0004110206384F8420010BD000010B59EB081
:100E0000044602A804305821FFF7A8FA206845F6E6
:100E10000041C4F20001884202D01EB010BD00BFE4
:100E20004FF48070029002A800F060F9002818BF0B
:100E3000FFF726FB41F24C04C4F2020420681221A1
:100E400040F004002060206800F004001990199818
:100E500003201A9100211990CDE91B1004201D9048
:100E600040F60000C4F6000019A9FFF72FFEE06865
:100E700040F40000E060E06800F400000190019898
:100E80001EB010BD40F2000045F2CC71C2F200006D
:100E9000C2F2000100780A68104408607047000040
:100EA00080B5032000F0C4F80F2000F009F80028F6
:100EB0001CBF012080BD00F061F8002080BD000053
:100EC000B0B586B041F25801C4F202010A68044686
:100ED00042F020020A60096801A801F02001019196
:100EE0000199694600F098FB049D002D18BF01256B
:100EF00000F0B4FB4DF68361A840C4F21B31A0FBA7
:100F000001014FF0FF3000EB914140F2685041F297
:100F10000042C2F20000C4F2000240F2E7330025B2
:100F2000C0E90021C0E902530561856101F074F94F
:100F3000054618B1284606B0B0BD00BF40F2685063
:100F4000C2F2000001F05AFA05460028F2D137201B
:100F500000F032F80F2C0DD8372021460022002552
:100F600000F03AF840F20400C2F2000004602846A3
:100F700006B0B0BD0125284606B0B0BD82B041F232
:100F80005800C4F202008168002241F00101816032
:100F9000816801F0010101910199016841F08051DE
:100FA000016000680F2100F08050009000986FF001
:100FB000010002B000F010B8002848BF704700F0F0
:100FC0001F01012202FA01F14EF200124009CEF295
:100FD000000242F82010704710B54EF60C5CCEF2BD
:100FE000000CDCF80030C3F3022E8EF00704042C52
:100FF00028BF0424BEF103034FF0FF3E0EFA04F4B1
:1010000038BF0023A14399400EFA03F39A431143DA
:1010100000F00F02043A624409010C3200F160430F
:10102000B0F1FF3FC8BF03F56442117010BD00006E
:101030004EF60C51CEF200010A684FF6FF031A403B
:1010400060F30A2242F0806040F0FD700860704753
:1010500047F20001C4F200010A68B0F5007F02F413
:10106000C06031D1B0F5007F2CD00868012262F356
:101070004A20086040F20800C2F2000000683222F4
:1010800050434DF68362C4F21B32A0FB0202900C67
:101090004A69520511D5421C0FD04A6952050CD538
:1010A00058B14A69520508D5012806D04A69520547
:1010B00003D50228A0F10400EAD14869400544BFE5
:1010C0000320704700207047B0F5806FFAD00868A1
:1010D000022262F34A2008600020704747F20000B5
:1010E000C4F20000006800F4C06070472DE9F043CE
:1010F00081B00446407841F288070007C4F2020735
:1011000021D5606C80B1B0F5400F15D0B0F5000F5F
:1011100040F02A8157F87C0C40F4803047F87C0C72
:101120004FF400000AE000BF201D002102F0FEFF86
:10113000814650B9606C01E04FF44000396821F4F9
:101140004001084338604FF00009A078800751D56E
:1011500057F8300C10F080580BD157F8300C40F095
:10116000805047F8300C57F8300C00F08050009059
:10117000009847F20005C4F20005286840F480702A
:101180002860FFF799FD06462868C00508D4FFF7D8
:1011900093FD801B0228F7D94FF0030921E000BF1F
:1011A000B9F1000F1DD1B86810F4407011D0A16DD5
:1011B00088420BD0B868B96820F4407041F480319F
:1011C000B960B96821F48031B960B860C00740F0F7
:1011D000D380B868A16D20F4407008434FF0000937
:1011E000B860B8F1000F05D157F8300C20F08050EE
:1011F00047F8300C2168C80712D1880718D448076F
:101200001ED4880624D488052AD4480530D448063C
:1012100036D408063CD4C80542D4080348D459E063
:101220003868226A20F00300104338608807E6D54A
:101230003868626A20F00C00104338604807E0D537
:101240003868A26A20F03000104338608806DAD58A
:101250003868E26A20F44060104338608805D4D5CD
:101260003868E26B20F44020104338604805CED542
:101270003868226C20F44010104338604806C8D506
:101280003868226B20F44050104338600806C2D5FD
:101290003868626B20F4404010433860C805BCD504
:1012A0003868A26B20F4403010433860080311D531
:1012B0003A68A06C22F040620243B0F1806F3A605D
:1012C0001ED0B0F1006F05D157F87C0C40F48010AF
:1012D00047F87C0C480327D53A68E06C22F040625E
:1012E0000243B0F1806F3A6016D0B0F1006F1BD1AD
:1012F00057F87C0C40F4801047F87C0C14E000BFD9
:10130000201D012102F012FF2168002818BF81462C
:101310004803E1D408E000BF201D012102F006FFD0
:101320002168002818BF8146480410D53868226D0E
:1013300020F040501043B2F1805F386007D1201D8B
:10134000022102F0F3FE2168002818BF814608043C
:1013500005D53868616D20F0804008433860484604
:1013600001B0BDE8F08300BF4FF00109A07880070D
:101370003FF5EEAE3EE700BFFFF79EFC064641F2AA
:1013800088354FF0030900BFB86880073FF521AFEB
:10139000FFF792FC801BA842F6D922E72DE9F04323
:1013A00081B000286BD042F20008C4F20208044663
:1013B000D8F800000D4600F0070088420CD2D8F89B
:1013C000000020F007002843C8F80000D8F800000B
:1013D00000F00700A84252D1206841F2080910F03D
:1013E0000201C4F202090DD0A268D9F8003003F05E
:1013F000F0039A4206D9D9F8003023F0F0031A43DB
:10140000C9F80020C2072DD169B1A168D9F8002020
:1014100002F0F002914206D2D9F8002022F0F00248
:101420001143C9F80010D8F8001001F00701A942D3
:101430000CD9D8F8001021F007012943C8F8001092
:10144000D8F8001001F00701A94218D141071BD4B8
:10145000000723D4D9F80000D9F8041010F00C00CC
:101460002CD131E0606800285ED0022800F07E8038
:10147000032840F0818059F8081C890158D40120C4
:1014800001B0BDE8F08300BFD9F80010E26821F494
:10149000E0611143C9F800100007DBD5D9F800005E
:1014A000216920F4605040EAC100C9F80000D9F871
:1014B0000000D9F8041010F00C0005D00C2829D138
:1014C00001F00301012925D159F8081C090703D4AB
:1014D000D9F88C10090A02E059F8081C090945F6E8
:1014E000001201F00F01C0F6000252F8211000288E
:1014F0000A4618BF00220C2871D1D9F8040000F068
:101500000300022846D0032804BF41F20021C0F2A4
:101510007A0143E0042857D008285BD141F2002229
:10152000C0F27A025BE000BF59F8081C8907A6D513
:10153000D9F8001021F003010843C9F80000FFF7B3
:10154000BBFB064641F28837D9F80000616800F01D
:101550000C00B0EB810F15D0FFF7AEFB801BB8423B
:10156000F2D9032001B0BDE8F08300BF59F8081C90
:1015700089037FF584AFDBE759F8081C49057FF53F
:101580007EAFD5E7206800F0020100297FF43DAF6F
:1015900049E700BF42F20041C0F2F401D9F804006B
:1015A000D9F80420C0F30210C2F306225143D9F83F
:1015B00004200130B1FBF0F0C2F34161022202EBE2
:1015C0004101B0FBF1F20AE042F20042C0F2F40243
:1015D00005E000BF002200210C283FF48EAFD9F8AF
:1015E000000045F6E801C0F30310C0F60001085CF6
:1015F00000F01F0022FA00F140F20400C2F20000E5
:1016000040F208020068C2F20002116001B0BDE8B9
:10161000F043FFF755BC00000F22026041F20802C0
:10162000C4F20202136803F003034360136803F07B
:10163000F0038360136803F4E063C36012684FF43F
:10164000E06303EAD202026142F20000C4F2020047
:10165000006800F0070008607047000040F20800D2
:1016600041F20801C2F20000C4F2020100680968F8
:1016700045F6F802C1F30221C0F60002515C01F008
:101680001F01C8407047000040F2080041F2080105
:10169000C2F20000C4F202010068096845F6F802CF
:1016A000C1F3C221C0F60002515C01F01F01C84025
:1016B0007047000041F20C01C4F2020151F8040C21
:1016C00010F00C02086805D00C2A29D100F00300A4
:1016D000012825D151F80C0C000703D4D1F888005B
:1016E000000A02E051F80C0C000945F6001300F066
:1016F0000F00C0F6000353F82030002A184618BF28
:1017000000200C2A18BF7047086800F00300022868
:1017100010D0032804BF41F20023C0F27A030DE089
:10172000042A1FD0082A23D141F20020C0F27A00F7
:10173000704700BF42F20043C0F2F40308680A6831
:10174000C0F30210C2F30622096801305A43B2FB0B
:10175000F0F0C1F34161022202EB4101B0FBF1F074
:10176000704700BF42F20040C0F2F400704700BF73
:1017700000200023C5E700002DE9F04383B00028D6
:1017800000F0388341F200060446C4F20206B06855
:10179000F168227800F00C09D00601F003081DD48E
:1017A0002078C00700F08180B9F1080F76D0B9F138
:1017B0000C0F08BFB8F1030F70D06068B0F5803F20
:1017C00007D0B0F5A02F40F04B82306840F4802065
:1017D0003060306840F4803030604CE2B9F1000F86
:1017E0001ED0B9F10C0F08BFB8F1010F18D0A169D4
:1017F0003068002900F0968140F001003060FFF76A
:101800005BFA05463068800700F19E81FFF754FAC5
:10181000401B02284FF00300F4D903B0BDE8F08369
:101820003068800703D5A069002800F0E382256AAC
:101830003068000700F13E81D6F89400000900F0FE
:10184000F000854200F23C813068B9F1000F40F0B1
:1018500008003060306820F0F00040EA0500306099
:101860007068E16920F47F4040EA0120706040F038
:10187000AF82B06DC00000F14B82B06D40F080507F
:10188000B065B06D00F0805002900298FFF726FC22
:10189000B16D21F08051B1653CE200BF306880033A
:1018A00003D56068002800F0A582207880072DD538
:1018B000B9F1040F1CD0B9F10C0F08BFB8F1020F39
:1018C00016D0E1683068002900F0E48140F48070AF
:1018D0003060FFF7F1F90546306840050FD4FFF797
:1018E000EBF9401B02284FF00300F5D995E700BF44
:1018F0003068400503D5E068002800F07B827068FE
:10190000216920F0F85040EA0160706020780007FB
:1019100060D42078400775D42078800600F1AE802E
:10192000A06A002800F00C83022840F01F81F068B4
:10193000E16A00F003028A4240F03081226B6FF0CE
:101940000F0300F0700103EB0212914240F0268178
:10195000616B00F4FE42B2EB012F40F01F81A16BDE
:1019600000F07842B2EBC16F40F01881E26B0023C7
:10197000CFF6E07303EB025200F4C0016FF31402E0
:10198000914240F00B81216C4FF07E4202EB0161ED
:1019900000F0C06001F07E41884240F0FF80306876
:1019A000800100F1CD82306840F080703060F068D6
:1019B00040F08070F060FFF77FF9044630688001E6
:1019C00000F1BE82FFF778F9001B02284FF00300F8
:1019D000F4D922E76169D6F89400002900F08C80E0
:1019E00040F00100C6F89400FFF766F9054600BF15
:1019F000D6F8940080078CD4FFF75EF9401B0228CC
:101A0000F6D929E1B06D10F0805808D1B06D40F0E2
:101A10008050B065B06D00F080500090009847F2A3
:101A20000007C4F200073868C00513D4386840F4D2
:101A300080703860FFF740F9054600BF3868C00580
:101A400008D4FFF739F9401B02284FF00300F5D9FD
:101A5000E3E600BFA068012808D0052840F0DE803A
:101A6000D6F8900040F00400C6F89000D6F8900038
:101A700040F00100C6F89000DFE000BF616AD6F8D0
:101A80009800002900F0B48040F00100C6F89800EA
:101A9000FFF712F9054600BFD6F8980080073FF51A
:101AA0003FAFFFF709F9401B02284FF00300F3D9BD
:101AB000B3E600BF306800F0F00085427FF6C4AEA8
:101AC000B06DC00000F18680B06D40F08050B06510
:101AD000B06D00F0805001900198FFF7FFFAB16DF2
:101AE00021F08051B165B0F5007F79D0802D40F2B2
:101AF000E3800320EBE000BF20F00100C6F8940073
:101B0000FFF7DAF8054600BFD6F8940080077FF5A6
:101B100000AFFFF7D1F8401B02284FF00300F3D9C4
:101B20007BE600BF20F001003060FFF7C5F80546F6
:101B3000306880077FF534AEFFF7BEF8401B0228FF
:101B40004FF00300F4D968E6306840F008003060D8
:101B50003068D4E9072120F0F00008433060706855
:101B600020F47F4040EA0220706019E6B9F10C0FC2
:101B700000F04081306820F080703060FFF79CF802
:101B8000044600BF3068800140F1EE80FFF794F812
:101B9000001B02284FF00300F4D93EE6B9F10C0F08
:101BA00000F028813068400100F12481306820F085
:101BB00080703060FFF780F805463068800140F1A2
:101BC0008181FFF779F8401B02284FF00300F4D918
:101BD00023E600BFFFF782FAB0F5007F7FF486AFFF
:101BE000812D73D30120A02D88BF02206FE000BF9C
:101BF00020F00100C6F89800FFF75EF8054600BF28
:101C0000D6F8980080077FF58BAEFFF755F8401B9C
:101C100002284FF00300F3D9FFE500BFD6F890107B
:101C2000002821F00101C6F89010D6F8901021F09C
:101C30000401C6F8901000F07B80FFF73DF80546E0
:101C400041F28837D6F89000800700F18380FFF7D3
:101C500033F8401BB842F5D9032003B0BDE8F08348
:101C60003168002821F480313160316821F480210D
:101C7000316000F08580FFF71FF80546306880036B
:101C80003FF513AEFFF718F8401B64284FF0030030
:101C9000F4D9C2E520F480703060FFF70DF80546F6
:101CA000306840057FF532AEFFF706F8401B02288A
:101CB0004FF00300F4D9B0E5A5F17000B0FA80F060
:101CC0004009802D08BF022001E000BF002042F241
:101CD0000001C4F202010A6822F0070202440A600D
:101CE000096801F00701814240F08480306840F0CB
:101CF000080030603068D4E9072120F0F000084384
:101D00003060706820F47F4040EA022070605FE03D
:101D1000FFF7E4F9B0F5007F06D1812D40D3012013
:101D2000A02D88BF022045E0802D3BD9032041E053
:101D3000FEF7C2FF054641F28837D6F890008007CB
:101D400008D5FEF7B9FF401BB8424FF00300F4D9A5
:101D500063E500BFB8F1000F7FF4DEADB06D20F099
:101D60008050B065D8E500BFF0684FF6FC71CFF643
:101D7000EE610840F060002003B0BDE8F08300BFD2
:101D8000FEF79AFF0546306880037FF58EADFEF7BB
:101D900093FF401B64284FF00300F4D93DE500BFDA
:101DA000002007E0A5F17000B0FA80F04009802D16
:101DB00008BF022042F20001C4F202010A6822F0C8
:101DC000070202440A60096801F00701814211D14B
:101DD000B068F16810F00C0005D00C282AD101F091
:101DE0000301012926D13168090707D4D6F89410D8
:101DF000090A05E0012003B0BDE8F0833168090954
:101E000045F6001201F00F01C0F6000252F8211051
:101E100000280A4618BF00220C2837D1F06800F0CD
:101E20000300022810D0032804BF41F20021C0F2B1
:101E30007A010DE004281FD0082823D141F20022A6
:101E4000C0F27A0222E000BF42F20041C0F2F40187
:101E5000F068F268C0F30210C2F306225143F26840
:101E60000130B1FBF0F0C2F34161022202EB41010B
:101E7000B0FBF1F20AE000BF42F20042C0F2F4020D
:101E800004E000BF002200210C28C7D0B06845F64E
:101E9000E801C0F30310C0F60001085C00F01F0069
:101EA00022FA00F140F20400C2F2000040F20802FF
:101EB0000068C2F200021160FFF702F800287FF408
:101EC000ACAC6DE4F06848F28C01C0F29D1104F1F5
:101ED0002C0700EA010C8ECF6FF00F00D4E90F54ED
:101EE00000EB02100022CFF6E07241EA0C0102EB97
:101EF000055208436FF314024FF07E4540EA032079
:101F000005EB0465104305F07E4540EAC7602843B1
:101F1000F060306840F080703060F06840F08070B1
:101F2000F060FEF7C9FE04463068800108D4FEF771
:101F3000C3FE001B02284FF00300F5D96DE400BF7B
:101F4000002003B0BDE8F083002804BF01207047E3
:101F5000B0B50446406A28B10020206104F11400A5
:101F600006E000BF6068B0F5827F03D004F11C007A
:101F7000002101600025A56294F85D0020B920468B
:101F800084F85C5000F04EF8022084F85D00206870
:101F9000D4F80CE00268BEF5E06F22F04002026067
:101FA0004EF4006298BF0125B2F5706F1CBF00238C
:101FB000A3624FEA053CD4E90135D4E9042103F4D6
:101FC000827305F404452B4402F002021A44A3690B
:101FD00001F00101E569114403F40072114405F0B8
:101FE0003802256A114405F08002A56A114405F4FF
:101FF0000052114301600421626A0EF4706501EA27
:102000001341636B45EA0C0502F01002294303F00B
:10201000080311431943416000200121206684F820
:102020005D10B0BDF0B587B0006843F6000140F226
:102030000044C4F20001C4F6000400258842CDE942
:102040000555CDE90355029524D043F20001C4F2B1
:102050000101884257D141F24C00C4F202004169AB
:1020600041F480514161416901F48051019101992C
:10207000016841F002010160006800F00200019077
:102080000198382002900220039000200490032041
:10209000059032E041F24C00C4F20200C168022611
:1020A00041F48041C160C168032701F4804101917E
:1020B0000199016841F004010160016801F0040127
:1020C00001910199016841F002010160006802A9D3
:1020D00000F00200019001980C200290052006906B
:1020E00004F58060CDE903650597FEF7EFFC4FF43A
:1020F0000050CDE90206CDE904570520069002A95B
:102100002046FEF7E3FC07B0F0BD0000704700007A
:10211000704700007047000010B590F83C20012A7D
:1021200004BF022010BDD1E90232D1E900CE22F471
:102130007C5223F470531A4348F2FF73CFF6F073C6
:1021400003EA0E0342EA030E0A692CF477234EEAEF
:10215000030C22F476224B6942EA0C021A438B6A82
:1021600022F4742223F4702342EA030C8B69D0F822
:1021700000E042F60042C4F2010296454CEA0343F5
:102180000FD123F07C72D1E9073C496A0024CFF6D5
:10219000F04404EA0151114323F00072114341EA73
:1021A0000C030021CEF8443080F83C10084610BDE6
:1021B00010B590F83C20012A4FF002022AD080F896
:1021C0003D20026842F6004C5368D2F808E0C4F2A1
:1021D000010C624503D14C6823F4700323430C685F
:1021E00023F070032343B2F1804F536007D044F2D1
:1021F0000003C4F201039A4201D0624504D1896808
:102200002EF08003194391600121002280F83D10D7
:1022100080F83C20104610BD002804BF0120704704
:10222000B0B5044690F83D0028B9002084F83C0081
:10223000204600F063F8022084F83D00206842F652
:10224000004E0268C4F2010E704502D0B0F1804F1A
:1022500003D1A36822F070021A4343F6FF73C4F25D
:10226000010344F2004C9842C4F2010C06DCB0F1C8
:10227000804F0BD0704509D00CE000BF604505D001
:1022800044F20003C4F20103984203D1236922F40B
:1022900040721A43A16922F080026368E568114325
:1022A00070450160C562836218BF60451ED16169D7
:1022B000016301214161002084F8481084F83E1038
:1022C00084F83F1084F8401084F8411084F84210DC
:1022D00084F8431084F8441084F8451084F84610BC
:1022E00084F8471084F83D10B0BD00BF44F20001EF
:1022F000C4F201018842DCD1D9E7000080B582B088
:10230000006842F6FF31C4F20101884220DD44F248
:102310000041C4F2010188423ED044F20001C4F2FF
:102320000101884248D042F60041C4F201018842CE
:102330003FD141F26000C4F20200016841F4006143
:102340000160006800F400600190019802B080BD57
:10235000B0F1804F40D041F20001C4F20001884248
:1023600027D141F26000C4F2020050F8081C00229C
:1023700041F0100140F8081C50F8080C052100F04D
:102380001000019001983620FEF726FE362002B09C
:10239000BDE88040FEF710BE41F26000C4F20200CA
:1023A000016841F400310160006800F400300190E0
:1023B000019802B080BD00BF41F26000C4F202008B
:1023C000016841F480310160006800F480300190C0
:1023D000019802B080BD00BF41F26000C4F202006B
:1023E00050F8081C41F0010140F8081C50F8080C96
:1023F00000F001000190019802B080BD90F83D10FE
:1024000001291CBF01207047022180F83D1001689E
:10241000C868B1F1804F40F00100C8600BD044F2B1
:102420000000C4F20100814205D042F60040C4F22F
:10243000010081420CD188680722C0F201020240EB
:10244000062A4FF0000008D0B2F5803F08BF704761
:10245000086840F0010008600020704780B590F8DF
:102460003C20012A4FF0020200F0C28080F83D209B
:10247000D0F800C08822DCF80830CFF6FE721A408F
:10248000CCF808200B684F2B28DC1F2B44DD202BB9
:1024900045D0302B43D0402B40F0AC80D1F804E045
:1024A000C968DCF82030DCF8202022F00102CCF8EA
:1024B0002020DCF8182022F0F00242EA011123F07B
:1024C0000A0242EA0E02CCF81810CCF82020DCF800
:1024D000081041F0470121F0300180E06F2B27DD2B
:1024E000B3F5005F48D0B3F5805F7AD0702B40F031
:1024F0008180D1E901E3C968DCF8082043EA0E03D2
:1025000022F47F4243EA01211143CCF80810DCF8A1
:10251000081041F0770162E00BB1102B6AD1DCF8B2
:10252000081021F07001194341F0070157E000BF86
:10253000502B35D0602B5DD1D1F804E0C968DCF8B0
:10254000203023F01003CCF82030DCF81830DCF811
:10255000202023F4704322F0A00243EA013142EA32
:102560000E12CCF81810CCF82020DCF8081041F03E
:10257000670121F0100132E0D1E901E3C968DCF81C
:10258000082043EA0E0322F47F4243EA012111436B
:10259000CCF80810DCF8081041F480411FE000BFBF
:1025A000D1F804E0C968DCF82030DCF8202022F003
:1025B0000102CCF82020DCF8182022F0F00242EAD8
:1025C000011123F00A0242EA0E02CCF81810CCF8EE
:1025D0002020DCF8081041F0570121F02001CCF850
:1025E00008100022012180F83D10002180F83C10E5
:1025F000104680BD0122F5E77047000010B5016864
:1026000004460869800744BFC8685FEA80703FD409
:102610000869400744BFC8685FEA407044D408694D
:10262000000744BFC8685FEA00704BD40869C00661
:1026300044BFC8685FEAC06050D40869C0071CBFC7
:10264000C8685FEAC07057D10869000644BFC8680F
:102650005FEA006058D40869C00544BFC8685FEAF3
:10266000006059D40869400644BFC8685FEA40600A
:102670005AD40869800646BFC8685FEA806010BD0A
:102680006FF0200220460A61BDE81040FFF742BD0E
:102690006FF00200086101202077886980074BD025
:1026A0002046FFF7A9FF4DE06FF00400086102200B
:1026B0002077886910F4407F48D02046FFF79CFFC0
:1026C0004AE000BF6FF00800086104202077C86965
:1026D000800745D02046FFF78FFF47E06FF01000DE
:1026E000086108202077C86910F4407F42D0204656
:1026F000FFF782FF44E000BF6FF001000861204651
:1027000000F0CAFB21689FE76FF080000861204657
:10271000FFF7FEFC21689EE76FF480700861204699
:10272000FFF7F4FC21689DE76FF040000861204648
:1027300000F0BCFB21689CE7204600F0CFF8204663
:1027400000F016FB21680020207761E7204600F0AA
:10275000C5F8204600F00CFB2168002020775EE7DA
:10276000204600F0BBF8204600F002FB2168002064
:1027700020775BE7204600F0B1F8204600F0F8FA39
:1027800021680020207758E770B586B0006843F6CE
:10279000FF71C4F2010188424FF000010591CDE9BB
:1027A0000311CDE9011121DCB0F1804F44D042F694
:1027B0000041C4F20101884240F08E8041F24C0099
:1027C000C4F20200016841F001010160006800F0FC
:1027D0000100009000984FF4706001900220029078
:1027E0000020CDE90300012022E000BF44F20001F7
:1027F000C4F20101884251D044F20041C4F2010107
:10280000884269D141F24C00C4F20200016841F0F3
:1028100001010160006800F0010000900098402074
:1028200001900220029001200390002004900E20CD
:1028300005904FF090404CE041F24C00C4F2020091
:102840000168022441F0020101600168012501F0E4
:102850000201009100990168002641F00101016028
:10286000006801A900F00100009000984FF440605A
:10287000019040F20040C4F6000002940395CDE9B7
:102880000465FEF723F94FF40040CDE90104CDE9DA
:10289000034605954FF090401BE000BF41F24C000D
:1028A000C4F20200016841F002010160006800F01A
:1028B0000200009000984FF44040019002200290E6
:1028C0000020CDE903000E20059040F20040C4F640
:1028D000000001A9FEF7FAF806B070BD70470000CD
:1028E000F0B590F83C30012B04BF0220F0BD4FEA58
:1028F000B202052A5CD8DFE812F007006100AF00E1
:10290000FD003D017D0100BF036842F600461A6AE2
:10291000C4F2010622F001021A621D6A1A465C68BE
:1029200052F818CF8F68D1F800E025F00205B342C5
:1029300045EA07050BD044F20047C4F20107BB4249
:1029400005D044F20007C4F20107BB4205D1CF68AD
:1029500025F00C0527F004073D43B3420BD044F2A9
:102960000046C4F20106B34205D044F20006C4F2A8
:102970000106B34205D1D1E9056724F4407434431C
:102980003C434FF68C76CFF6FE760CEA060747EA14
:102990000E075C609F614F6809695F631D629F69F4
:1029A00047F008079F619F6927F004079F6162E174
:1029B0000121002280F83C200846F0BD036842F661
:1029C00000461A6AC4F2010622F010021A621F6A57
:1029D0001A465C6852F818CF8D6827F02007B3427A
:1029E00047EA051508D125F0C00ECD686FF0400705
:1029F00007EA051545EA0E05D1F800E0B3420BD011
:102A000044F20046C4F20106B34205D044F2000687
:102A1000C4F20106B34207D1D1E9056724F440644A
:102A200044EA860444EA870448F6FF46CFF6FF6688
:102A30000CEA060747EA0E275C609F614F68096948
:102A40009F631D629F6947F400679F619F6927F438
:102A500080679F610EE100BF036842F600461A6A74
:102A6000C4F2010622F480721A621F6A1A465C6878
:102A700052F81CCF8D6827F40077B34247EA05254A
:102A800009D1CF6825F4406E3F0240F2FF4527EAA6
:102A9000050545EA0E05D1F800E0B3420BD044F23B
:102AA0000046C4F20106B34205D044F20006C4F267
:102AB0000106B34207D1D1E9056724F4405444EA42
:102AC000061444EA07144FF68C76CFF6FE760CEA2D
:102AD000060747EA0E075C60DF614F680969DF633C
:102AE0001D62DF6947F00807DF61DF6927F004072F
:102AF000DF61C0E0036842F600471A6AC4F20107CA
:102B000022F480521A621A461C6A5D6852F81CCF81
:102B1000D1F800E08E68BB420BD044F20047C4F20B
:102B20000107BB4205D044F20007C4F20107BB42D3
:102B300004D14F6925F4804545EA871524F40054F3
:102B400044EA063448F6FF46CFF6FF660CEA06076D
:102B500047EA0E275D60DF614F6809691F641C62E8
:102B6000DF6947F40067DF61DF6927F48067DF61B1
:102B700080E000BF036842F600471A6AC4F201070A
:102B800022F480321A621A461C6A5D6852F854EFC9
:102B9000D1F800C08E68BB420BD044F20047C4F2AB
:102BA0000107BB4205D044F20007C4F20107BB4253
:102BB00004D14F6925F4803545EA072524F4003413
:102BC00044EA06444FF68C76CFF6FE7603360EEADC
:102BD000060747EA0C075D605F654F6809699F65F6
:102BE0001C625F6D47F008075F655F6D27F00407A3
:102BF0005F6540E0036842F600471A6AC4F20107C5
:102C000022F480121A621A461C6A5D6852F854EF68
:102C1000D1F800C08E68BB420BD044F20047C4F22A
:102C20000107BB4205D044F20007C4F20107BB42D2
:102C300004D14F6925F4802545EA872524F4001442
:102C400044EA065448F6FF46CFF6FF6606F540769E
:102C50000EEA060747EA0C275D605F654F68096961
:102C6000DF651C625F6D47F400675F655F6D27F489
:102C700080675F6509021368194311600021002213
:102C800080F83C200846F0BD002804BF01207047B2
:102C9000B0B5044690F83D0028B9002084F83C0007
:102CA000204600F063F8022084F83D00206842F6D8
:102CB000004E0268C4F2010E704502D0B0F1804FA0
:102CC00003D1A36822F070021A4343F6FF73C4F2E3
:102CD000010344F2004C9842C4F2010C06DCB0F14E
:102CE000804F0BD0704509D00CE000BF604505D087
:102CF00044F20003C4F20103984203D1236922F491
:102D000040721A43A16922F080026368E5681143AA
:102D100070450160C562836218BF60451ED161695C
:102D2000016301214161002084F8481084F83E10BD
:102D300084F83F1084F8401084F8411084F8421061
:102D400084F8431084F8441084F8451084F8461041
:102D500084F8471084F83D10B0BD00BF44F2000174
:102D6000C4F201018842DCD1D9E7000070470000BD
:102D70007047000061B10A1F4FEAB202032A11D85E
:102D8000DFE802F00214181C00F13F0318E000BF56
:102D900090F83E20012A1CBF01207047022280F8D3
:102DA0003E202CE000F143030AE000BF00F14003A5
:102DB00006E000BF00F1410302E000BF00F1420362
:102DC0001B78012B1CBF01207047032A08D8DFE8BD
:102DD00002F0030B0F1300BF022280F83F200EE029
:102DE000022280F843200AE0022280F8402006E018
:102DF000022280F8412002E0022280F8422002688C
:102E000001F01F000121136A01FA00F023EA00011A
:102E10001162116A084343F6FF71C4F201018A424C
:102E2000106209DCB2F1804F22D042F60040C4F2B9
:102E3000010082420CD028E044F20040C4F20100BC
:102E4000824205D044F20000C4F2010082421CD14B
:102E5000506C44F20001C4F2010140F400408A4287
:102E6000506405D042F60040C4F2010082420CD109
:102E700090680721C0F20101014006294FF00000CF
:102E800008D0B1F5803F08BF7047106840F00100DE
:102E90001060002070470000006841F20041C4F259
:102EA0000001884208BFFDF7EDBF70477047000082
:102EB000704700007047000070470000B0B501681F
:102EC0000446C8690D6840F62F028B680240202A2C
:102ED00005F0200E0AD1BEF1000F07D0616E002967
:102EE0003CD02046BDE8B040084700BF40F60F0286
:102EF000104209D040F22012C0F2004203F0010C4F
:102F00002A4012EB0C0215D1226E012A05D110F0D5
:102F1000100218BF15F0100222D1C20214D513F40A
:102F2000800211D04FF4801220460A62BDE8B04002
:102F3000FFF7C0BFC20718BF15F4807240F096813A
:102F4000820700F19D81A6E1020640F1998015F00B
:102F5000800200F09580A16E0029C2D1B0BD00BFF3
:102F6000102008628868400600F1C280B4F858005A
:102F7000B4F85A20B4F85A30002B1CBF801A5FEA0C
:102F80000042EBD001E000BF216851E8001F226839
:102F900021F4907142E80013DBB1216851E8001F71
:102FA000226821F4907142E8001393B1216851E83E
:102FB000001F226821F4907142E800134BB1216890
:102FC00051E8001F226821F4907142E80013002BA1
:102FD000DAD1216851E8021F226821F0010142E89C
:102FE0000213DBB1216851E8021F226821F00101C0
:102FF00042E8021393B1216851E8021F226821F0D0
:10300000010142E802134BB1216851E8021F226816
:1030100021F0010142E80213002BDAD12021E167FF
:10302000002121666166216851E8001F226821F0B5
:10303000100142E80013002B00F01181216851E8D3
:10304000001F226821F0100142E80013002B00F05D
:103050000681216851E8001F226821F0100142E832
:103060000013002B00F0FB80216851E8001F22684C
:1030700021F0100142E80013002BD4D1EFE000BF93
:1030800040067FF56BAF15F0400008BFB0BD51E8BA
:10309000000F00BF216820F0400041E80002002A34
:1030A00000F0E281206850E8000F216820F0400025
:1030B00041E80002002A00F0D781206850E8000FA4
:1030C000216820F0400041E80002002A00F0CC8195
:1030D000206850E8000F216820F0400041E800021D
:1030E000002A00F0C181206850E8000FD2E700BF3D
:1030F000206F0268536898B200283FF42FAFB4F8ED
:1031000058C06045BFF42AAFA4F85A301068800652
:1031100000F1A18051E8000F216820F4807041E89F
:103120000002FAB1206850E8000F216820F4807096
:1031300041E80002B2B1206850E8000F216820F495
:10314000807041E800026AB1206850E8000F2168F1
:1031500020F4807041E8000222B1206850E8000F9E
:10316000DAE700BF206850E8020F216820F0010074
:1031700041E80202BAB3206850E8020F216820F04B
:10318000010041E8020272B3206850E8020F216892
:1031900020F0010041E802022AB3206850E8020F43
:1031A000216820F0010041E80202002ADAD11AE089
:1031B000206850E8020F216820F0400041E8020238
:1031C000DAB1206850E8020F216820F0400041E8A1
:1031D000020292B1206850E8020F216820F04000FE
:1031E00041E802024AB1206850E8020F216820F04D
:1031F000400041E80202002ADAD12020E0670020E6
:103200002066206850E8000F216820F0100041E897
:103210000002DAB1206850E8000F216820F01000A9
:1032200041E8000292B1206850E8000F216820F0C8
:10323000100041E800024AB1206850E8000F216800
:1032400020F0100041E80002002ADAD1206FFDF7DB
:103250002FFBB4F858C0B4F85A00ACEB000081B2B0
:103260002046BDE8B040FFF723BE00BF01220A623E
:10327000D4F8802042F00102C4F8802082070AD5E9
:10328000BCF1000F07D002220A62D4F8802042F07D
:103290000402C4F8802042070AD5BCF1000F07D011
:1032A00004220A62D4F8802042F00202C4F880208E
:1032B00002070AD55EEA0C0207D008220A62D4F897
:1032C000802042F00802C4F8802002050BD515F0DA
:1032D000806208D04FF400620A62D4F8802042F085
:1032E0002002C4F88020D4F88020002A3FF436AEB3
:1032F00010F0200018BFBEF1000F40F0BF80D4F8DE
:1033000080008A6800F0280002F04002801807D18F
:103310002046FFF7D1FD0020C4F88000B0BD00BFFB
:1033200051E8000F216820F4907041E80002D2B308
:10333000206850E8000F216820F4907041E80002F6
:103340008AB3206850E8000F216820F4907041E8AB
:10335000000242B3206850E8000F216820F490700A
:1033600041E80002FAB1206850E8000FDAE700BF38
:10337000206850E8020F216820F0010041E80202B5
:10338000DAB1206850E8020F216820F0010041E81E
:10339000020292B1206850E8020F216820F001007B
:1033A00041E802024AB1206850E8020F216820F08B
:1033B000010041E80202002ADAD1206E012824D15E
:1033C000206850E8000F216820F0100041E800025A
:1033D000DAB1206850E8000F216820F0100041E8C1
:1033E000000292B1206850E8000F216820F0100020
:1033F00041E800024AB1206850E8000F216820F03F
:10340000100041E80002002ADAD120200021E06704
:103410002166206861668168490649D550E8020F37
:10342000216820F0400041E802027AB3206850E8A9
:10343000020F216820F0400041E8020232B3206808
:1034400050E8020F216820F0400041E80202EAB192
:10345000206850E8020F216820F0400041E8020295
:10346000A2B12068DAE700BF20200021A067204633
:10347000A166BDE8B04000F0D5B900BF626E002A79
:103480003FF43DAF20469047216838E7206F78B180
:1034900044F2C541C0F600018163FDF72FFA002810
:1034A0003FF45CAD206F816BBDE8B040084700BFC2
:1034B0002046BDE8B040FFF7FFBC0000B0B582B0C9
:1034C000A0B10446806F28B9002084F8740020461B
:1034D00000F056F82420A0672068016821F001015F
:1034E0000160204600F0F6FF012803D1012002B060
:1034F000B0BD00BF606A10B1204600F06FFF2068C9
:10350000416821F490414160816821F02A01816085
:10351000016841F0010101600020C4F88000FDF75E
:10352000CBFB216805460A6812070CD56FF07E4C6C
:1035300020464FF4001100222B46CDF800C001F0C8
:10354000E1F878B92168086840070FD56FF07E4C24
:1035500020464FF4800100222B46CDF800C001F038
:10356000D1F818B1032002B0B0BD00BF2020A06781
:10357000E0670020206684F8740002B0B0BD00004F
:103580002DE9F0479EB0044600201D90CDE91B00B8
:10359000CDE9190002A85C21FCF7E0FE206844F2A6
:1035A0000041C4F20001884278D044F60001C4F220
:1035B0000001884200F0DE8043F60001C4F2010100
:1035C000884240F02C810120029002A8FDF78EFD78
:1035D000002818BFFCF754FF41F24C00C4F202006F
:1035E000416940F2300841F480414161416902275C
:1035F00001F48041019101990168002641F0020126
:103600000160006819A900F0020001900198C02033
:10361000199003201C9007201D9040F20040C4F632
:103620000000C4F202081A971B96FDF74FFA40F209
:10363000681508F12800C2F200054FF08009C5E9BD
:1036400000072846C5E90266C5E90496C5E906668D
:103650002E62FDF7D5F9002818BFFCF711FF25678A
:10366000AC6240F2B01508F11400C2F2000510215E
:10367000C5E9000705F1080080E842022846C5E9CF
:103680000566C5E90766FDF7BBF9002818BFFCF71A
:10369000F7FEE566AC621EB0BDE8F0874FF00209A8
:1036A00002A8CDF80890FDF721FD002818BFFCF70F
:1036B000E7FE41F24C00C4F20200C16840F230085B
:1036C00041F40031C160C168002701F4003101916B
:1036D00001990168C4F2020841F00101016000682B
:1036E00019A900F00100019001980C20CDE91909F9
:1036F00003201C9007201D904FF090401B97FDF772
:10370000E5F940F2402508F15000C2F20005102111
:10371000C5E9000905F108004FF0800A80E882043D
:103720004FF400562846C5E90577EF612E62FDF794
:1037300067F9002818BFFCF7A3FEE566AC6240F20B
:10374000F81508F13C00C2F20005022185E883006B
:103750002846C5E9037AC5E90577C5E90776FDF787
:103760004FF9002818BFFCF78BFE2567AC621EB02E
:10377000BDE8F0870420029002A8FDF7B7FC0028FE
:1037800018BFFCF77DFE41F24C00C4F20200C16894
:10379000022641F48021C160C168002701F4802124
:1037A00001910199016841F004010160006819A9C3
:1037B00000F00400019001983020199003201C9023
:1037C00007201D9040F20040C4F6000000F5806024
:1037D0001A961B97FDF77AF940F288253020C2F23D
:1037E0000005C4F2020085E8C1004FF400508021BA
:1037F00028622846C5E90371C5E90577EF61FDF741
:10380000FFF8002818BFFCF73BFE27200521002207
:103810002567AC62FDF7E0FB2720FDF7CDFB1EB06E
:10382000BDE8F08770470000FEE7000080B540F279
:10383000401046F20041C2F20000C4F2000108222A
:10384000002380E80E0000F10C014FF4403C4FF4DF
:10385000800E81E8085083618383FCF751FF0028C4
:1038600008BF80BDBDE88040FCF70ABE80B582B0CD
:1038700041F24800C4F202000168002241F0010157
:1038800001600068052100F00100019001980D2001
:10389000FDF7A2FB0D20FDF78FFB0E200521002276
:1038A000FDF79AFB0E20FDF787FB0F200521002274
:1038B000FDF792FB0F20FDF77FFB10200521002272
:1038C000FDF78AFB1020FDF777FB11200521002270
:1038D000FDF782FB112002B0BDE88040FDF76CBB14
:1038E00010B588B045F6CC00C0F6000090E80E5048
:1038F000D0E905400191CDE9064001A800210292DE
:103900000393CDF810C0CDF814E001F0B1F840F207
:103910003C11C2F20001086008B010BD2DE9F04F63
:1039200087B04FF0000841F24C00CDF81880C4F287
:1039300002000168002241F0800101600168012756
:1039400001F0800101910199016841F004010160D9
:10395000016801F0040101910199016841F0010140
:103960000160016801F0010101910199016841F0D4
:1039700002010160016801F00201019101990168F1
:1039800041F0080101600068012100F00800019089
:1039900001984FF09040FDF789F940F20044C4F6D9
:1039A000000420464FF4805100224FF4805AFDF766
:1039B0007DF94FF090404FF480510122FDF776F9E8
:1039C00004F500652846042101224FF00409FDF7A3
:1039D0006DF902AE4FF090403146CDE90277CDE966
:1039E0000488FDF773F820463146CDE90278049744
:1039F000FDF76CF84FF0020B20463146CDE902A7E7
:103A0000CDE904B8FDF762F84FF090403146CDE9BA
:103A100002A7CDE90478FDF759F84FF4C0500290A1
:103A20004FF48810CDE9030804F580603146FDF7B6
:103A30004DF828463146CDE90297CDE9048BFDF7D4
:103A400045F807B000F000B830BCBDE8C08F0000FA
:103A500080B540F2D02045F60041C2F20000C4F229
:103A6000000149F6EC420023C1F290024FF0010C34
:103A700080E80E10C0E90433C0E906330362FDF7A5
:103A80006BF9002818BFFCF7FBFC40F2D020C2F213
:103A900000000021FDF716F9002818BFFCF7F0FC24
:103AA00040F2D020C2F200000021FDF731F90028D9
:103AB00008BF80BDBDE88040FCF7E2BC80B540F2A5
:103AC000243043F20001C2F20000C4F201014FF4BD
:103AD000827200234FF4407C4FF4007E80E80E1089
:103AE00007210822C0E90433C0E906E3C0E908332E
:103AF000C0E90A31C0E90C32FEF726FA002808BFF7
:103B000080BDBDE88040FCF7BBBC000080B540F242
:103B1000883043F60001C2F20000C4F200014FF405
:103B2000827200234FF4407C4FF4007E80E80E1038
:103B300007210822C0E90433C0E906E3C0E90833DD
:103B4000C0E90A31C0E90C32FEF7FEF9002808BFCF
:103B500080BDBDE88040FCF793BC000010B59AB072
:103B6000002401A82C211994CDE91744CDE914446F
:103B7000CDE91244CDE91044CDE90E44CDE90C4421
:103B8000FCF7ECFB40F2384044F20001C2F20000C6
:103B9000C4F2010144F61F634F2280E81600C0E919
:103BA0000334C0E90544FEF737FB002818BFFCF7D3
:103BB00067FC4FF48050169040F23840C2F200008B
:103BC00016A9FEF74BFC002818BFFCF759FC40F281
:103BD0003840C2F20000FFF757F8002818BFFCF782
:103BE0004FFC40F238400024C2F2000013A91394A5
:103BF0001594FEF7DDFA002818BFFCF741FC6020A1
:103C00000C9040F2DB50CDE90D0440F23840C2F296
:103C100000000CA90022CDE90F44CDE91144FEF7C4
:103C20005FFE002818BFFCF72BFC40F23840C2F2C0
:103C300000000CA90422FEF753FE002818BFFCF771
:103C40001FFC00200590CDE90300CDE901004FF4F1
:103C500000510B9040F238400691C2F2000001A9D9
:103C6000FEF75AFA002818BFFCF70AFC40F2384069
:103C7000C2F20000FEF788FD1AB010BD10B592B078
:103C800068462C21FCF76AFB40F2844044F2004174
:103C9000C2F20000C4F2010100234F2240F2E734D7
:103CA00080E81E00C0E904338361FEF7B5FA0028FE
:103CB00018BFFCF7E5FB40F28440C2F20000FEF7BB
:103CC000E3FF002818BFFCF7DBFB60200B9040F2FD
:103CD000E7300C9040F284400024C2F200000BA9AF
:103CE0000022CDE90D44CDE90F441194FEF7F8FD13
:103CF000002818BFFCF7C4FB4FF40050059040F2B9
:103D00008440C2F2000069460494CDE90244CDE942
:103D100000440A94FEF700FA002818BFFCF7B0FB35
:103D200040F28440C2F20000FEF72EFD12B010BD3A
:103D300010B59AB0002401A82C211994CDE917449C
:103D4000CDE91444CDE91244CDE91044CDE90E4447
:103D5000CDE90C44FCF702FB40F2EC3042F60041A6
:103D6000C2F20000C4F2010144F61F634F2280E852
:103D70001600C0E90334C0E90544FEF74DFA0028F7
:103D800018BFFCF77DFB4FF48050169040F2EC30EA
:103D9000C2F2000016A9FEF761FB002818BFFCF76D
:103DA0006FFB40F2EC30C2F20000FEF76DFF00281E
:103DB00018BFFCF765FB40F2EC300024C2F20000B3
:103DC00013A9CDE913441594FEF7F2F9002818BFA2
:103DD000FCF756FB60200C9040F2DB50CDE90D045F
:103DE00040F2EC30C2F200000CA90022CDE90F44F1
:103DF000CDE91144FEF774FD002818BFFCF740FB25
:103E000040F2EC30C2F200000CA90422FEF768FD7B
:103E1000002818BFFCF734FB40F2EC30C2F200007F
:103E20000CA90822FEF75CFD002818BFFCF728FB50
:103E300040F2EC30C2F200000CA90C22FEF750FD5B
:103E4000002818BFFCF71CFB00204FF40051CDE9FF
:103E500006104FF000710590CDE90300CDE9010097
:103E60000890CDE909100B9040F2EC30C2F200004E
:103E700001A9FEF751F9002818BFFCF701FB40F239
:103E8000EC30C2F20000FEF77FFC1AB010BD00005B
:103E900010B58EB040F2D0400021C2F200004FF0C9
:103EA00080424F2340F2E7340D91CDE90B11CDE96B
:103EB0000811CDE90611CDE90411CDE90211CDE9D2
:103EC0000011C0E90023C0E9021401618161FEF71D
:103ED000A3F9002818BFFCF7D3FA4FF480500A90DA
:103EE00040F2D040C2F200000AA9FEF7B7FA00285B
:103EF00018BFFCF7C5FA40F2D040C2F20000FEF74E
:103F0000C3FE002818BFFCF7BBFA40F2D0400024E3
:103F1000C2F2000007A907940994FEF749F90028A6
:103F200018BFFCF7ADFA6020CDE9000440F2D040A4
:103F3000C2F200006946002202940494FEF7D0FC0D
:103F4000002818BFFCF79CFA40F2E730019040F2DD
:103F5000D040C2F2000069460822FEF7C1FC0028EA
:103F600018BFFCF78DFA40F2D040C2F2000069465B
:103F70000C22FEF7B5FC002818BFFCF781FA40F2CE
:103F8000D040C2F20000FEF7FFFB0EB010BD0000F3
:103F900010B584B040F21C5041F200010024C2F27E
:103FA0000000C4F2000140F2E73302944F2280E89F
:103FB0001600C3608461FEF72FF9002818BFFCF7D4
:103FC0005FFA40F21C50C2F2000001A90194039470
:103FD000FEF7EEF8002818BFFCF752FA04B010BD47
:103FE00080B540F2B45043F60001C2F20000C4F2C2
:103FF000010100234FF00C0C4FF4E13280E80E0079
:10400000C0E90333C0E905C3C0E907334362FFF7E2
:1040100055FA002808BF80BDBDE88040FCF730BAE3
:1040200080B540F2386044F20041C2F20000C4F2B0
:10403000000100234FF00C0C4FF4E13280E80E0039
:10404000C0E90333C0E905C3C0E907334362FFF7A2
:1040500035FA002808BF80BDBDE88040FCF710BAE3
:1040600010B540F2BC6044F6000CC2F20000C4F28D
:10407000000C42F210724FF4805300214FF4806E16
:104080000C24C0E900C2C0E90231C0E904E4C0E97F
:104090000611C0E90811FFF711FA002808BF10BD8A
:1040A000BDE81040FCF7ECB9FEE70000FEE70000B9
:1040B000EFF30980BFF36F8F154B1A681EF0100FD6
:1040C00008BF20ED108A20E9F04F10602DE90900AB
:1040D0004FF0500080F31188BFF34F8FBFF36F8F05
:1040E00001F088F94FF0000080F31188BDE8090065
:1040F0001968086800F00EB81EF0100F08BF00F035
:104100000EB880F30988BFF36F8F704700BF00BF00
:104110007000002030C8B0E8C04FFFF7EDBFB0EC32
:10412000088AB0EC08CAFFF7ECBF0000F0B581B018
:1041300041F20007C4F20207FA680D4691070446EF
:1041400014D0F868216800F0030088424FF00100A5
:1041500040F09F80002900F09C80F8686168C0F3FF
:1041600002100130884232D134E000BF20680328B9
:104170000CD0022816D0012829D13968012211F06B
:10418000020182EA510116D120E000BF396889039B
:1041900010D43968012211F4802182EA91410AD1B8
:1041A00014E000BF3968012211F4806182EA912194
:1041B00001D10BE00021FA68636822F073026FF00E
:1041C0000F0606EB031310431843F86011B10120EA
:1041D00001B0F0BD386820F080603860FCF76CFDFD
:1041E000064600BF3868000106D5FCF765FD801B58
:1041F0000228F7D944E000BF012D0DD0F5B9386988
:1042000048F2FF01C0F2FF710840D4E9021240EA0F
:10421000012040EAC26022E048F2FF013869CFF68F
:10422000FF112269002301F1B461CFF6E073084069
:10423000A16803EB02526FF314020DE0386948F2F3
:10424000FF016269CFF6FF114FF07E430840A1687D
:1042500003EB026202F07E4240EA01201043386123
:10426000386840F080603860FCF726FD054600BFE6
:104270003868000108D4FCF71FFD401B0228F7D95D
:10428000032001B0F0BD00BFA0693969084338615F
:10429000002001B0F0BD00000000000000000000A0
:1042A000074B1968086800F00DB880F30988BFF360
:1042B0006F8F4FF0000080F31188704700BF00BF80
:1042C0007000002030C8B0E8C04FFFF7EEBF00001C
:1042D00040F2381B40F2004840F24D15002640F2F3
:1042E000E7370124C2F2000BC4F600084FF00109C1
:1042F0004FF0010A18E000BF644240F2D043C2F21E
:1043000000031B68186440F28440C2F20000006899
:104310004163DA639BF8002040464FF48051FCF77C
:10432000C5FC012000F096FB45FA8AF5A8B2B0F56D
:104330007A7F11D0002808BFCAF1000A46FA89F630
:10434000B1B281B1B1F57A7F08BFC9F1000947FA6E
:1043500084F7BAB272B9CFE7CAF1000A46FA89F611
:10436000B1B20029EED1C9F1000947FA84F7BAB217
:10437000002AC1D0B2F57A7F08BF6442BDE70000D1
:1043800080B54FF0500080F31188BFF36F8FBFF3FB
:104390004F8F01F095F930B14EF60450CEF2000087
:1043A0004FF080510160002080F3118880BD000033
:1043B0004EF68850CEF20000016841F470010160B1
:1043C0007047000040F21C50C2F20000FEF716B920
:1043D00040F26850C2F20000FEF710B980B5416AA1
:1043E000CA070DD18A0716D44A071FD40A0728D452
:1043F000CA0631D48A063AD44A0658D542E000BFEC
:104400000268D0F828C0536823F4003343EA0C0351
:1044100053608A07E8D50268D0F82CC0536823F4AB
:10442000803343EA0C0353604A07DFD50268D0F8B3
:1044300030C0536823F4802343EA0C0353600A0717
:10444000D6D50268D0F834C0536823F4004343EA59
:104450000C035360CA06CDD50268D0F838C0936803
:1044600023F4805343EA0C0393608A06C4D50268A0
:10447000D0F83CC0936823F4005343EA0C039360E4
:104480004A0614D50268D0F840C05368BCF5801FB6
:1044900023F4801343EA0C03536008D1D2F804C01C
:1044A000D0F844E02CF4C00343EA0E03536009063D
:1044B00058BF80BD0168806C4A6822F40022104316
:1044C000486080BD806A0021A0F85A10A0F8521000
:1044D000FEF7F2BCB0B505462A69D5E902130068BB
:1044E0000A436969D5F81CE01143026846F6F314E3
:1044F000CEF6FF7441EA0E0122401143016041688B
:1045000048F2000C21F4405119434160AA69C4F2F9
:10451000000C60451CBF296A0A438168102321F4FE
:1045200030611143816047F6FF71C4F20001884297
:1045300012DC44F20041C4F2000188421CD044F66F
:104540000001C4F2000188422CD141F28801C4F27A
:10455000020109680B091DE0604515D043F6000112
:10456000C4F2010188421DD141F28801C4F2020166
:104570000B6860A212E000BF41F28801C4F20201A0
:1045800009688B0806E000BF41F28801C4F202010D
:1045900009688B0A45F63012C0F6000203F00301E9
:1045A00052F82130604542F20040C0F2F40015D0CC
:1045B000BEF5004F22D1082B4FF0010100F295808B
:1045C000DFE803F006546093589393935E0000BFB6
:1045D000FDF744F8002855D14FE000BF082B4FF0FD
:1045E000010100F28280DFE803F0058023801B8058
:1045F00080802100FDF732F8D0B914E0082B4FF08D
:10460000010100F27280DFE803F005535F7057701C
:1046100070705D00FDF722F8002855D14FE000BF13
:10462000FDF748F820B900215FE000BF4FF40040DB
:104630006A6802EB420188424FF0010155D313032F
:10464000984252D8010E000210EB520041F10001D5
:104650000023FBF70BFE4FF60052A0F54071C0F2AD
:104660000F0291423BD301213FE000BFFDF70CF860
:1046700040B902E0FDF71EF820B9002135E000BF87
:104680004FF4004069684A0802EB4000B0FBF1F0CB
:104690004FF6EF72A0F11001914207D84FF6F0717A
:1046A0000140C0F34200084419E000BF01211CE0B2
:1046B000FCF7EAFF40B902E0FCF7FCFF20B900215B
:1046C00013E000BF4FF4004069684FF6EF7200EB53
:1046D0005100B0FBF1F0A0F11001914204D829681B
:1046E000C860002101E000BF0121002208466A667F
:1046F000AA66B0BD01000000040000000200000036
:10470000080000002DE9F041044600681546C26922
:104710000E461140891BB1FA81F14909A94240F0C6
:10472000A080DDF81880B8F1000F29D018F1010140
:1047300040F08080C1693140891BB1FA81F149099B
:10474000A94240F08E80C1693140891BB1FA81F1E4
:104750004909A94240F08580C1693140891BB1FAFD
:1047600081F14909A9427CD1C1693140891BB1FA63
:1047700081F14909A942DDD00020BDE8F08100BFE8
:10478000FCF79AFA206850E8000F216820F4D070F6
:1047900041E80002BAB3206850E8000F216820F415
:1047A000D07041E8000272B3206850E8000F216821
:1047B00020F4D07041E800022AB3206850E8000FCE
:1047C000216820F4D07041E80002002ADAD11AE012
:1047D000206850E8020F216820F0010041E8020241
:1047E000DAB1206850E8020F216820F0010041E8AA
:1047F000020292B1206850E8020F216820F0010007
:1048000041E802024AB1206850E8020F216820F016
:10481000010041E80202002ADAD12020A06704F159
:104820007C0020210160002084F874000320BDE892
:10483000F08100BF1F4600BFFCF73EFAC01B404599
:10484000A0D820680168490744BFC1695FEA0151E7
:104850000AD4C0693040801BB0FA80F04009A842F9
:10486000EAD00020BDE8F0814FF40061016200BF92
:1048700050E8000F216820F4D07041E80002C2B374
:10488000206850E8000F216820F4D07041E8000251
:104890007AB3206850E8000F216820F4D07041E816
:1048A000000232B3206850E8000F216820F4D07075
:1048B00041E80002EAB12068DAE700BF206850E86A
:1048C000020F216820F0010041E80202DAB12068FD
:1048D00050E8020F216820F0010041E8020292B185
:1048E000206850E8020F216820F0010041E8020230
:1048F0004AB1206850E8020F216820F0010041E829
:104900000202002ADAD12020A067E06704F18000CB
:1049100087E7000040F2BC60C2F20000FEF7CEBAAA
:10492000FEE7000096B0FCF7BBFA0020CDE90D00D1
:10493000CDE90B00CDE90900CDE907004FF4007087
:10494000FCF786FB20B1EFF3108072B6FEE700BFE4
:10495000012005904FF48030282106900220032486
:10496000129107210F90CDE91040CDE91310159059
:1049700005A8FCF701FF28B1EFF3108072B600BF65
:10498000FEE700BF0F20CDE900040020CDE90200C2
:10499000049068460421FCF701FD28B1EFF3108074
:1049A00072B600BFFEE700BFFEF7B8FFFEF75EFF7E
:1049B000FEF73CFFFFF7BCF9FFF76AFAFFF7E8FAEA
:1049C000FFF7CCF8FFF75AF9FFF72AFBFFF748FB90
:1049D000FFF73EF8FFF772F8FFF798F8FFF700FBD4
:1049E00040F2D044C2F2000420460821FEF7C2F98A
:1049F00020460C21FEF7BEF940F28440C2F20000CE
:104A00000021FEF7B7F940F2EC34C2F20004204670
:104A10000021FEF7AFF920460421FEF7ABF920464E
:104A20000821FEF7A7F920460C21FEF7A3F940F272
:104A30003844C2F2000420460021FEF79BF92046CC
:104A40000421FEF797F9FEF74BFF00F00BF800BFCB
:104A5000FEE7000080B5002808BF012000F00CFC34
:104A6000002080BD80B500F057FC002080BD000014
:104A7000B0B584B043698E4693B1846984B1058929
:104A8000D0E9001C026928B2843D18BFC51CCDE9DD
:104A9000005360467346029400F0D6FD04B0B0BDEA
:104AA0000589D0E90013028A28B2843D18BFC51CCD
:104AB00003AC184673460095019400F095FD0399E8
:104AC000012818BF0021084604B0B0BD2DE9F0410F
:104AD000044600F011FB40F27006C2F20006306995
:104AE00040F24075013030613068C2F2000548B1D3
:104AF0007069002840D13068E16AC06A884298BF76
:104B0000346039E034603069012835D1284600F03E
:104B100099FA05F1140000F095FA05F1280000F06B
:104B200091FA05F13C0000F08DFA05F1500000F01B
:104B300089FA05F1640000F085FA05F1780000F0CB
:104B400081FA40F21018C2F20008404600F07AFAEA
:104B500008F11407384600F075FA06F1640000F019
:104B600071FA06F13C0000F06DFA06F1500000F019
:104B700069FAC6F8308077637068B1680122013144
:104B8000B160E16A8A401043706001EB810005EB7F
:104B90008000211D00F098FA00F0D2FA706988B107
:104BA0003068E16AC06A884228BFBDE8F0814EF6ED
:104BB0000450CEF200004FF080510160BFF34F8FE0
:104BC000BFF36F8FBDE8F08140F2700540F2407690
:104BD0004EF60458C2F20005C2F20006CEF20008FA
:104BE0004FF0805703E000BF204600F0C1FAE868AC
:104BF000D0B100F081FAA86CC468201D00F002FA60
:104C0000286901382861E8680138E86000F098FAFE
:104C100094F851000228EAD00128E5D070B9206B41
:104C200000F0A6FAE0E700BF30680228DFD3C8F83A
:104C30000070BFF34F8FBFF36F8FD8E74FF0500076
:104C400080F31188BFF36F8FBFF34F8FFEE7000033
:104C50002DE9F047DDE909878246386B089C00EBB7
:104C6000820004389946002920F0070656D00878BB
:104C700087F83400087800284BD0487887F835004A
:104C80004878002845D0887887F83600887800284A
:104C90003FD0C87887F83700C878D0B3087987F84C
:104CA00038000879A8B3487987F83900487980B383
:104CB000887987F83A00887958B3C87987F83B0033
:104CC000C87930B3087A87F83C00087A08B3487A84
:104CD00087F83D00487AE0B1887A87F83E00887A04
:104CE000B8B1C87A87F83F00C87A90B1087B87F8D6
:104CF0004000087B68B1487B87F84100487B40B1A1
:104D0000887B87F84200887B00281CBFC87B87F817
:104D10004300002087F8430003E000BF002087F82D
:104D200034000025381D062C28BF0624FC62C7E984
:104D3000114500F093F907F1180000F08FF984F0A5
:104D40000700B861304651464A463F617F62FD64C4
:104D500087F8505000F042F9B8F1000F386018BFE2
:104D6000C8F80070BDE8F08708480068006880F364
:104D700008884FF0000080F3148862B661B6BFF374
:104D80004F8FBFF36F8F00DF00BF000008ED00E022
:104D900081B00020009040F20C00C2F200000068D8
:104DA0004FF0500181F31188BFF36F8FBFF34F8F26
:104DB000013007D0FEE700BF009830B9009820B955
:104DC000009810B900980028F6D001B07047000094
:104DD00070B5044600F006FB40F2E80CC2F2000C8D
:104DE000DCF8040050B19CF80000002818BF4FF018
:104DF00000404FF000057CBB8DE000BF40F2CC705E
:104E0000C2F20000C21D22F0070210F00701A0EB61
:104E1000020318BF104600224FF4A045CCE9060259
:104E2000002918BF03F5A0454119083921F00701F1
:104E3000CCF80410C1E90022DCF80420091AC0E90A
:104E4000002101208CF800004FF00040CCE9021155
:104E5000002C4FF000055ED020405CD104F1100022
:104E600020F00702600708BF04F10802002A4FF093
:104E7000000550D0DCF8080082424CD8604650F85B
:104E800018EFDEF8045095422BD2DEF80010B9B1CD
:104E900074464D68954217D20B68ABB15D68954278
:104EA00016D21868A0B14568954215D204689CB125
:104EB0006568954214D22168A6460029E9D110E020
:104EC0000CF118000DE000BF8E46204609E000BF3F
:104ED0009E46084605E000BF8646184601E000BF32
:104EE000A646DCF804108E4514D00168DEF80040B8
:104EF000AB1A112B04604DD30EEB0205680719D0D5
:104F00004FF0500080F31188BFF36F8FBFF34F8FC6
:104F1000FEE700BF002500F057FC68075BD04FF0AC
:104F2000500080F31188BFF36F8FBFF34F8F00BF26
:104F3000FEE700BF0CF118006B60CEF8042000BF44
:104F40000368AB420AD21868A8420BD20368AB428E
:104F500004D218681A46A842F2D304E00246184662
:104F600001E000BF1A4653686C68D618AE4202D101
:104F70001C44154654602B19834207D1DCF80430D9
:104F8000984203D0D0E9000323446B60AA42286012
:104F900018BF156001F10805DEF80400DCE9021213
:104FA000091A9142CCF8081038BFCCF80C109CF8C4
:104FB0000010002918BF40F00040CEF80400DCF8D3
:104FC000100000210130CEF80010CCF8100000F0E5
:104FD000FBFB6807A3D1284670BD0000034644F6DA
:104FE0009150C0F600004FF0807C21F0010103E9F0
:104FF00003106FF0020043F8240CA3F1440043F8BF
:10500000202C7047D0E9013201699A60D1F804C0C0
:1050100082688445536008BF4A60002202610868C4
:10502000013808600868704745F6D013C2F20003E3
:10503000036045F2D070C2F200000860802010606A
:10504000704700004FF0FF31024642F8081F002170
:105050004260C0E903220160704700000021016145
:105060007047000010B5D1F800E01EF1010213D026
:1050700000F1080462681368734511D853681C680E
:10508000744511D85A68146874450FD85468236859
:10509000A4467345EED90BE00269D2F804C007E0DC
:1050A0009446224604E000BF9C4601E094461A461E
:1050B000C1F804C0CCF808108A605160086101682A
:1050C0000131016010BD0000D0F800C043680861E4
:1050D0009A684B608A609A68996051600CF101018E
:1050E00001607047DFF80C00016841F47001016055
:1050F0007047000088ED00E04FF0500080F3118809
:10510000BFF36F8FBFF34F8F40F20C00C2F200006D
:1051100001684A1C026009B1704700BF4EF6045096
:10512000CEF200000068000608BF70474FF0500044
:1051300080F31188BFF36F8FBFF34F8FFEE700003E
:1051400040F20C00C2F20000016839B1013901607F
:1051500018BF7047002080F3118870474FF050004F
:1051600080F31188BFF36F8FBFF34F8FFEE700000E
:1051700070B5002808BF70BD40F2E805C2F2000516
:105180000446287854F8041C002818BF4FF000404B
:1051900008420DD0A4F1080632689AB14FF05000D1
:1051A00080F31188BFF36F8FBFF34F8FFEE700BF0F
:1051B0004FF0500080F31188BFF36F8FBFF34F8F14
:1051C000FEE700BF21EA000044F8040C00F00AF9F1
:1051D00054F8041CA8680844A86005F1180000BF32
:1051E0000368B3420AD21868B04225D20368B342BA
:1051F00004D218681A46B042F2D301E002461846BB
:105200005368D418B44202D1194416465160731839
:10521000834206D16B68984203D0D0E90003194459
:105220007160B242306018BF166068690130686111
:10523000BDE8704000F0C8BA1A465368D418B442AA
:10524000E5D1E1E74EF21000CEF20000002101604E
:10525000816040F20801C2F20001096844F6D352AD
:10526000C1F26202A1FB02124FF0FF3101EB921179
:10527000416007210160704770B500283FD040F2BF
:105280007005C2F200050446A86948B14FF050000D
:1052900080F31188BFF36F8FBFF34F8FFEE700BF1E
:1052A000A8690130A8616E6A28680430FFF7AAFE79
:1052B00050B12868A419446013D3686B296804317D
:1052C000FFF7D0FE16E000BF28680121C06A6A68B7
:1052D00001FA00F022EA000068602868A41944601E
:1052E000EBD2286B29680431FFF7BCFE286A8442A0
:1052F00038BF2C6200F068FA002818BF70BD4EF667
:105300000450CEF200004FF080510160BFF34F8F88
:10531000BFF36F8F70BD0000B0B588B00020CDE93D
:10532000050006A805A904AAFFF77EFE0598B8B3F4
:10533000069C002C3ED05421049A079107995429C9
:1053400042D107992063022084F8510007A8002564
:10535000CDE9005044F6C930C0F600001FA100237B
:105360000294FFF775FC2046FFF7B0FB079940F267
:105370007000C2F20000C16179B14FF0500181F3B9
:105380001188BFF36F8FBFF34F8F4FF0FF31016272
:1053900001214161456200F065F808B0B0BD00BF71
:1053A0004FF0500080F31188BFF36F8FBFF34F8F22
:1053B000FEE700BF4FF0500080F31188BFF36F8FFE
:1053C000BFF34F8FFEE700BF4FF0500080F311880E
:1053D000BFF36F8FBFF34F8FFEE700BF49444C45CB
:1053E0000000000040F27000C2F20000816901314B
:1053F0008161704740F27000C2F2000081690029AB
:105400001EBF012181627047002181624168B1FAAB
:1054100081F1C9B2C1F11F0140F2407201EB81017B
:10542000C2F2000252F8213063B102EB810252F85D
:10543000041F4968131D994211600DD0C9680160AD
:10544000704700BF4FF0500080F31188BFF36F8F9B
:10545000BFF34F8FFEE700BF49681160C968016064
:1054600070470000B0B584B04EF2004CCEF2000C94
:105470004CF27021C4F20F11DCF800294B1C9A4247
:105480000AD14FF0500080F31188BFF36F8FBFF344
:105490004F8F00BFFEE700BFDCF800298A4209D128
:1054A0004FF0500080F31188BFF36F8FBFF34F8F21
:1054B000FEE700BF9CF800100291FF218CF800105D
:1054C0009CF800108DF807109DF8071001F05002AD
:1054D00040F20811C2F200010A7007224A609DF9E9
:1054E0000720B2F1FF3F69DC032200BFD31C4B60F1
:1054F0009DF8070040008DF807009DF90700B0F106
:10550000FF3F23DC931C4B609DF8070040008DF8A3
:1055100007009DF90700B0F1FF3F17DC531C4B60FB
:105520009DF8070040008DF807009DF90700B0F1D5
:10553000FF3F0BDC4A609DF80700043A40008DF8FD
:1055400007009DF907000028D0D4131D032B35D187
:105550004FF44070486002988CF80000DCF8200995
:1055600040F47000CCF82009DCF8200940F07040CD
:10557000CCF82009FFF766FE40F20C04C2F20004EA
:1055800000252560FFF7AEFD4EF63470CEF2000028
:10559000016841F040410160FFF7E6FBFFF72AFF99
:1055A000039520684FF0500181F31188BFF36F8F8E
:1055B000BFF34F8F013011D0FEE700BF4FF0500016
:1055C00080F31188BFF36F8FBFF34F8FFEE700BFEB
:1055D000039830B9039820B9039810B903980028AC
:1055E000F6D0002004B0B0BD2DE9F04383B00746EB
:1055F0009000984615468946FFF7EAFBF8B1064643
:105600005420FFF7E5FBB8B10446DDE90A1000229B
:10561000266384F85120CDE90010384649462A46D1
:1056200043460294FFF714FB2046FFF74FFA012090
:1056300003B0BDE8F08300BF3046FFF799FD4FF09F
:10564000FF3003B0BDE8F08370B586B00B9CCCB1E1
:105650000C9E0EB354250495049D542D26D1049D13
:10566000DDF828C0022586F8515005AD3463CDE938
:1056700000C50296FFF7ECFA3046FFF727FA0598C7
:1056800006B070BD4FF0500080F31188BFF36F8FEC
:10569000BFF34F8FFEE700BF4FF0500080F311883B
:1056A000BFF36F8FBFF34F8FFEE700BF4FF0500087
:1056B00080F31188BFF36F8FBFF34F8FFEE70000B9
:1056C0002DE9F04740F27006C2F20006B06928B139
:1056D000F06A0130F0620020BDE8F087706A10F1D6
:1056E000010AC6F824A020D3306B006850B14FF0F7
:1056F000500080F31188BFF36F8FBFF34F8F00BF4F
:10570000FEE700BF306B716B31637063B06B0130CB
:10571000B063306B006828B1306BC068C068406807
:1057200002E000BF4FF0FF303062306A40F2407854
:105730008245C2F2000801D2002434E0306B00241C
:10574000006868B34FF0010916E000BFF86A71689D
:1057500009FA00F2114300EB8000716008EB800051
:105760002946FFF7B1FCF86A3168C96A326B884292
:10577000106828BF4C4698B1306BC068C7683D467A
:1057800055F8040F82450DD32846FFF73BFCB86A55
:105790000028DBD007F11800FFF734FCD6E700BF84
:1057A0004FF0FF3030623068C06A00EB800058F87C
:1057B0002000012888BF0124B06A002818BF0124F6
:1057C0002046BDE8F08700002DE9F04140F2700569
:1057D000C2F20005A86968B1FFF78EFCA86901381C
:1057E000A861A86980B10024FFF7AAFC2046BDE8A3
:1057F000F08100BF4FF0500080F31188BFF36F8F2E
:10580000BFF34F8FFEE700BF28690028EBD0686E1A
:1058100078B340F240780126C2F20008286FC768CA
:1058200007F11800FFF7EEFB3C1D2046FFF7EAFBEF
:10583000F86A696806FA00F2114300EB80006960BB
:1058400008EB80002146FFF73FFCF86A2968C96A27
:10585000884228BFAE62686E0028DFD1286B0068DE
:1058600020B1286BC068C068406801E04FF0FF308D
:105870002862EC6A4CB10126FFF722FF002818BF0E
:10588000AE62013CF8D10020E862A86A0028AAD0E4
:105890004EF60450CEF200004FF080510160BFF38D
:1058A0004F8F0124BFF36F8FFFF74AFC2046BDE8FE
:1058B000F081F1EE100A4FF6FF71C0F2C03120EA1C
:1058C000010040F04070E1EE100A704740590008B6
:1058D000D14200080000000000000000800000002D
:1058E00000000000000000000000000000000000B8
:1058F0000102030406070809000000000102030476
:10590000A0860100400D0300801A060000350C003F
:1059100040420F0080841E0000093D0000127A0002
:105920000024F40000366E010048E801006CDC023F
:105930000000000004000000020000000800000059
:1059400064656661756C745461736B00705900080E
:105950000000002010000000C80100088059000865
:105960001000002018600000E401000800000000A2
:10597000010000001000000000093D00AAAAAAAA28
:040000050800018D61
:00000001FF
